:020000040800F2
:1000000000000120C1240008292400082B24000836
:100010002D2400082F2400083124000800000000CF
:100020000000000000000000000000003324000871
:100030003524000800000000372400083924000897
:1000400011250008112500081125000811250008B8
:1000500011250008112500081125000811250008A8
:100060001125000811250008112500081125000898
:100070001125000811250008112500081125000888
:1000800011250008112500081125000800000000B6
:100090000000000000000000000000001125000822
:1000A0001125000845240008112500081125000825
:1000B0001125000811250008112500081125000848
:1000C0001125000811250008112500081125000838
:1000D0001125000811250008552400080000000023
:1000E0001125000865240008112500080000000003
:1000F00000000000000000000000000011250008C2
:100100000000000011250008112500081125000835
:1001100000000000000000000000000000000000DF
:1001200011250008112500081125000811250008D7
:100130001125000800000000000000000000000081
:100140000000000000000000000000001125000871
:1001500011250008112500081125000811250008A7
:100160001125000811250008000000000000000013
:10017000000000000000000000000000000000007F
:100180000000000011250008000000000000000031
:04019000112500082D
:1001A00010B5054C237833B9044B13B10448AFF3B1
:1001B00000800123237010BD7000002000000000AB
:1001C000B42D00080C4B43B10C480D4910B5AFF3EA
:1001D00000800C48036823B910BD0A48036833B98E
:1001E0007047094B002BF7D0BDE810401847064B6D
:1001F000002BF5D0184700BF00000000B42D000808
:1002000074000020700000200000000053B94AB9BB
:10021000002908BF00281CBF4FF0FF314FF0FF300E
:1002200000F07AB9ADF1080C6DE904CE00F006F8E3
:10023000DDF804E0DDE9022304B070472DE9F04762
:100240008C460D460446089E002B51D18A42174623
:100250006DD9B2FA82FEBEF1000F0BD0CEF1200CA8
:1002600001FA0EF520FA0CFC02FA0EF74CEA050C26
:1002700000FA0EF44FEA174A250CBCFBFAF81FFAF5
:1002800087F90AFB18CC45EA0C4508FB09F3AB4299
:100290000AD9ED1908F1FF3280F02381AB4240F218
:1002A0002081A8F102083D44ED1AA4B2B5FBFAF092
:1002B0000AFB105544EA054400FB09F9A14509D998
:1002C000E41900F1FF3380F00A81A14540F2078173
:1002D00002383C44A4EB090440EA08400021002E07
:1002E00061D024FA0EF4002334607360BDE8F08717
:1002F0008B4207D9002E54D0002186E82100084601
:10030000BDE8F087B3FA83F1002940F08E80AB425C
:1003100002D3824200F2FA80841A65EB03050120C1
:10032000AC46002E3FD086E81010BDE8F08712B929
:100330000127B7FBF2F7B7FA87FEBEF1000F34D101
:10034000EB1B3A0C1FFA87FC0121B3FBF2F8250CDA
:1003500002FB183345EA03450CFB08F3AB4207D90F
:10036000ED1908F1FF3002D2AB4200F2D180804695
:10037000ED1AA3B2B5FBF2F002FB105543EA0544B7
:100380000CFB00FCA44507D9E41900F1FF3302D2AD
:10039000A44500F2B8801846A4EB0C0440EA0840DB
:1003A0009DE731463046BDE8F087CEF1200405FADE
:1003B0000EF307FA0EF720FA04F83A0C25FA04F4C3
:1003C00048EA0308B4FBF2F14FEA184502FB114476
:1003D0001FFA87FC45EA044501FB0CF3AB4200FA27
:1003E0000EF409D9ED1901F1FF3080F08A80AB429B
:1003F00040F2878002393D44EB1A1FFA88F5B3FBBF
:10040000F2F002FB103345EA034500FB0CF3AB426C
:1004100007D9ED1900F1FF386FD2AB426DD9023820
:100420003D44EB1A40EA01418FE7C1F1200722FA6F
:1004300007F88B4005FA01F448EA030320FA07FEA7
:100440004FEA134CFD404EEA040EB5FBFCF94FEAAF
:100450001E440CFB19551FFA83F844EA054509FBB5
:1004600008F4AC4202FA01F200FA01FA08D9ED18D8
:1004700009F1FF3043D2AC4241D9A9F102091D4430
:100480002D1B1FFA8EFEB5FBFCF00CFB10554EEA3F
:10049000054400FB08F8A04507D9E41800F1FF3532
:1004A00029D2A04527D902381C4440EA0940A4EBD0
:1004B0000804A0FB02894C45C6464D4615D312D010
:1004C00056B1BAEB0E0364EB050404FA07F7CB4010
:1004D0001F43CC40376074600021BDE8F0871846A8
:1004E000F8E69046E0E6C245EAD2B8EB020E69EBC8
:1004F00003050138E4E72846D7E7404691E78146FF
:10050000BEE7014678E702383C4445E7084608E77D
:10051000A8F102083D442BE7704700BF000000002F
:1005200001F0FF01102A2BDB10F0070F08D010F8A4
:10053000013B013A8B422DD010F0070F42B3F6D1A8
:10054000F0B441EA012141EA014122F007047FF0C1
:1005500000070023F0E80256083C85EA010586EA18
:10056000010685FA47F5A3FA87F586FA47F6A5FA54
:1005700087F68EB9EED1F0BC01F0FF0102F0070260
:1005800032B110F8013B013A83EA010313B1F8D10B
:100590000020704701387047002D06BF35460338EC
:1005A000073815F0010F07D1013015F4807F02BF25
:1005B000013015F4C03F0130F0BC0138704700BF76
:1005C00010B504460E4B18784FF47A73B3FBF0F372
:1005D0000C4A1068B0FBF3F000F092F868B90F2CE9
:1005E00001D9012010BD002221464FF0FF3000F05C
:1005F00049F8034B5C60002010BD012010BD00BF16
:10060000000000200800002008B50B4B1A6842F4D7
:1006100000721A601A6842F480621A601A6842F422
:1006200080721A60032000F01BF80020FFF7C8FF5B
:1006300001F04AFE002008BD003C0240034A116858
:10064000034B1B780B441360704700BF9C000020D5
:1006500000000020014B1868704700BF9C0000207C
:10066000074AD36823F4E0631B041B0C000200F468
:10067000E060184340F0BF6040F40030D060704745
:1006800000ED00E030B4164BDB68C3F30223C3F186
:100690000704042C28BF04241D1D062D17D9033B75
:1006A000012505FA04F4013C2140994005FA03F3C1
:1006B000013B1340194300280BDB0901C9B200F1CB
:1006C000604000F5614080F8001330BC70470023A3
:1006D000E6E700F00F000901C9B2024B1954F4E734
:1006E00000ED00E014ED00E0420900F01F000123DE
:1006F00003FA00F0014B43F82200704700E100E0EC
:100700000138B0F1807F0AD2064B5860F021064ACA
:1007100082F823100020986007221A607047012099
:10072000704700BF10E000E000ED00E0042805D0B5
:10073000054A136823F0040313607047024A1368E4
:1007400043F004031360704710E000E0704708B501
:10075000FFF7FCFF08BD90F83530DBB2022B03D069
:100760008023436501207047052380F835300268F7
:10077000136823F00103136000207047F0B583B0C5
:1007800000248FE0E608083650F8262004F0070E13
:100790004FEA8E0E0F2707FA0EF722EA07020F69BB
:1007A00007FA0EF73A4340F826208BE08668164099
:1007B000CF6807FA0EF73E438660466826EA0303D1
:1007C0004E68C6F30016A64033434360C3681A4020
:1007D0008B6803FA0EF31A43C2604B6813F0805F14
:1007E0005FD0002301934B4B5A6C42F480425A6411
:1007F0005B6C03F480430193019BA208961C464B5B
:1008000053F8263004F00306B6000F27B74023EA5A
:100810000703424FB84272D007F58067B84270D0E4
:1008200007F58067B8426ED007F58067B8426CD094
:1008300007F58067B84260D0072707FA06F633430A
:100840000232354E46F82230354B1A68EB4302EA45
:1008500003064F6817F4803F01D045EA0206304A8C
:100860001660526803EA02064F6817F4003F01D091
:1008700045EA02062A4A5660926803EA02064F6871
:1008800017F4801F01D045EA0206254A9660D26817
:1008900013404E6816F4001F01D045EA0203204AB7
:1008A000D36001340F2C32D80123A3400A6803EA35
:1008B0000205AB42F5D14A68022A3FF463AF122A1F
:1008C0003FF460AF06684FEA440E032202FA0EF2CC
:1008D000D24316404F6807F0030707FA0EF73E436E
:1008E00006604E68771E012F7FF660AF112E3FF431
:1008F0005DAF122E7FF46AAF58E704279DE700270B
:100900009BE7012799E7022797E7032795E703B0BD
:10091000F0BD00BF00380240003801400000024036
:10092000003C014012B90904816170478161704740
:100930004369594041617047002800F0BB8170B5A0
:1009400082B00446036813F0010F3BD0A74B9B68AD
:1009500003F00C03042B2CD0A44B9B6803F00C0376
:10096000082B21D06368B3F5803F4FD0B3F5A02F9B
:1009700052D09E4B1A6822F480321A601A6822F410
:1009800080221A606368002B50D0FFF763FE054693
:10099000964B1B6813F4003F14D1FFF75BFE401B1E
:1009A0006428F5D903208AE1904B5B6813F4800F2B
:1009B000D8D08E4B1B6813F4003F03D06368002B24
:1009C00000F07A81236813F0020F55D0874B9B68A3
:1009D00013F00C0F3ED0854B9B6803F00C03082BE3
:1009E00033D0E368002B68D00122814B1A60FFF7F7
:1009F00031FE05467D4B1B6813F0020F54D1FFF703
:100A000029FE401B0228F5D9032058E1774A1368D4
:100A100043F480331360B5E7744B1A6842F48022C4
:100A20001A601A6842F480321A60ABE7FFF712FED0
:100A300005466E4B1B6813F4003FC3D0FFF70AFE58
:100A4000401B6428F5D9032039E1684B5B6813F437
:100A5000800FC6D1654B1B6813F0020F04D0E3680A
:100A6000012B01D001202AE1604A136823F0F8032A
:100A7000216943EAC1031360236813F0080F40D0D3
:100A8000636963B301225B4B1A60FFF7E3FD054620
:100A9000564B5B6F13F0020F33D1FFF7DBFD401BAA
:100AA0000228F5D903200AE1504A136823F0F8031D
:100AB000216943EAC1031360DEE700224C4B1A6050
:100AC000FFF7C8FD0546494B1B6813F0020FD3D052
:100AD000FFF7C0FD401B0228F5D90320EFE00022FC
:100AE000444B1A60FFF7B6FD0546404B5B6F13F0B1
:100AF000020F06D0FFF7AEFD401B0228F5D90320F8
:100B0000DDE0236813F0040F79D0384B1B6C13F031
:100B1000805F33D100230193344B1A6C42F0805232
:100B20001A641B6C03F080530193019B0125324B27
:100B30001B6813F4807F23D0A368012B34D0052BCE
:100B400038D02A4B1A6F22F001021A671A6F22F06E
:100B500004021A67A368002B36D0FFF77BFD064618
:100B6000224B1B6F13F0020F48D1FFF773FD801B60
:100B700041F288339842F3D90320A0E00025D6E75C
:100B80001D4A136843F480731360FFF763FD064644
:100B9000194B1B6813F4807FCED1FFF75BFD801BE0
:100BA0000228F5D903208AE0104A136F43F00103AD
:100BB0001367CFE70D4B1A6F42F004021A671A6FE2
:100BC00042F001021A67C5E7FFF744FD0646074BEE
:100BD0001B6F13F0020F11D0FFF73CFD801B41F299
:100BE00088339842F3D9032069E000BF00380240FF
:100BF00000004742800E474200700040E5B9A369FB
:100C0000002B5BD0304A926802F00C02082A58D0C0
:100C1000022B17D000222D4B1A60FFF71BFD044654
:100C2000294B1B6813F0007F42D0FFF713FD001B18
:100C30000228F5D9032042E0234A136C23F08053A5
:100C40001364DCE70022214B1A60FFF703FD054621
:100C50001D4B1B6813F0007F06D0FFF7FBFC401B09
:100C60000228F5D903202AE0E369226A1343626A65
:100C700043EA8213A26A5208013A43EA0243E26A53
:100C800043EA0263104A53600122104B1A60FFF7D7
:100C9000E1FC04460C4B1B6813F0007F06D1FFF704
:100CA000D9FC001B0228F5D9032008E0002006E04B
:100CB000002004E001207047012000E0002002B085
:100CC00070BD0120FBE700BF0038024060004742D2
:100CD000F8B5314B9B6803F00C03042B59D0082B5B
:100CE00001D02E48F8BD2C4B5A6802F03F025B68D9
:100CF00013F4800F2AD0284B5B68C3F388131E4679
:100D000000275C010025E41A65EB0705A90141EA0B
:100D10009461A001001B61EB0501CB0043EA507315
:100D2000C400A01943EB07014B0243EAD05344022D
:100D3000204619460023FFF769FA174B5B68C3F397
:100D4000014301335B00B0FBF3F0F8BD124B5B686D
:100D5000C3F388131E4600275C010025E41A65EBE7
:100D60000705A90141EA9461A001001B61EB05019F
:100D7000CB0043EA5073C400A01943EB07018B0278
:100D800043EA90538402204619460023FFF73EFAB7
:100D9000D3E70348F8BD00BF003802400024F40048
:100DA00000127A00002800F09D8070B504464F4B79
:100DB0001B6803F00F038B4209D2CBB24B4A13706E
:100DC000136803F00F03994201D0012070BD23681E
:100DD00013F0020F17D013F0040F04D0444A9368A5
:100DE00043F4E0539360236813F0080F04D0404AA3
:100DF000936843F4604393603D4A936823F0F003A3
:100E0000A068034393600D46236813F0010F32D0AE
:100E10006368012B21D09A1E012A25D9344A126811
:100E200012F0020F60D032498A6822F003021343A5
:100E30008B60FFF70FFC06462D4B9B6803F00C03FD
:100E40006268B3EB820F16D0FFF704FC801B41F2FF
:100E500088339842F0D9032070BD254A126812F4F5
:100E6000003FE0D1012070BD214A126812F0007FDE
:100E7000D9D1012070BD1D4B1B6803F00F039D42AB
:100E800009D2EAB2194B1A701B6803F00F039D4296
:100E900001D0012070BD236813F0040F06D0144A5E
:100EA000936823F4E053E1680B439360236813F0E5
:100EB000080F07D00E4A936823F46043216943EA80
:100EC000C1039360FFF704FF094B9B68C3F303134F
:100ED000084AD35CD840084B18600020FFF770FB2D
:100EE000002070BD01207047012070BD003C024011
:100EF00000380240CC2D000808000020014B186883
:100F0000704700BF0800002008B5FFF7F7FF044B4B
:100F10009B68C3F38223034AD35CD84008BD00BF5B
:100F200000380240DC2D000808B5FFF7E7FF044B4E
:100F30009B68C3F34233034AD35CD84008BD00BF6B
:100F400000380240DC2D000830B583B00446036849
:100F500013F0050F0ED1236813F0020F36D123686A
:100F600013F0080F00F09980227C4D4B1A6000208E
:100F700003B030BD00224B4B1A60FFF76BFB0546F8
:100F8000494B1B6813F0006F06D0FFF763FB401B53
:100F90000228F5D90320EBE76268A3681B0743EA40
:100FA0008213414AC2F8843001223E4B1A60FFF797
:100FB00051FB05463C4B1B6813F0006FCBD1FFF78C
:100FC00049FB401B0228F5D90320D1E700230193F8
:100FD000354B1A6C42F080521A641B6C03F080533C
:100FE0000193019B314A136843F480731360FFF748
:100FF00031FB05462D4B1B6813F4807F06D1FFF7AC
:1010000029FB401B0228F5D90320B1E7264B1B6FB3
:1010100013F4407312D0E26802F4407293420DD090
:10102000214B1A6F22F440722149012008600020F0
:1010300008601A671B6F13F0010F12D1E36803F405
:101040004072B2F5407F1DD0174A936823F4F8131D
:10105000936015490B6FE268C2F30B0213430B67F1
:101060007DE7FFF7F7FA05460F4B1B6F13F0020FF2
:10107000E4D1FFF7EFFA401B41F288339842F3D9ED
:10108000032075E708498A6822F4F81223F07043B8
:1010900023F4407313438B60DBE7002068E700BF55
:1010A000E0114742680047420038024000700040AB
:1010B000400E47427047000010B504460368DA68E6
:1010C00012F4807F03D09B6813F4805F0FD12368F4
:1010D000DA6812F4007F03D09B6813F4005F0FD12D
:1010E0004FF400320B4B5A610123637710BDFFF7B9
:1010F000E1FF2268D368DBB263F4C073D360E6E734
:10110000204600F0BEFA2268D368DBB263F4207395
:10111000D360E5E7003C014038B504460268D36877
:1011200023F0A003D360FFF795FA05462368DB6838
:1011300013F0200F07D1FFF78DFA401BB0F57A7F2F
:10114000F4D9032038BD002038BD38B50368DA680B
:1011500012F0400F01D0002038BD04464FF0FF329E
:10116000DA60FFF777FA05462368DB6813F0400F73
:1011700007D1FFF76FFA401BB0F57A7FF4D903204F
:1011800038BD002038BD38B500285CD00446437F08
:10119000002B41D0022363772368CA225A62236856
:1011A00053225A622046FFF7D0FF0546002837D168
:1011B0002268936823F4E00323F0400393602168DE
:1011C0008A686368206903436069034313438B6043
:1011D0002368E2681A6122681369A16843EA01433F
:1011E00013612268D36823F08003D36023689B686F
:1011F00013F0200F1BD02268136C23F48023136498
:101200002268136CA1690B4313642368FF225A629E
:1012100001236377284638BD037701F09FF8B9E7CB
:101220002368FF225A62042363770125F2E72046F0
:10123000FFF772FF0028DED02368FF225A620423E2
:1012400063770125E6E70125E4E7002302E00133A7
:101250000A38C0B20928FAD81B01DBB2184370471C
:1012600070B5037F012B65D00123037702234377F9
:101270003AB94B7813F0100F03D003F0EF030A33A1
:101280004B700E460446002A32D1C878FFF7DDFFC6
:1012900005047078FFF7D9FF45EA0025B078FFF71D
:1012A000D4FF2843357840EA45352368CA225A627C
:1012B000236853225A622046FFF747FF064610BBB9
:1012C000236825F07F4525F0C0055D602268D3685E
:1012D00023F08003D36023689B6813F0200F1BD09A
:1012E0002368FF225A62012363770023237722E0D9
:1012F000CD784878000240EA05408D7828430D7883
:1013000040EA4535D1E72368FF225A620423637718
:101310000023237701260EE02046FFF7FDFE00287C
:10132000DED02368FF225A620423637700232377E9
:10133000012600E00226304670BDF8B5037F012B80
:1013400077D00E4604460123037702234377002A11
:1013500046D103689B6813F0400F01D10023CB7086
:101360003078FFF772FF05047078FFF76EFF45EAEB
:101370000025B078FFF769FF2843F57840EA054576
:101380002368CA225A62236853225A622046FFF712
:10139000DCFE0746002835D1236805F07F3525F0AF
:1013A000FE451D602268936823F4802393602168C2
:1013B0008B68F2683069024313438B602268D368FC
:1013C00023F08003D36023689B6813F0200F22D0A2
:1013D0002368FF225A62012363770023237729E0E1
:1013E00003689B6813F0400F01D10023CB70357860
:1013F0007078000240EA0540B5782843F57840EA65
:101400000545BDE72368FF225A6204236377002362
:10141000237701270EE02046FFF77EFE0028D7D075
:101420002368FF225A62042363770023237701276E
:1014300000E002273846F8BDF0B583B0634B1B6867
:10144000634CA4FB0343DB0A4FF47A7606FB03F3F9
:101450000193037F012B00F0B5800D460446012364
:10146000037702234377002A60D103689B6813F057
:10147000400F01D10023CB70EF692878FFF7E5FE1C
:1014800006046878FFF7E1FE46EA0026A878FFF731
:10149000DCFE0643E87846EA004695F82000FFF7B0
:1014A000D4FE46EA00603843696901436868AB6965
:1014B00018432368CA225A62236853225A626B6A0D
:1014C000B3F5807F4CD02268936823F40073936057
:1014D0002268D368DBB263F42073D360019B5A1E89
:1014E0000192002B66D02368DA6812F0020FF5D063
:1014F0001962236898642268936843F400739360C8
:101500002268936843F400539360324B1A6842F4A4
:1015100000321A609A6842F400329A602368FF220F
:101520005A6201236377002020774CE003689B68B0
:1015300013F0400F01D10023CB70EA6929786B7852
:101540001B0243EA0143A9780B43E97843EA0143CC
:1015500095F8201043EA0163134369691943A5E72D
:101560002268936823F4807393602268D368DBB2A7
:1015700063F4C073D360019B5A1E019293B1236838
:10158000DA6812F0010FF6D0D96123685864226836
:10159000936843F4807393602268936843F48053A4
:1015A0009360B2E72368FF225A620320607700232A
:1015B000237708E02368FF225A6203206077002324
:1015C000237700E0022003B0F0BD00BF0800002038
:1015D000D34D6210003C0140030903EB83035A0022
:1015E00000F00F001044C0B2704770B503689B6AEA
:1015F0004B6003681B69C3F30E038B6003681B68B1
:1016000003F07F3323F0FE431D0C05F03F0008700C
:10161000C3F306264E7003F07F048C7005F040057E
:10162000CD705AB90D46FFF7D7FF28703046FFF747
:10163000D3FF68702046FFF7CFFFA870002070BD71
:1016400070B503685B6823F07F4323F0C003180C78
:10165000C870C3F304264E7003F03F058D70C3F3CA
:1016600042330B705AB90C46FFF7B6FFE0703046B4
:10167000FFF7B2FF60702846FFF7AEFFA0700020B2
:1016800070BD70470268D36843F00103D3600268FD
:10169000136843F0010313600020704770477047E0
:1016A0007047704710B5044603681A6912F0020FBC
:1016B00011D0DA6812F0020F0DD06FF002021A6139
:1016C0000123037603689B6913F0030F70D0FFF7C3
:1016D000E6FF0023237623681A6912F0040F12D064
:1016E000DA6812F0040F0ED06FF004021A610223C0
:1016F000237623689B6913F4407F5FD02046FFF771
:10170000CEFF0023237623681A6912F0080F12D047
:10171000DA6812F0080F0ED06FF008021A61042385
:1017200023762368DB6913F0030F4ED02046FFF7C2
:10173000B6FF0023237623681A6912F0100F12D027
:10174000DA6812F0100F0ED06FF010021A61082341
:1017500023762368DB6913F4407F3DD02046FFF7F2
:101760009EFF0023237623681A6912F0010F03D02D
:10177000DA6812F0010F36D123681A6912F0800F6F
:1017800003D0DA6812F0800F34D123681A6912F09E
:10179000400F03D0DA6812F0400F32D123681A6983
:1017A00012F0200F03D0DA6812F0200F30D110BDF4
:1017B000FFF774FF2046FFF773FF8AE72046FFF725
:1017C0006DFF2046FFF76CFF9BE72046FFF766FFA3
:1017D0002046FFF765FFACE72046FFF75FFF204696
:1017E000FFF75EFFBDE76FF001021A61204600F0CF
:1017F000F5FBC1E76FF080021A61204600F092F815
:10180000C3E76FF040021A612046FFF74AFFC5E7C1
:101810006FF020021A61204600F083F8C7E700004D
:101820000368324A904245D0B0F1804F44D0A2F5CF
:101830007C42904242D002F58062904240D002F554
:101840008062904234D000221AB123F070034A68BB
:101850001343264A904237D0B0F1804F36D0A2F5DC
:101860007C42904234D002F58062904232D002F540
:101870008062904230D002F59A3290422ED002F52A
:10188000806290422CD002F5806290421AD00022F1
:101890001AB123F44073CA68134303608B68C362B0
:1018A0000B688362114B98421CD00123436170473F
:1018B0000122C9E70122C7E70122C5E70122C3E7E8
:1018C0000122C1E70122E3E70122E1E70122DFE78C
:1018D0000122DDE70122DBE70122D9E70122D7E778
:1018E0000122D5E70B690363DFE700BF0000014079
:1018F000A8B110B5044690F839305BB1022384F8E2
:101900003930211D2068FFF78BFF012384F839301F
:10191000002010BD80F8383000F036FDEEE70120E1
:101920007047704770470268D36823F49073D360A0
:101930000268536923F001035361202380F83A3091
:10194000704790F83930DBB2212B01D0022070476C
:101950008368B3F5805F17D00268036A591C01627F
:101960001B785360C38C9BB2013B9BB2C384DBB931
:101970000268D36823F08003D3600268D36843F021
:101980004003D36000207047036A02681B88C3F3DA
:101990000803536003691BB9036A02330362E1E77A
:1019A000036A01330362DDE7002070472DE9F04749
:1019B00004460268136923F44053C1680B43136162
:1019C0000168CB6823F4164323F00C038268006996
:1019D000024360690243E06902431343CB6022681B
:1019E000536923F44073A1690B435361E369B3F571
:1019F000004F62D0D4F80080BB4B984500F01B81AB
:101A000003F58063984500F01681FFF77DFA00EB3F
:101A1000800000EB80006568AD00B0FBF5F5B34FCA
:101A2000A7FB05356D092E01FFF76EFA00EB80006C
:101A300000EB80006568AD00B0FBF5FAFFF764FAD3
:101A400000EB800000EB80006568AD00B0FBF5F5B1
:101A5000A7FB05356D094FF0640909FB15A52D019C
:101A60003235A7FB05356D0905F0F0053544FFF764
:101A70004BFA00EB800000EB80006668B600B0FB1C
:101A8000F6F6FFF741FA00EB800000EB8000636898
:101A90009B00B0FBF3F0A7FB0030400909FB106985
:101AA0004FEA091909F13209A7FB0937C7F34317B0
:101AB0002F44C8F80870BDE8F087D4F8008003F11F
:101AC000804303F5104398455CD003F58063984547
:101AD00058D0FFF719FA00EB800000EB8000656832
:101AE0006D00B0FBF5F5814FA7FB05356D092E01A3
:101AF000FFF70AFA00EB800000EB800065686D00DC
:101B0000B0FBF5FAFFF700FA00EB800000EB800075
:101B100065686D00B0FBF5F5A7FB05356D094FF065
:101B2000640909FB15A5ED003235A7FB05356D09E4
:101B30006D0005F4F8753544FFF7E6F900EB800019
:101B400000EB800066687600B0FBF6F6FFF7DCF984
:101B500000EB800000EB800063685B00B0FBF3F3F8
:101B6000A7FB03235B0909FB13694FEAC90909F1C4
:101B70003209A7FB0937C7F342172F44C8F808708A
:101B8000BDE8F087FFF7D0F900EB800000EB8000A4
:101B900065686D00B0FBF5F5544FA7FB05356D0981
:101BA0002E01FFF7C1F900EB800000EB80006568B3
:101BB0006D00B0FBF5FAFFF7B7F900EB800000EB22
:101BC000800065686D00B0FBF5F5A7FB05356D0974
:101BD0004FF0640909FB15A5ED003235A7FB05356B
:101BE0006D096D0005F4F8753544FFF79DF900EBBC
:101BF000800000EB800066687600B0FBF6F6FFF729
:101C000093F900EB800000EB800063685B00B0FBA1
:101C1000F3F3A7FB03235B0909FB13694FEAC90927
:101C200009F13209A7FB0937C7F342172F44C8F857
:101C30000870BDE8F087FFF777F900EB800000EB54
:101C400080006568AD00B0FBF5F5284FA7FB0535B2
:101C50006D092E01FFF768F900EB800000EB8000B2
:101C60006568AD00B0FBF5FAFFF75EF900EB8000A8
:101C700000EB80006568AD00B0FBF5F5A7FB05350E
:101C80006D094FF0640909FB15A52D013235A7FB3D
:101C900005356D0905F0F0053544FFF745F900EB12
:101CA000800000EB80006668B600B0FBF6F6FFF738
:101CB0003BF900EB800000EB800063689B00B0FB09
:101CC000F3F3A7FB03235B0909FB13694FEA091927
:101CD00009F13209A7FB0937C7F343172F44C8F8A6
:101CE0000870BDE8F08700BF001001401F85EB5170
:101CF00058B310B5044690F839300BB3242384F858
:101D000039302268D36823F40053D3602046FFF7AC
:101D10004DFE2268136923F49043136122685369CE
:101D200023F02A0353612268D36843F40053D3603D
:101D30000020E063202384F8393084F83A3010BD65
:101D400080F8383000F040FBD8E70120704790F869
:101D50003930DBB2202B01D002207047A9B1B2B1DB
:101D600090F83830012B14D001628284C2840023A1
:101D7000C363212280F8392080F838300168CA68AE
:101D800042F08002CA601846704701207047012067
:101D9000704702207047704708B50168CB6823F090
:101DA0004003CB60202380F83930FFF7F4FF002098
:101DB00008BD704708B590F83A30DBB2222B01D04D
:101DC000022008BD8368B3F5805F0FD003690BBBA9
:101DD000836A5A1C8262026852681A70C38D9BB271
:101DE000013B9BB2C385F3B1002008BD826A036941
:101DF00043B903685B68C3F308031380836A023343
:101E00008362EBE703685B68DBB21380836A0133AC
:101E10008362E3E7826A531C836203685B6803F0B2
:101E20007F031370DAE70268D36823F49073D360FA
:101E30000268536923F001035361202380F83A308C
:101E4000FFF7B7FF002008BD7047000010B504463B
:101E500002681368D168526913F00F0005D113F0BE
:101E6000200F02D011F0200F53D1002867D012F0BC
:101E7000010202D111F4907F61D013F0010F06D05E
:101E800011F4807F03D0E06B40F00100E06313F0B9
:101E9000040F04D01AB1E06B40F00200E06313F0CD
:101EA000020F04D01AB1E06B40F00400E06313F0BD
:101EB000080F04D01AB1E26B42F00802E263E26B51
:101EC000002A48D013F0200F02D011F0200F24D1A7
:101ED00023685B6903F04003E26B12F0080F00D146
:101EE0003BB32046FFF71FFD23685A6912F0400FED
:101EF0001BD05A6922F040025A61636B8BB11A4AB7
:101F00001A65606BFEF727FC28B3606B036D98477A
:101F100010BD2046FFF74EFF10BD2046FFF74AFFD9
:101F2000D6E72046FFF790FF10BD2046FFF78CFF55
:101F300010BD2046FFF788FF0023E36310BD13F0B8
:101F4000800F02D011F0800F06D113F0400F02D0A5
:101F500011F0400F04D110BD2046FFF7F2FC10BD78
:101F60002046FFF719FFF6E76D1F000808B5806BE4
:101F70000023C385C384FFF767FF08BD30B589B070
:101F800000240194134B1A6B42F001021A631A6B7E
:101F900002F001020192019A02941A6B42F00802C7
:101FA0001A631B6B03F008030293029B0A4D22463F
:101FB0004FF470412846FEF7B5FC4FF4704303938D
:101FC000012304930594069403A92846FEF7D6FB43
:101FD00009B030BD00380240000C024070B59EB020
:101FE000154D164E002229463046FFF729FB144CAA
:101FF000002221463046FFF7F8FA124A13880133CF
:102000001380AA786B78E97820786578A4780394AF
:102010000295019000910C4905A800F09FFA82B248
:1020200005A90A48FFF793FE4FF400510848FEF750
:102030007FFC1EB070BD00BFF0000020F400002047
:10204000A00000208C000020E42D000814010020D6
:10205000000C0240FEE7000000B591B03048314B63
:102060000360002343607F228260FF22C26003611D
:1020700043618361FFF787F800283ED10C238DF878
:102080002C300F238DF82D3025238DF82E30002293
:102090000E920F920BA92248FFF74FF988BB062337
:1020A0008DF8283010238DF829301B238DF82A3025
:1020B00012238DF82B3000220AA91948FFF7D0F817
:1020C00020BB00228DF800208DF801200A238DF816
:1020D0000230019203920492059206920792012324
:1020E0008DF820304FF48073099369460C48FFF750
:1020F000A3F980B911B05DF804FBF8210A48FFF795
:10210000A9FF4FF482710848FFF7A4FF4FF48771CD
:102110000548FFF79FFF4FF490710348FFF79AFFC0
:10212000F4000020002800400C2E000808B50A48E2
:102130000A4B036042F20F7343600023836042F254
:10214000CF02C2600361FFF7D3FB00B908BD4FF4B3
:1021500098710348FFF77EFFB4000020004401405F
:102160000C2E000808B50B480B4B03604FF4E1330D
:10217000436000238360C36003610C22426183617A
:10218000C361FFF7B5FD00B908BD40F24311034834
:10219000FFF760FF14010020004400400C2E0008EF
:1021A00000B599B000220092314B196C41F080517A
:1021B00019641B6C03F080530093009B01922D491E
:1021C0000B6823F4404343F400430B600B6803F4B3
:1021D00040430193019B0A230C9301230F93102189
:1021E00010911193022312931392082214925422F5
:1021F00015921693072317930CA8FEF79DFB50BB6F
:102200000F23079302210891002309934FF4805272
:102210000A920B9307A8FEF7C5FD00BB02230293A9
:102220004FF40073059302A8FEF78EFED8B9FEF7AF
:1022300065FE114BA3FB00308009FEF761FA042014
:10224000FEF774FA002211464FF0FF30FEF71AFA3B
:1022500019B05DF804FBB9210848FFF7FBFEC72160
:102260000648FFF7F7FECE210448FFF7F3FE00BF54
:102270000038024000700040D34D62100C2E000860
:1022800008B5FEF7C1F9FFF78BFFFFF777FEFFF701
:10229000E3FEFFF74BFFFFF765FF0748FFF7F2F993
:1022A000064C002206492046FFF7CAF900220549DC
:1022B0002046FFF79AF9F3E7B4000020F40000206D
:1022C000F0000020A000002010B582B0002400948F
:1022D000214B5A6C42F480425A645A6C02F4804298
:1022E0000092009A01941A6C42F080521A641B6C9E
:1022F00003F080530193019B0720FEF7B1F92246BA
:1023000021466FF00B00FEF7BDF9224621466FF023
:102310000A00FEF7B7F9224621466FF00900FEF7E2
:10232000B1F9224621466FF00400FEF7ABF92246D0
:1023300021466FF00300FEF7A5F9224621466FF013
:102340000100FEF79FF9224621464FF0FF30FEF7CD
:1023500099F902B010BD00BF0038024008B502680C
:10236000074B9A4200D008BD0122064B1A6000229A
:1023700011462920FEF786F92920FEF7B5F9F2E784
:10238000002800403C0E474202680E4B9A4200D0A3
:10239000704700B583B00021019103F574435A6C76
:1023A00042F400325A645B6C03F400330193019BE6
:1023B0000A461920FEF766F91920FEF795F903B0D1
:1023C0005DF804FB004401400268154B9A4200D0BE
:1023D000704710B586B00024009403F5FA331A6CE8
:1023E00042F400321A641B6C03F400330093009B28
:1023F0000C230193022302930123039303230493E9
:102400000723059301A90748FEF7B8F9224621469C
:102410002620FEF737F92620FEF766F906B010BD34
:1024200000440040000002407047FEE7FEE7FEE780
:10243000FEE770477047704708B5FEF7FFF8FEF7F4
:1024400086F908BD08B50248FFF72CF908BD00BFA2
:10245000B400002008B50248FFF7F8FC08BD00BF33
:102460001401002008B50248FEF726FE08BD00BF93
:10247000F40000200F49D1F8883043F47003C1F80C
:1024800088300D4B1A6842F001021A6000209860F3
:102490001A6822F0847222F480321A60074A5A6065
:1024A0001A6822F480221A60D8604FF000638B60B3
:1024B000704700BF00ED00E00038024010300024FB
:1024C000DFF834D0002103E00C4B5B58435004315B
:1024D0000B480C4B42189A42F6D30B4A02E00023F9
:1024E00042F8043B094B9A42F9D3FFF7C3FF00F0CF
:1024F00011F8FFF7C5FE704700000120602E0008AC
:102500000000002070000020700000205801002012
:10251000FEE7000070B50D4E0D4CA41BA410002565
:10252000A54209D10B4E0C4C00F044FCA41BA41096
:102530000025A54205D170BD56F8253098470135D4
:10254000EEE756F8253098470135F2E7582E000897
:10255000582E0008582E00085C2E00080EB400B556
:102560009CB04FF402711DABADF8141002900690B0
:102570006FF000410A48049107914FF6FF7153F83C
:10258000042BADF816100068019302A900F066F85C
:10259000029B00221A701CB05DF804EB03B0704778
:1025A0000C0000202DE9F0478E689E4282460C46C2
:1025B0009146984635D88A8912F4906F31D02568B3
:1025C00009696F1A6569022305EB450595FBF3F56B
:1025D00008F101033B449D4238BF1D46530531D5E8
:1025E000294600F039FB064650B90C23CAF80030E2
:1025F000A38943F04003A3814FF0FF30BDE8F0878B
:102600003A46216900F0B4FAA38923F4906343F0B9
:102610008003A381266165613E44ED1B2660A560B1
:102620004646464528BF464632464946206800F0A1
:10263000AAFAA3689B1BA36023681E44266000209F
:10264000BDE8F0872A4600F065FB06460028E1D188
:102650002169504600F0B2FAC7E700002DE9F04FBB
:102660009DB0804603938B891C060D4616460FD5F8
:102670000B696BB9402100F0EFFA2860286128B996
:102680000C23C8F800304FF0FF30C5E040236B61E9
:102690000023099320238DF8293030238DF82A3028
:1026A0004FF0010B37463C4614F8013B002B3CD160
:1026B000B7EB060A0BD05346324629464046FFF791
:1026C00071FF013000F0A380099B534409933B78CC
:1026D000002B00F09C8000234FF0FF3204930793FF
:1026E000059206938DF853301A93052221785048AD
:1026F000FDF716FF671C049BD8B9D90644BF2022FA
:102700008DF853201A0744BF2B228DF853202278CE
:102710002A2A16D0079A00210A20274601343B783E
:10272000303B092B51D9C9B111E0252BC0D0274628
:10273000B9E73F4A801A0BFA00F0184304903C4670
:10274000D3E7039A111D12680391002A01DB079257
:1027500004E0524243F00203079204933B782E2B8D
:102760000ED17B782A2B07F1010132D1039B1A1D70
:102770001B680392002BB8BF4FF0FF33023705935D
:102780002C4C397803222046FDF7CAFE38B140238D
:10279000001B03FA00F0049B0343049301373978CC
:1027A00025488DF8281006227E1CFDF7B9FE00286A
:1027B00035D0224BFBB9039B073323F007030833C3
:1027C0000393099B4B4409936CE700FB0232012100
:1027D000A3E70023059318460A240F4601313A78EF
:1027E000303A092A03D9002BCAD00590C8E704FB68
:1027F00000200123F1E703AB00932A46104B04A904
:102800004046AFF30080B0F1FF3F8146D9D1AB899C
:102810005B063FF538AF09981DB0BDE8F08F03ABFC
:1028200000932A46064B04A9404600F081F8EAE7E7
:102830001C2E0008222E0008262E00080000000092
:10284000A52500082DE9F04791461F468A680B69C7
:10285000DDF820809342B8BF1346C9F8003091F8E4
:10286000432006460C4612B10133C9F800302368F4
:10287000990642BFD9F800300233C9F80030256804
:1028800015F0060507D104F1190AE368D9F800200C
:102890009B1A9D4229DB94F843302268003318BF0D
:1028A000012392062ED404F1430239463046C04734
:1028B000013021D02368E568D9F8002003F0060331
:1028C000042B08BFAD1AA36822690CBF25EAE57581
:1028D00000259342C4BF9B1AED184FF000091A342B
:1028E0004D451BD10020BDE8F087012352463946F3
:1028F0003046C047013003D14FF0FF30BDE8F087CC
:102900000135C2E7E1185A1C302081F84300224407
:1029100094F8451082F843100233C4E7012322469D
:1029200039463046C0470130E6D009F10109D7E702
:102930002DE9F04317460A7E85B06E2A9846064672
:102940000C460C9B01F1430E00F0BC801AD8632AA0
:102950002ED00AD8002A00F0C880582A00F08A80B9
:1029600004F1420584F842202AE0642A01D0692A51
:10297000F6D121681A6811F0800F23D0111D19605B
:10298000136827E0732A00F0B48008D86F2A2AD091
:10299000702AE5D10A6842F020020A6003E0752A35
:1029A00021D0782ADCD1782284F845206E4964E071
:1029B0001A6801F14205111D1960136884F842304C
:1029C0000123A3E011F0400F02F104011960D7D0F8
:1029D000B2F90030002B03DA2D225B4284F8432049
:1029E00062490A2217E02068196810F0800F03D0AE
:1029F000081D18600B6806E010F0400F01F104009C
:102A00001860F7D00B8859496F2A14BF0A22082290
:102A1000002084F843006568A560002DC0F29C800A
:102A2000206820F004002060002B3FD1002D40F0F2
:102A300095807546082A0BD12368DA0708D52369E3
:102A400062689A42DEBF302305F8013C05F1FF358C
:102A5000AEEB05032361CDF800803B4603AA214677
:102A60003046FFF7EFFE013055D14FF0FF3005B093
:102A7000BDE8F08381F845203C492268186812F0CF
:102A8000800F00F104051D6001D0036802E05506C7
:102A9000FBD50388D00744BF42F0200222601BB957
:102AA000226822F0200222601022B1E77546B3FBB3
:102AB000F2F002FB1033CB5C05F8013D0346002821
:102AC000F5D1B7E708681A68496910F0800F04D09B
:102AD000101D18601368196007E010F0400F02F134
:102AE000040018601368F6D019800023236175462E
:102AF000B1E71A68111D196015686268002128463F
:102B0000FDF70EFD08B1401B606063682361002380
:102B100084F843309FE723692A4639463046C04748
:102B20000130A2D023689B0707D5002504F11909BD
:102B3000E368039A9B1A9D4205DBE068039B984279
:102B4000B8BF184693E701234A4639463046C04786
:102B500001308AD00135EBE7002BA7D10B7884F840
:102B6000423004F1420565E73E2E00082D2E000894
:102B700010B5431E0A44914200D110BD11F8014B1B
:102B800003F8014FF7E7884210B501EB020303D8C1
:102B9000421E99420CD110BD9842F9D28118D21A26
:102BA000D34200D110BD13F8014D01F8014DF7E7F4
:102BB00011F8014B02F8014FEBE7000038B505466C
:102BC000002945D051F8043C0C1F002BB8BFE41875
:102BD00000F0D6F81F4A1368104633B963601460DA
:102BE0002846BDE8384000F0CCB8A3420CD9216893
:102BF0006218934204BF1A685B68636004BF52188E
:102C000022600460ECE713465A680AB1A242FAD97E
:102C100019685818A0420BD1206801445818824204
:102C20001960DDD1106852685A6001441960D7E715
:102C300002D90C232B60D3E7206821188A4204BFF5
:102C400011685268626004BF091821605C60C7E7C0
:102C500038BD00BF9000002070B5CD1C25F00305E5
:102C600008350C2D38BF0C25002D064601DBA94286
:102C700003D90C233360002070BD00F081F8234A93
:102C80001468214691B9224C23681BB9304600F0E4
:102C900067F820602946304600F062F8431C26D1D0
:102CA0000C233360304600F06CF8E4E70B685B1BE4
:102CB0001AD40B2B0FD90B60CD50CC18304600F036
:102CC00060F804F10B00231D20F00700C31A1BD08D
:102CD0005A42E25070BD8C420DBF63684B6863601E
:102CE000136018BF0C46E9E70C464968CAE7C41CE4
:102CF00024F00304A04205D0211A304600F030F839
:102D00000130CDD02560D9E770BD00BF9000002014
:102D100094000020F8B5074614460E4621B9114626
:102D2000BDE8F840FFF798BF22B9FFF747FF2546F7
:102D30002846F8BD00F026F884420FD921463846CF
:102D4000FFF78AFF05460028F2D031462246FFF7FA
:102D50000FFF31463846FFF731FFE9E73546E7E731
:102D600038B5064C002305460846236000F014F8E9
:102D7000431C02D1236803B12B6038BD54010020ED
:102D80007047704751F8040C0028A0F10400BCBF44
:102D90000B58C01870470000044A05491368002BFF
:102DA00008BF0B4618441060184670479800002072
:102DB00058010020F8B500BFF8BC08BC9E4670471B
:0C2DC000F8B500BFF8BC08BC9E46704788
:102DCC0000000000000000000102030406070809CF
:102DDC00000000000102030444617461202D3E20B8
:102DEC0025753A25753A25752E20437A6173202D69
:102DFC003E2025753A25753A2575200A0D000000F0
:102E0C002E2E2F5372632F6D61696E2E630000009E
:102E1C00232D302B2000686C4C00656667454647B7
:102E2C00003031323334353637383941424344453A
:102E3C0046003031323334353637383961626364A9
:042E4C0065660000B7
:082E5000ECD3FF7F010000003C
:042E5800C5010008A8
:042E5C00A1010008C8
:102E600001000000100000000024F4001000002009
:102E70000000000000000000000000000000000052
:102E80000000000000000000000000000000000042
:102E90000000000000000000000000000000000032
:102EA0000000000000000000000000000000000022
:102EB0000000000000000000000000000000000012
:102EC0000000000000000000000000000000000002
:04000005080024C10A
:00000001FF
