:020000040800F2
:10000000000001207D450008D5440008D7440008C1
:10001000D9440008DB440008DD440008000000006B
:10002000000000000000000000000000DF440008A5
:10003000E144000800000000E3440008E544000833
:10004000CD450008CD450008CD450008CD45000848
:10005000CD450008CD450008CD450008CD45000838
:10006000CD450008CD450008CD450008CD45000828
:10007000CD450008CD450008CD450008CD45000818
:10008000CD450008CD450008CD4500080000000022
:10009000000000000000000000000000CD45000846
:1000A000CD450008F1440008CD450008CD450008C5
:1000B000CD450008CD450008CD450008CD450008D8
:1000C000CD450008CD450008CD450008CD450008C8
:1000D000CD450008CD45000801450008000000009E
:1000E000CD45000811450008CD450008000000007E
:1000F000000000000000000000000000CD450008E6
:1001000000000000CD450008CD450008CD450008A1
:1001100000000000000000000000000000000000DF
:1001200021450008CD450008CD450008CD45000813
:10013000CD450008000000000000000000000000A5
:10014000000000000000000000000000CD45000895
:10015000CD450008CD450008CD450008CD45000837
:10016000CD450008CD45000800000000000000005B
:10017000000000000000000000000000000000007F
:1001800000000000CD450008000000000000000055
:04019000CD45000851
:1001A00010B5054C237833B9044B13B10448AFF3B1
:1001B00000800123237010BDDC010020000000003E
:1001C000046700080C4B43B10C480D4910B5AFF360
:1001D00000800C48036823B910BD0A48036833B98E
:1001E0007047094B002BF7D0BDE810401847064B6D
:1001F000002BF5D0184700BF00000000046700087E
:10020000E0010020DC0100200000000081F000413E
:1002100002E000BF83F0004330B54FEA41044FEAEB
:10022000430594EA050F08BF90EA020F1FBF54EA86
:10023000000C55EA020C7FEA645C7FEA655C00F022
:10024000E2804FEA5454D4EB5555B8BF6D420CDDF3
:100250002C4480EA020281EA030382EA000083EA76
:10026000010180EA020281EA0303362D88BF30BD16
:1002700011F0004F4FEA01314FF4801C4CEA11316C
:1002800002D0404261EB410113F0004F4FEA0333CB
:100290004CEA133302D0524263EB430394EA050F56
:1002A00000F0A780A4F10104D5F1200E0DDB02FAC5
:1002B0000EFC22FA05F2801841F1000103FA0EF259
:1002C000801843FA05F359410EE0A5F120050EF11F
:1002D000200E012A03FA0EFC28BF4CF0020C43FA50
:1002E00005F3C01851EBE37101F0004507D54FF05D
:1002F000000EDCF1000C7EEB00006EEB0101B1F5AD
:10030000801F1BD3B1F5001F0CD349085FEA3000F2
:100310004FEA3C0C04F101044FEA445212F5800FFD
:1003200080F09A80BCF1004F08BF5FEA500C50F19A
:10033000000041EB045141EA050130BD5FEA4C0C7D
:10034000404141EB010111F4801FA4F10104E9D106
:1003500091F0000F04BF01460020B1FA81F308BFFD
:100360002033A3F10B03B3F120020CDA0C3208DDC9
:1003700002F1140CC2F10C0201FA0CF021FA02F1A4
:100380000CE002F11402D8BFC2F1200C01FA02F114
:1003900020FA0CFCDCBF41EA0C019040E41AA2BF39
:1003A00001EB0451294330BD6FEA04041F3C1CDA01
:1003B0000C340EDC04F11404C4F1200220FA04F021
:1003C00001FA02F340EA030021FA04F345EA0301CB
:1003D00030BDC4F10C04C4F1200220FA02F001FA8D
:1003E00004F340EA0300294630BD21FA04F029460F
:1003F00030BD94F0000F83F4801306BF81F48011A8
:100400000134013D4EE77FEA645C18BF7FEA655C1A
:1004100029D094EA050F08BF90EA020F05D054EAEC
:10042000000C04BF1946104630BD91EA030F1EBFF1
:100430000021002030BD5FEA545C05D140004941F5
:1004400028BF41F0004130BD14F580043CBF01F5E8
:10045000801130BD01F0004545F0FE4141F47001CE
:100460004FF0000030BD7FEA645C1ABF19461046A9
:100470007FEA655C1CBF0B46024650EA013406BFAA
:1004800052EA033591EA030F41F4002130BD00BF69
:1004900090F0000F04BF0021704730B54FF4806426
:1004A00004F132044FF000054FF0000150E700BFA7
:1004B00090F0000F04BF0021704730B54FF4806406
:1004C00004F1320410F0004548BF40424FF00001F3
:1004D0003EE700BF42004FEAE2014FEA31014FEA36
:1004E00002701FBF12F07F4393F07F4F81F0605185
:1004F000704792F0000F14BF93F07F4F704730B5F4
:100500004FF4607401F0004521F0004120E700BF86
:1005100050EA010208BF704730B54FF000050AE00D
:1005200050EA010208BF704730B511F0004502D50E
:10053000404261EB41014FF4806404F132045FEA10
:10054000915C3FF4DCAE4FF003025FEADC0C18BFB5
:1005500003325FEADC0C18BF033202EBDC02C2F1AB
:10056000200300FA03FC20FA02F001FA03FE40EA3D
:100570000E0021FA02F11444C1E600BF70B54FF03D
:10058000FF0C4CF4E06C1CEA11541DBF1CEA13551F
:1005900094EA0C0F95EA0C0F00F0DEF82C4481EA87
:1005A000030621EA4C5123EA4C5350EA013518BFA7
:1005B00052EA033541F4801143F4801338D0A0FB94
:1005C00002CE4FF00005E1FB02E506F00042E0FB41
:1005D00003E54FF00006E1FB03569CF0000F18BF47
:1005E0004EF0010EA4F1FF04B6F5007F64F54074EF
:1005F00004D25FEA4E0E6D4146EB060642EAC62182
:1006000041EA55514FEAC52040EA5E504FEACE2EEE
:10061000B4F1FD0C88BFBCF5E06F1ED8BEF1004FF1
:1006200008BF5FEA500E50F1000041EB045170BD6D
:1006300006F0004646EA010140EA020081EA0301B1
:10064000B4EB5C04C2BFD4EB0C0541EA045170BDAD
:1006500041F480114FF0000E013C00F3AB8014F127
:10066000360FDEBF002001F0004170BDC4F1000470
:10067000203C35DA0C341BDC04F11404C4F12005F1
:1006800000FA05F320FA04F001FA05F240EA02004C
:1006900001F0004221F0004110EBD37021FA04F682
:1006A00042EB06015EEA430E08BF20EAD37070BD3C
:1006B000C4F10C04C4F1200500FA04F320FA05F09B
:1006C00001FA04F240EA020001F0004110EBD3709D
:1006D00041F100015EEA430E08BF20EAD37070BD0D
:1006E000C4F1200500FA05F24EEA020E20FA04F3E6
:1006F00001FA05F243EA020321FA04F001F0004195
:1007000021FA04F220EA020000EBD3705EEA430E05
:1007100008BF20EAD37070BD94F0000F0FD101F034
:100720000046400041EB010111F4801F08BF013C6D
:10073000F7D041EA060195F0000F18BF704703F0AB
:100740000046520043EB030313F4801F08BF013D32
:10075000F7D043EA0603704794EA0C0F0CEA1355EE
:1007600018BF95EA0C0F0CD050EA410618BF52EAA8
:100770004306D1D181EA030101F000414FF00000AE
:1007800070BD50EA410606BF1046194652EA4306BC
:1007900019D094EA0C0F02D150EA013613D195EA30
:1007A0000C0F05D152EA03361CBF104619460AD178
:1007B00081EA030101F0004141F0FE4141F4700182
:1007C0004FF0000070BD41F0FE4141F4780170BD72
:1007D00070B54FF0FF0C4CF4E06C1CEA11541DBFD7
:1007E0001CEA135594EA0C0F95EA0C0F00F0A7F8D9
:1007F000A4EB050481EA030E52EA03354FEA013106
:1008000000F088804FEA03334FF0805545EA131318
:1008100043EA12634FEA022245EA111545EA1065E0
:100820004FEA00260EF000419D4208BF964244F177
:10083000FD0404F5407402D25B084FEA3202B61A96
:1008400065EB03055B084FEA32024FF480104FF46A
:10085000002CB6EB020E75EB030E22BFB61A7546DE
:1008600040EA0C005B084FEA3202B6EB020E75EB71
:10087000030E22BFB61A754640EA5C005B084FEAD9
:100880003202B6EB020E75EB030E22BFB61A7546A6
:1008900040EA9C005B084FEA3202B6EB020E75EBB1
:1008A000030E22BFB61A754640EADC0055EA060E72
:1008B00018D04FEA051545EA16754FEA06164FEAB5
:1008C000C30343EA52734FEAC2025FEA1C1CC0D161
:1008D00011F4801F0BD141EA00014FF000004FF0EE
:1008E000004CB6E711F4801F04BF01430020B4F1AF
:1008F000FD0C88BFBCF5E06F3FF6AFAEB5EB030C67
:1009000004BFB6EB020C5FEA500C50F1000041EB63
:10091000045170BD0EF0004E4EEA113114EB5C0430
:10092000C2BFD4EB0C0541EA045170BD41F4801103
:100930004FF0000E013C90E645EA060E8DE60CEA0B
:10094000135594EA0C0F08BF95EA0C0F3FF43BAF28
:1009500094EA0C0F0AD150EA01347FF434AF95EADF
:100960000C0F7FF425AF104619462CE795EA0C0FC3
:1009700006D152EA03353FF4FDAE1046194622E790
:1009800050EA410618BF52EA43067FF4C5AE50EA6A
:1009900041047FF40DAF52EA43057FF4EBAE12E75A
:1009A0004FEA4102B2F1E04324BFB3F5001CDCF191
:1009B000FE5C0DD901F0004C4FEAC0024CEA5070C9
:1009C000B2F1004F40EB830008BF20F001007047F8
:1009D00011F0804F21D113F13872BCBF01F00040FB
:1009E000704741F480114FEA5252C2F11802C2F12D
:1009F000200C10FA0CF320FA02F018BF40F00100AE
:100A00004FEAC1234FEAD32303FA0CFC40EA0C005F
:100A100023FA02F34FEA4303CCE77FEA625307D19C
:100A200050EA01331EBF4FF0FE4040F440007047D3
:100A300001F0004040F0FE4040F40000704700BF6D
:100A400053B94AB9002908BF00281CBF4FF0FF3135
:100A50004FF0FF3000F07AB9ADF1080C6DE904CE2B
:100A600000F006F8DDF804E0DDE9022304B0704789
:100A70002DE9F0478C460D460446089E002B51D1C7
:100A80008A4217466DD9B2FA82FEBEF1000F0BD032
:100A9000CEF1200C01FA0EF520FA0CFC02FA0EF74A
:100AA0004CEA050C00FA0EF44FEA174A250CBCFB81
:100AB000FAF81FFA87F90AFB18CC45EA0C4508FB3F
:100AC00009F3AB420AD9ED1908F1FF3280F0238116
:100AD000AB4240F22081A8F102083D44ED1AA4B2D5
:100AE000B5FBFAF00AFB105544EA054400FB09F98E
:100AF000A14509D9E41900F1FF3380F00A81A1452D
:100B000040F2078102383C44A4EB090440EA084063
:100B10000021002E61D024FA0EF4002334607360AB
:100B2000BDE8F0878B4207D9002E54D0002186E81B
:100B300021000846BDE8F087B3FA83F1002940F0B0
:100B40008E80AB4202D3824200F2FA80841A65EBB7
:100B500003050120AC46002E3FD086E81010BDE80A
:100B6000F08712B90127B7FBF2F7B7FA87FEBEF19B
:100B7000000F34D1EB1B3A0C1FFA87FC0121B3FBA9
:100B8000F2F8250C02FB183345EA03450CFB08F389
:100B9000AB4207D9ED1908F1FF3002D2AB4200F2A7
:100BA000D1808046ED1AA3B2B5FBF2F002FB1055DE
:100BB00043EA05440CFB00FCA44507D9E41900F105
:100BC000FF3302D2A44500F2B8801846A4EB0C040F
:100BD00040EA08409DE731463046BDE8F087CEF157
:100BE000200405FA0EF307FA0EF720FA04F83A0C7F
:100BF00025FA04F448EA0308B4FBF2F14FEA184579
:100C000002FB11441FFA87FC45EA044501FB0CF383
:100C1000AB4200FA0EF409D9ED1901F1FF3080F072
:100C20008A80AB4240F2878002393D44EB1A1FFABA
:100C300088F5B3FBF2F002FB103345EA034500FBF5
:100C40000CF3AB4207D9ED1900F1FF386FD2AB427C
:100C50006DD902383D44EB1A40EA01418FE7C1F1FA
:100C6000200722FA07F88B4005FA01F448EA03034B
:100C700020FA07FE4FEA134CFD404EEA040EB5FB86
:100C8000FCF94FEA1E440CFB19551FFA83F844EA9D
:100C9000054509FB08F4AC4202FA01F200FA01FA38
:100CA00008D9ED1809F1FF3043D2AC4241D9A9F17E
:100CB00002091D442D1B1FFA8EFEB5FBFCF00CFB38
:100CC00010554EEA054400FB08F8A04507D9E41882
:100CD00000F1FF3529D2A04527D902381C4440EA4B
:100CE0000940A4EB0804A0FB02894C45C6464D46CA
:100CF00015D312D056B1BAEB0E0364EB050404FA17
:100D000007F7CB401F43CC40376074600021BDE83B
:100D1000F0871846F8E69046E0E6C245EAD2B8EB1E
:100D2000020E69EB03050138E4E72846D7E74046A1
:100D300091E78146BEE7014678E702383C4445E743
:100D4000084608E7A8F102083D442BE7704700BFBA
:100D5000034613F8012B002AFBD1181A01387047FB
:100D600001F0FF01102A2BDB10F0070F08D010F85C
:100D7000013B013A8B422DD010F0070F42B3F6D160
:100D8000F0B441EA012141EA014122F007047FF079
:100D900000070023F0E80256083C85EA010586EAD0
:100DA000010685FA47F5A3FA87F586FA47F6A5FA0C
:100DB00087F68EB9EED1F0BC01F0FF0102F0070218
:100DC00032B110F8013B013A83EA010313B1F8D1C3
:100DD0000020704701387047002D06BF35460338A4
:100DE000073815F0010F07D1013015F4807F02BFDD
:100DF000013015F4C03F0130F0BC0138704700BF2E
:100E00004FF0FF3C06E000BF4FF0010C02E000BFD6
:100E10004FF0010C4DF804CD4FEA410C7FEA6C5CB9
:100E20004FEA430C18BF7FEA6C5C1BD001B050EA5C
:100E3000410C0CBF52EA430C91EA030F02BF90EA47
:100E4000020F0020704710F1000F91EA030F58BF06
:100E5000994208BF90422CBFD8176FEAE37040F068
:100E6000010070474FEA410C7FEA6C5C02D150EA06
:100E7000013C07D14FEA430C7FEA6C5CD6D152EAC1
:100E8000033CD3D05DF8040B704700BF8446104686
:100E900062468C461946634600E000BF01B5FFF785
:100EA000B7FF002848BF10F1000F01BD4DF808ED55
:100EB000FFF7F4FF0CBF012000205DF808FB00BF26
:100EC0004DF808EDFFF7EAFF34BF012000205DF880
:100ED00008FB00BF4DF808EDFFF7E0FF94BF0120CD
:100EE00000205DF808FB00BF4DF808EDFFF7CEFFCE
:100EF00094BF012000205DF808FB00BF4DF808ED0D
:100F0000FFF7C4FF34BF012000205DF808FB00BFDD
:100F10004FEA410C7FEA6C5C02D150EA013C0AD1F5
:100F20004FEA430C7FEA6C5C02D152EA033C02D1E7
:100F30004FF0000070474FF0010070474FEA410248
:100F400012F5001215D211D56FF47873B3EB62521B
:100F500012D94FEAC12343F0004343EA505311F042
:100F6000004F23FA02F018BF404270474FF00000D4
:100F7000704750EA013005D111F0004008BF6FF012
:100F8000004070474FF00000704700BF10B50446A6
:100F90000E4B18784FF47A73B3FBF0F30C4A1068D9
:100FA000B0FBF3F000F002FB68B90F2C01D901206F
:100FB00010BD002221464FF0FF3000F0B9FA034B7C
:100FC0005C60002010BD012010BD00BF00000020AB
:100FD0000800002008B50B4B1A6842F400721A6032
:100FE0001A6842F480621A601A6842F480721A60C9
:100FF000032000F08BFA0020FFF7C8FF03F04EF942
:10100000002008BD003C0240034A1168034B1B78D6
:101010000B441360704700BF240200200000002032
:10102000014B1868704700BF24020020494B5A68E2
:1010300022F440325A605A6841680A435A60026892
:10104000536823F48073536002685368016943EA6C
:10105000012353600268536823F0407353600268B1
:10106000536881680B4353600268936823F40063FC
:10107000936002689368C1680B439360826A364B41
:101080009A4249D00268936823F0706393600268C3
:101090009368816A0B4393600268936823F040531E
:1010A000936002689368C16A0B4393600268936817
:1010B00023F00203936002689368816943EA410365
:1010C0009360036A002B32D10268536823F40063F3
:1010D00053600268D36A23F47003D3620168CB6A59
:1010E000C269013A43EA0253CB620268936823F46F
:1010F0000073936002689368016B43EA4123936035
:101100000268936823F4806393600268936841697E
:1011100043EA8123936070470268936823F0706309
:1011200093600268936823F040539360BEE70268BF
:10113000536843F4006353600268536823F46043C8
:10114000536001684B68426A013A43EA42334B609C
:10115000BFE700BF002301400100000F30B310B50E
:101160000446036C43B1236C13F0100F0AD0012026
:10117000002384F83C3010BD436480F83C3003F019
:10118000D7F8F0E7236C23F4885323F0020343F0ED
:10119000020323642046FFF749FF00206064236CAC
:1011A00023F0030343F001032364E1E701207047C8
:1011B00030B583B00023019390F83C30012B00F050
:1011C0008180012380F83C3003689C6814F0010F93
:1011D00013D19C6844F001049C603F4B1C683F4B5A
:1011E000A3FB0434A40C04EB4404019402E0019C2E
:1011F000013C0194019C002CF9D103689C6814F017
:10120000010F62D0046C24F4E06424F0010444F47F
:10121000807404645B6813F4806F05D0036C23F45E
:10122000405343F480530364036C13F4805F36D05F
:10123000436C23F00603436413460446002280F8FF
:101240003C20826B2648D063A26B26481064A26BB8
:101250002548D06422686FF0220010602568686815
:1012600040F0806068602568A86840F48070A860DD
:1012700020680A4600F14C01A06B00F0A5FA1B4B58
:101280005B6813F01F0F0DD123689A6812F0405F5E
:101290001DD19A6842F080429A60002013E000233A
:1012A0004364C9E72368124A934201D000200AE050
:1012B0009A6812F0405F0CD19A6842F080429A60BE
:1012C000002000E0022003B030BD0020FBE700203A
:1012D000F9E70020F7E700BF0800002083DE1B438A
:1012E000F71200085B130008671300080023014091
:1012F00000200140704708B5836B1A6C12F0500F44
:1013000026D11A6C42F400721A641A68916811F0BE
:10131000405F19D19969B9B9D16A11F4700F03D03E
:10132000916811F4806F0FD1516821F02001516054
:101330001A6C22F480721A641A6C12F4805F03D162
:101340001A6C42F001021A641846FFF7D3FF08BD79
:101350009B6BDB6C984708BD704708B5806BFFF747
:10136000FBFF08BD704708B5806B40230364436CE6
:1013700043F004034364FFF7F5FF08BD30B482B0C7
:101380000023019390F83C30012B00F0B78001233B
:1013900080F83C300B68092B3ED90568EA689BB29F
:1013A00003EB43031E3B072404FA03F322EA03037F
:1013B000EB600568EA688C680B8803EB43031E3B0F
:1013C00004FA03F31343EB604B68062B3AD8056825
:1013D0006A6B03EB8303053B1F2404FA03F322EA41
:1013E00003036B6305686A6B4B6803EB8303053B80
:1013F0000C8804FA03F313436B630268404B9A4270
:1014000050D002683E4B9A4255D0002380F83C30C1
:10141000184602B030BC704705682A699BB203EBDE
:101420004303072404FA03F322EA03032B6105684C
:101430002A698C680B8803EB430304FA03F3134314
:101440002B61C1E70C2B16D805682A6B03EB8303CD
:10145000233B1F2404FA03F322EA03032B630568EA
:101460002A6B4B6803EB8303233B0C8804FA03F3DA
:1014700013432B63C1E70568EA6A03EB8303413B2F
:101480001F2404FA03F322EA0303EB620568EA6A05
:101490004B6803EB8303413B0C8804FA03F31343CB
:1014A000EB62AAE70B68122BABD1164A536843F4E0
:1014B00080035360A5E70B68103B012BA5D8114AA8
:1014C000536843F4000353600B68102B9DD10E4BFF
:1014D0001B6802F1467202F52E3202F28332A2FB41
:1014E00003239B0C03EB83035A00019202E0019B50
:1014F000013B0193019B002BF9D186E7022088E78D
:10150000002001400023014008000020074AD36862
:1015100023F4E0631B041B0C000200F4E06018439A
:1015200040F0BF6040F40030D060704700ED00E054
:1015300030B4164BDB68C3F30223C3F10704042C59
:1015400028BF04241D1D062D17D9033B012505FACC
:1015500004F4013C2140994005FA03F3013B134098
:10156000194300280BDB0901C9B200F1604000F506
:10157000614080F8001330BC70470023E6E700F0BC
:101580000F000901C9B2024B1954F4E700ED00E065
:1015900014ED00E0420900F01F00012303FA00F0FF
:1015A000014B43F82200704700E100E00138B0F140
:1015B000807F0AD2064B5860F021064A82F8231039
:1015C0000020986007221A6070470120704700BF12
:1015D00010E000E000ED00E0042805D0054A1368A3
:1015E00023F0040313607047024A136843F00403B6
:1015F0001360704710E000E008B502F059FB08BD29
:1016000030B405682C6824F480242C60046863607E
:101610008368402B05D0036899600368DA6030BCAA
:10162000704703689A600368D960F8E70268D3B22C
:10163000103B0B49A1FB03131B090A49C95CC16597
:10164000032B06D822F47F7222F003028265806D9C
:10165000704722F47F7222F0030204328265F6E7BB
:10166000ABAAAAAA20670008836A826992B9012BF3
:101670000AD01BB1022B01D000207047C36A13F0BF
:10168000807F2CD100207047C36AB3F1C07F28D07F
:1016900000207047B2F5005F05D0022B29D9032B3B
:1016A00015D000207047032B03D8DFE803F01C049B
:1016B0001C0A00207047C36A13F0807F15D10020F8
:1016C0007047C36AB3F1C07F11D000207047C36A6E
:1016D00013F0807F01D00120704700207047012067
:1016E000704701207047012070470120704701209A
:1016F000704701207047000070B50446FFF790FC6A
:10170000002C5DD00546002384F83430022384F891
:1017100035302268136823F00103136023681A68C8
:1017200012F0010F0AD0FFF77BFC401B0528F5D90A
:1017300020236365032084F8350070BD1A682149B1
:1017400011406268A0680243E068024320690243D6
:1017500060690243A0690243E0690243206A0243D0
:101760000A43616A042916D01A602668756925F053
:101770000705636A1D43042B12D075612046FFF7ED
:1017800055FFE26D3F239340836000206065012395
:1017900084F8353070BDE16A206B01430A43E3E70A
:1017A000A36A1D43E36A002BE7D02046FFF75CFFE6
:1017B0000028E2D040236365012084F8350070BD25
:1017C000012070BD3F8010F038B5856D90F8344031
:1017D000012C31D0012480F8344090F83540E4B237
:1017E000012C04D0002380F83430022038BD044698
:1017F000022084F83500002060652046FFF700FFD6
:10180000E26D3F239340AB602268136843F01603F8
:1018100013602268536943F080035361236C23B142
:101820002268136843F0080313602268136843F0CA
:1018300001031360002038BD022038BD90F8353018
:10184000DBB2022B03D080234365012070470523C0
:1018500080F835300268136823F00103136000201C
:1018600070470000F0B583B0044600230193724B2B
:101870001D68724BA3FB0535AD0A876D3E68C26DCE
:10188000082393401E4210D003681A6812F0040F18
:101890000BD01A6822F004021A60C26D082393402C
:1018A000BB60436D43F001034365E26D0123934048
:1018B0001E4209D02268526912F0800F04D0BB602A
:1018C000636D43F002036365E26D042393401E429F
:1018D00009D02268126812F0020F04D0BB60636D59
:1018E00043F004036365E26D102393401E4224D04D
:1018F0002268126812F0080F1FD0BB6023681A68B4
:1019000012F4802F0DD01B6813F4002F04D1236C28
:101910009BB12046984710E0A36C73B120469847CE
:101920000BE01A6812F4807F03D11A6822F00802D3
:101930001A60236C0BB120469847E26D2023934038
:101940001E4255D02268126812F0100F50D0BB60B2
:1019500094F83530DBB2052B0ED023681A6812F4E8
:10196000802F33D01B6813F4002F2AD1636C002B17
:101970003ED0204698473BE02268136823F01603C8
:1019800013602268536923F080035361236CA3B171
:101990002268136823F008031360E26D3F2393402D
:1019A000BB60002384F83430012384F83530236D84
:1019B000002B3FD0204698473CE0A36C002BE7D19A
:1019C000EBE7E36BA3B12046984711E01A6812F4E5
:1019D000807F09D11A6822F010021A60002384F86F
:1019E0003430012384F83530E36B0BB1204698473F
:1019F000636DFBB1636D13F0010F17D0052384F8FD
:101A000035302268136823F001031360019B013312
:101A100001939D4204D323681B6813F0010FF5D195
:101A2000002384F83430012384F83530E36C0BB1A3
:101A30002046984703B0F0BD08000020B5814E1B3A
:101A4000F0B583B000248FE0E608083650F8262071
:101A500004F0070E4FEA8E0E0F2707FA0EF722EA60
:101A600007020F6907FA0EF73A4340F826208BE089
:101A700086681640CF6807FA0EF73E4386604668D0
:101A800026EA03034E68C6F30016A64033434360BC
:101A9000C3681A408B6803FA0EF31A43C2604B689E
:101AA00013F0805F5FD0002301934B4B5A6C42F4DC
:101AB00080425A645B6C03F480430193019BA2084B
:101AC000961C464B53F8263004F00306B6000F2749
:101AD000B74023EA0703424FB84272D007F5806748
:101AE000B84270D007F58067B8426ED007F58067BE
:101AF000B8426CD007F58067B84260D0072707FA74
:101B000006F633430232354E46F82230354B1A681A
:101B1000EB4302EA03064F6817F4803F01D045EA21
:101B20000206304A1660526803EA02064F6817F44C
:101B3000003F01D045EA02062A4A5660926803EA4D
:101B400002064F6817F4801F01D045EA0206254AB5
:101B50009660D26813404E6816F4001F01D045EA23
:101B60000203204AD36001340F2C32D80123A34052
:101B70000A6803EA0205AB42F5D14A68022A3FF43B
:101B800063AF122A3FF460AF06684FEA440E0322A7
:101B900002FA0EF2D24316404F6807F0030707FA25
:101BA0000EF73E4306604E68771E012F7FF660AF4A
:101BB000112E3FF45DAF122E7FF46AAF58E7042771
:101BC0009DE700279BE7012799E7022797E703276F
:101BD00095E703B0F0BD00BF003802400038014077
:101BE00000000240003C014012B9090481617047C5
:101BF00081617047436959404161704703685A6980
:101C000012F4806F0DD06FF480625A610423036474
:101C100000230363202280F83D2080F83C3001201F
:101C2000704700207047F8B506460C4617461D461B
:101C30001EE02DB1FFF7F4F9069BC01A854217D2BA
:101C400000233363202286F83D2086F83E3086F854
:101C50003C300320F8BD33685B6924EA03039BB280
:101C6000B3FA83F35B09BB420FD1B5F1FF3FE0D17B
:101C7000C4F30743012BEED033689B6924EA0303C6
:101C80009BB2B3FA83F35B09EDE70020F8BDF8B52A
:101C900004460D4616461F4632E01A6842F40072AA
:101CA0001A6023686FF480625A610423236400235E
:101CB0002363202284F83D2084F83C300120F8BDC5
:101CC00026B1FFF7ADF9C01B864219D2002323636A
:101CD000202284F83D2084F83C300320F8BD23689E
:101CE0005B6925EA03039BB2003318BF0123A3B14C
:101CF00023685A6912F4806FCFD1B6F1FF3FDFD16C
:101D0000C5F30743012BEAD023689B6925EA030347
:101D10009BB2003318BF0123E9E70020F8BD70B57E
:101D200004460D46164623685B6913F0800F19D1EF
:101D30002046FFF763FFB8B9B5F1FF3FF3D025B1F7
:101D4000FFF76EF9801B8542EDD2236C43F0200330
:101D5000236400232363202284F83D2084F83C3050
:101D6000032070BD002070BD012070BD2DE9F04141
:101D700084B00546884616461F460B9C02681368C9
:101D800043F48073136000940A9B00224FF001110A
:101D9000FFF749FF20B10323184604B0BDE8F081E6
:101DA0002A6808F0FE03136123460A9A234928464D
:101DB000FFF76DFF30B12B6C042B01D00323EBE751
:101DC0000123E9E7002303932B685A6903929B6977
:101DD0000393039B22460A992846FFF7A0FF034678
:101DE00058B12B6C042B01D00323D5E72A68136864
:101DF00043F4007313600123CEE7012F0ED02B684C
:101E0000320A1A6122460A992846FFF788FF0346DC
:101E100078B12B6C042B05D00323BDE72A68F6B2FA
:101E20001661B9E72A68136843F40073136001234D
:101E3000B2E72A68F6B21661AEE700BF0200010001
:101E40002DE9F04184B005460E46174698460B9C96
:101E50000268136843F4806313600268136843F4F4
:101E60008073136000940A9B00224FF00111FFF76A
:101E7000DAFE20B10323184604B0BDE8F0812B68D8
:101E8000F6B206F0FE021A6123460A9A3D49284638
:101E9000FFF7FDFE30B12B6C042B01D00323EAE7E2
:101EA0000123E8E7002303932B685A6903929B6997
:101EB0000393039B22460A992846FFF730FF58B147
:101EC0002B6C042B01D00323D5E72A68136843F455
:101ED000007313600123CEE7B8F1010F0DD02B681A
:101EE0003A0A1A6122460A992846FFF718FFC8B134
:101EF0002B6C042B0FD00323BDE72B68FFB21F61AF
:101F000022460A992846FFF70AFFB0B12B6C042B32
:101F10000CD00323AFE72A68136843F400731360FF
:101F20000123A8E72B68FFB21F61E9E72A6813685D
:101F300043F40073136001239DE72A68136843F498
:101F40008073136000940A9B00224FF00111284611
:101F5000FFF769FE08B103238DE72B6846F0010601
:101F60001E6123460A9A07492846FFF790FE03465A
:101F7000002880D02B6C042B01D003237BE70123A6
:101F800079E700BF0200010070B504460D46164611
:101F900023685B6913F0040F19D12046FFF72EFE6A
:101FA000B8B9B5F1FF3FF3D025B1FFF739F8801B81
:101FB0008542EDD2236C43F0200323640023236386
:101FC000202284F83D2084F83C30032070BD00209E
:101FD00070BD012070BD70B505460C4616462B68D5
:101FE0005A6912F0400F22D15A6912F0100F11D124
:101FF00024B1FFF715F8801B8442F0D22B6C43F01C
:1020000020032B64202385F83D30002385F83C30E5
:10201000032070BD6FF010025A6100232B642B6304
:10202000202285F83D2085F83C30012070BD00203D
:1020300070BD0000002800F0828038B5044690F89A
:102040003D30002B41D0242384F83D3022681368B2
:1020500023F00103136000F09BFD3A4BA3FB002328
:102060009B0C2268536021686568374A954231D8D5
:1020700001330B6221686368334A934234D85B00B2
:10208000B0FBF3F0C0F30B03032B00D80420C861AE
:102090002268E369216A0B43136022682369E168BF
:1020A0000B43936022686369A1690B43D360226884
:1020B000136843F00103136000202064202384F898
:1020C0003D30206384F83E0038BD80F83C3002F09B
:1020D0006FF9B8E74FF4967202FB03F31B4AA2FBB9
:1020E00003239B090133C4E7A5688DB903EB4302C1
:1020F000B0FBF2F2C2F30B02B2FA82F25209E2B979
:1021000095B903EB4303B0FBF3F040F40040BEE7A6
:1021100003EB830202EB8202B0FBF2F2C2F30B028A
:10212000B2FA82F25209EAE703EB830303EB83037B
:10213000B0FBF3F040F44040A9E70120A7E70120FD
:10214000704700BF83DE1B43A0860100D34D6210A1
:102150002DE9F04182B004460E4617469846FEF738
:102160005FFF94F83D30DBB2202B04D002231846E9
:1021700002B0BDE8F08105460090192301225149C3
:102180002046FFF750FD08B10223F0E794F83C30F9
:10219000012B00F09480012384F83C3023681A68F6
:1021A00012F0010F03D11A6842F001021A6022688E
:1021B000136823F400631360212384F83D30402327
:1021C00084F83E3000232364089B6362BDF824300A
:1021D00063853D4BE362638D238501950A9B0093E4
:1021E00043463A4631462046FFF7C0FDC0B1236C56
:1021F000042B04D0002384F83C300323B7E70023EA
:1022000084F83C300123B2E7236C042B01D0032374
:10221000ADE72268136843F4007313600123A6E757
:10222000238D002B2AD02A460A992046FFF777FDF6
:102230000028E9D12268636A591C61621B78136126
:10224000228D013A92B22285638D9BB2013B9BB2F3
:1022500063852368596911F0040FE1D0002ADFD0AB
:10226000626A511C616212781A61238D013B2385D9
:10227000638D9BB2013B9BB26385D1E72A460A99E5
:102280002046FFF781FE034658B1236C042B01D092
:1022900003236CE72268136843F40073136001237F
:1022A00065E721680A6842F400720A60202284F817
:1022B0003D20002284F83E2084F83C2057E702238A
:1022C00055E700BF020010000000FFFF2DE9F041BC
:1022D00086B004460D4617469846FEF7A1FE94F8D0
:1022E0003D30DBB2202B04D00225284606B0BDE8E5
:1022F000F08106460090192301228E492046FFF7FF
:1023000092FC08B10225F0E794F83C30012B00F074
:102310004C81012384F83C3023681A6812F0010FC5
:1023200003D11A6842F001021A602268136823F48C
:1023300000631360222384F83D30402384F83E304C
:10234000002323640C9B6362BDF8343063857A4BB1
:10235000E362638D238501960E9B009343463A46C4
:1023600029462046FFF76CFD054660B1236C042B1F
:1023700004D0002384F83C300325B6E7002384F81A
:102380003C300125B1E7238D5BB9029323685A697C
:1023900002929A690292029A1A6842F400721A60D2
:1023A00078E0012B0AD0022B1AD000230593236872
:1023B0005A6905929B690593059B6BE02268136837
:1023C00023F4806313600023039323685A69039204
:1023D0009A690392039A1A6842F400721A6059E0EB
:1023E0002268136823F4806313602268136843F43F
:1023F000006313600023049323685A6904929B6965
:102400000493049B46E032460E992046FFF7E3FD15
:1024100070B9636A5A1C6262226812691A70238D4D
:10242000013B2385638D9BB2013B9BB2638531E009
:10243000236C202B01D0012557E7032555E7009693
:102440000E9B00223D492046FFF7EDFB002840F09F
:10245000AE802268136843F400731360636A5A1CE9
:102460006262226812691A70238D013B2385638D95
:102470009BB2013B9BB26385636A5A1C626222680D
:1024800012691A70238D013B2385638D9BB2013B3A
:102490009BB26385238D002B7ED0032B50D8012B5C
:1024A000B1D0022BCBD000960E9B002223492046B0
:1024B000FFF7B9FB00287CD12268136823F48063FE
:1024C0001360636A5A1C6262226812691A70238D53
:1024D000013B2385638D9BB2013B9BB263850096D4
:1024E0000E9B002215492046FFF79DFB002862D174
:1024F0002268136843F400731360636A5A1C6262B3
:10250000226812691A70238D013B2385638D9BB26B
:10251000013B9BB26385636A5A1C6262226812693E
:102520001A70238D013B2385638D9BB2013B9BB2C7
:102530006385AFE7020010000000FFFF0400010008
:1025400032460E992046FFF746FD00BB636A5A1CCF
:102550006262226812691A70238D013B2385638DA4
:102560009BB2013B9BB2638523685A6912F0040F4A
:1025700090D0626A511C61621B691370238D013B0C
:102580002385638D9BB2013B9BB2638582E7236CFD
:10259000202B12D10325A8E6202384F83D30002308
:1025A00084F83E3084F83C309FE602259DE6032502
:1025B0009BE6032599E6032597E6012595E600BFEE
:1025C000002800F0BB8170B582B00446036813F0A8
:1025D000010F3BD0A74B9B6803F00C03042B2CD0BE
:1025E000A44B9B6803F00C03082B21D06368B3F560
:1025F000803F4FD0B3F5A02F52D09E4B1A6822F4E3
:1026000080321A601A6822F480221A606368002BF4
:1026100050D0FEF705FD0546964B1B6813F4003FAE
:1026200014D1FEF7FDFC401B6428F5D903208AE194
:10263000904B5B6813F4800FD8D08E4B1B6813F45B
:10264000003F03D06368002B00F07A81236813F009
:10265000020F55D0874B9B6813F00C0F3ED0854B73
:102660009B6803F00C03082B33D0E368002B68D081
:102670000122814B1A60FEF7D3FC05467D4B1B6897
:1026800013F0020F54D1FEF7CBFC401B0228F5D902
:10269000032058E1774A136843F480331360B5E7A9
:1026A000744B1A6842F480221A601A6842F480322D
:1026B0001A60ABE7FEF7B4FC05466E4B1B6813F4DB
:1026C000003FC3D0FEF7ACFC401B6428F5D90320C3
:1026D00039E1684B5B6813F4800FC6D1654B1B680A
:1026E00013F0020F04D0E368012B01D001202AE18E
:1026F000604A136823F0F803216943EAC1031360B9
:10270000236813F0080F40D0636963B301225B4B69
:102710001A60FEF785FC0546564B5B6F13F0020FFF
:1027200033D1FEF77DFC401B0228F5D903200AE1D6
:10273000504A136823F0F803216943EAC103136088
:10274000DEE700224C4B1A60FEF76AFC0546494B57
:102750001B6813F0020FD3D0FEF762FC401B022867
:10276000F5D90320EFE00022444B1A60FEF758FC35
:102770000546404B5B6F13F0020F06D0FEF750FC8E
:10278000401B0228F5D90320DDE0236813F0040F75
:1027900079D0384B1B6C13F0805F33D10023019349
:1027A000344B1A6C42F080521A641B6C03F0805355
:1027B0000193019B0125324B1B6813F4807F23D0CA
:1027C000A368012B34D0052B38D02A4B1A6F22F086
:1027D00001021A671A6F22F004021A67A368002B1D
:1027E00036D0FEF71DFC0646224B1B6F13F0020F7E
:1027F00048D1FEF715FC801B41F288339842F3D98B
:102800000320A0E00025D6E71D4A136843F4807337
:102810001360FEF705FC0646194B1B6813F4807F16
:10282000CED1FEF7FDFB801B0228F5D903208AE0FC
:10283000104A136F43F001031367CFE70D4B1A6F74
:1028400042F004021A671A6F42F001021A67C5E7E4
:10285000FEF7E6FB0646074B1B6F13F0020F11D085
:10286000FEF7DEFB801B41F288339842F3D9032048
:1028700069E000BF0038024000004742800E474236
:1028800000700040E5B9A369002B5BD0304A926824
:1028900002F00C02082A58D0022B17D000222D4B30
:1028A0001A60FEF7BDFB0446294B1B6813F0007F3E
:1028B00042D0FEF7B5FB001B0228F5D9032042E009
:1028C000234A136C23F080531364DCE70022214B6E
:1028D0001A60FEF7A5FB05461D4B1B6813F0007F31
:1028E00006D0FEF79DFB401B0228F5D903202AE005
:1028F000E369226A1343626A43EA8213A26A5208B6
:10290000013A43EA0243E26A43EA0263104A53602F
:102910000122104B1A60FEF783FB04460C4B1B6828
:1029200013F0007F06D1FEF77BFB001B0228F5D9D0
:10293000032008E0002006E0002004E001207047AA
:10294000012000E0002002B070BD0120FBE700BFC5
:102950000038024060004742F8B5314B9B6803F0F5
:102960000C03042B59D0082B01D02E48F8BD2C4B5A
:102970005A6802F03F025B6813F4800F2AD0284B9C
:102980005B68C3F388131E4600275C010025E41A28
:1029900065EB0705A90141EA9461A001001B61EB09
:1029A0000501CB0043EA5073C400A01943EB0701B3
:1029B0004B0243EAD0534402204619460023FEF757
:1029C0003FF8174B5B68C3F3014301335B00B0FB77
:1029D000F3F0F8BD124B5B68C3F388131E46002763
:1029E0005C010025E41A65EB0705A90141EA946141
:1029F000A001001B61EB0501CB0043EA5073C4004A
:102A0000A01943EB07018B0243EA9053840220464E
:102A100019460023FEF714F8D3E70348F8BD00BFBA
:102A2000003802400024F40000127A00002800F070
:102A30009D8070B504464F4B1B6803F00F038B421B
:102A400009D2CBB24B4A1370136803F00F039942BB
:102A500001D0012070BD236813F0020F17D013F0CE
:102A6000040F04D0444A936843F4E053936023680E
:102A700013F0080F04D0404A936843F46043936016
:102A80003D4A936823F0F003A068034393600D462A
:102A9000236813F0010F32D06368012B21D09A1EF6
:102AA000012A25D9344A126812F0020F60D0324947
:102AB0008A6822F0030213438B60FEF7B1FA0646E0
:102AC0002D4B9B6803F00C036268B3EB820F16D0AA
:102AD000FEF7A6FA801B41F288339842F0D9032012
:102AE00070BD254A126812F4003FE0D1012070BD8C
:102AF000214A126812F0007FD9D1012070BD1D4B10
:102B00001B6803F00F039D4209D2EAB2194B1A70F9
:102B10001B6803F00F039D4201D0012070BD2368A4
:102B200013F0040F06D0144A936823F4E053E168CD
:102B30000B439360236813F0080F07D00E4A936885
:102B400023F46043216943EAC1039360FFF704FF64
:102B5000094B9B68C3F30313084AD35CD840084B66
:102B600018600020FEF712FA002070BD01207047A7
:102B7000012070BD003C0240003802402867000878
:102B800008000020014B1868704700BF08000020B3
:102B900008B5FFF7F7FF044B9B68C3F38223034A92
:102BA000D35CD84008BD00BF003802403867000839
:102BB00008B5FFF7E7FF044B9B68C3F34233034AB2
:102BC000D35CD84008BD00BF003802403867000819
:102BD00030B583B00446036813F0050F0ED12368A7
:102BE00013F0020F36D1236813F0080F00F099801C
:102BF000227C4D4B1A60002003B030BD00224B4BAD
:102C00001A60FEF70DFA0546494B1B6813F0006F7A
:102C100006D0FEF705FA401B0228F5D90320EBE7A2
:102C20006268A3681B0743EA8213414AC2F88430F2
:102C300001223E4B1A60FEF7F3F905463C4B1B6838
:102C400013F0006FCBD1FEF7EBF9401B0228F5D94A
:102C50000320D1E700230193354B1A6C42F08052D8
:102C60001A641B6C03F080530193019B314A136873
:102C700043F480731360FEF7D3F905462D4B1B68B0
:102C800013F4807F06D1FEF7CBF9401B0228F5D95B
:102C90000320B1E7264B1B6F13F4407312D0E26898
:102CA00002F4407293420DD0214B1A6F22F440720D
:102CB000214901200860002008601A671B6F13F08B
:102CC000010F12D1E36803F44072B2F5407F1DD0CA
:102CD000174A936823F4F813936015490B6FE26861
:102CE000C2F30B0213430B677DE7FEF799F9054624
:102CF0000F4B1B6F13F0020FE4D1FEF791F9401B4D
:102D000041F288339842F3D9032075E708498A686D
:102D100022F4F81223F0704323F4407313438B60C2
:102D2000DBE7002068E700BFE01147426800474248
:102D30000038024000700040400E474270470000DB
:102D400010B504460368DA6812F4807F03D09B68EC
:102D500013F4805F0FD12368DA6812F4007F03D088
:102D60009B6813F4005F0FD14FF400320B4B5A6194
:102D70000123637710BDFFF7E1FF2268D368DBB260
:102D800063F4C073D360E6E7204600F0BEFA226821
:102D9000D368DBB263F42073D360E5E7003C014005
:102DA00038B504460268D36823F0A003D360FEF769
:102DB00037F905462368DB6813F0200F07D1FEF7CB
:102DC0002FF9401BB0F57A7FF4D9032038BD0020DD
:102DD00038BD38B50368DA6812F0400F01D0002022
:102DE00038BD04464FF0FF32DA60FEF719F90546A8
:102DF0002368DB6813F0400F07D1FEF711F9401B81
:102E0000B0F57A7FF4D9032038BD002038BD38B53D
:102E100000285CD00446437F002B41D00223637717
:102E20002368CA225A62236853225A622046FFF757
:102E3000D0FF0546002837D12268936823F4E003C9
:102E400023F04003936021688A6863682069034324
:102E50006069034313438B602368E2681A61226848
:102E60001369A16843EA014313612268D36823F020
:102E70008003D36023689B6813F0200F1BD0226867
:102E8000136C23F4802313642268136CA1690B4331
:102E900013642368FF225A6201236377284638BDF2
:102EA000037701F0B1FAB9E72368FF225A620423DD
:102EB00063770125F2E72046FFF772FF0028DED096
:102EC0002368FF225A62042363770125E6E7012580
:102ED000E4E7002302E001330A38C0B20928FAD837
:102EE0001B01DBB21843704770B5037F012B65D01F
:102EF00001230377022343773AB94B7813F0100F7D
:102F000003D003F0EF030A334B700E460446002A49
:102F100032D1C878FFF7DDFF05047078FFF7D9FFDD
:102F200045EA0025B078FFF7D4FF2843357840EA1A
:102F300045352368CA225A62236853225A622046C2
:102F4000FFF747FF064610BB236825F07F4525F0B5
:102F5000C0055D602268D36823F08003D3602368D6
:102F60009B6813F0200F1BD02368FF225A620123B5
:102F700063770023237722E0CD784878000240EA87
:102F800005408D7828430D7840EA4535D1E7236820
:102F9000FF225A62042363770023237701260EE081
:102FA0002046FFF7FDFE0028DED02368FF225A628C
:102FB0000423637700232377012600E002263046AE
:102FC00070BDF8B5037F012B77D00E460446012370
:102FD000037702234377002A46D103689B6813F0E6
:102FE000400F01D10023CB703078FFF772FF05044A
:102FF0007078FFF76EFF45EA0025B078FFF769FFAC
:103000002843F57840EA05452368CA225A622368B6
:1030100053225A622046FFF7DCFE0746002835D1CE
:10302000236805F07F3525F0FE451D602268936812
:1030300023F48023936021688B68F268306902432F
:1030400013438B602268D36823F08003D360236826
:103050009B6813F0200F22D02368FF225A620123BD
:1030600063770023237729E003689B6813F0400F00
:1030700001D10023CB7035787078000240EA05401A
:10308000B5782843F57840EA0545BDE72368FF2277
:103090005A62042363770023237701270EE020463A
:1030A000FFF77EFE0028D7D02368FF225A62042350
:1030B000637700232377012700E002273846F8BD15
:1030C000F0B583B0634B1B68634CA4FB0343DB0A7E
:1030D0004FF47A7606FB03F30193037F012B00F094
:1030E000B5800D4604460123037702234377002A67
:1030F00060D103689B6813F0400F01D10023CB70AF
:10310000EF692878FFF7E5FE06046878FFF7E1FE2F
:1031100046EA0026A878FFF7DCFE0643E87846EA90
:10312000004695F82000FFF7D4FE46EA00603843D9
:10313000696901436868AB6918432368CA225A6207
:10314000236853225A626B6AB3F5807F4CD02268A1
:10315000936823F4007393602268D368DBB263F44E
:103160002073D360019B5A1E0192002B66D0236806
:10317000DA6812F0020FF5D01962236898642268A9
:10318000936843F4007393602268936843F4005398
:103190009360324B1A6842F400321A609A6842F423
:1031A00000329A602368FF225A620123637700206D
:1031B00020774CE003689B6813F0400F01D1002397
:1031C000CB70EA6929786B781B0243EA0143A9783E
:1031D0000B43E97843EA014395F8201043EA016381
:1031E000134369691943A5E72268936823F4807340
:1031F00093602268D368DBB263F4C073D360019B31
:103200005A1E019293B12368DA6812F0010FF6D0CA
:10321000D961236858642268936843F4807393608B
:103220002268936843F480539360B2E72368FF22D7
:103230005A62032060770023237708E02368FF2287
:103240005A62032060770023237700E0022003B056
:10325000F0BD00BF08000020D34D6210003C0140CB
:10326000030903EB83035A0000F00F001044C0B2BF
:10327000704770B503689B6A4B6003681B69C3F3B2
:103280000E038B6003681B6803F07F3323F0FE435B
:103290001D0C05F03F000870C3F306264E7003F0C6
:1032A0007F048C7005F04005CD705AB90D46FFF7CC
:1032B000D7FF28703046FFF7D3FF68702046FFF72E
:1032C000CFFFA870002070BD70B503685B6823F065
:1032D0007F4323F0C003180CC870C3F304264E705C
:1032E00003F03F058D70C3F342330B705AB90C469F
:1032F000FFF7B6FFE0703046FFF7B2FF6070284678
:10330000FFF7AEFFA070002070BD70470268D36861
:1033100043F00103D3600268136843F001031360B4
:1033200000207047704770477047704710B50446DB
:1033300003681A6912F0020F11D0DA6812F0020F56
:103340000DD06FF002021A610123037603689B69B6
:1033500013F0030F70D0FFF7E6FF002323762368F6
:103360001A6912F0040F12D0DA6812F0040F0ED0AE
:103370006FF004021A610223237623689B6913F419
:10338000407F5FD02046FFF7CEFF002323762368DF
:103390001A6912F0080F12D0DA6812F0080F0ED076
:1033A0006FF008021A61042323762368DB6913F0A7
:1033B000030F4ED02046FFF7B6FF00232376236885
:1033C0001A6912F0100F12D0DA6812F0100F0ED036
:1033D0006FF010021A61082323762368DB6913F467
:1033E000407F3DD02046FFF79EFF002323762368D1
:1033F0001A6912F0010F03D0DA6812F0010F36D10A
:1034000023681A6912F0800F03D0DA6812F0800F77
:1034100034D123681A6912F0400F03D0DA6812F031
:10342000400F32D123681A6912F0200F03D0DA68F6
:1034300012F0200F30D110BDFFF774FF2046FFF7C8
:1034400073FF8AE72046FFF76DFF2046FFF76CFF0A
:103450009BE72046FFF766FF2046FFF765FFACE7D6
:103460002046FFF75FFF2046FFF75EFFBDE76FF0E6
:1034700001021A61204600F059FDC1E76FF0800299
:103480001A61204600F092F8C3E76FF040021A611B
:103490002046FFF74AFFC5E76FF020021A61204679
:1034A00000F083F8C7E700000368324A904245D035
:1034B000B0F1804F44D0A2F57C42904242D002F558
:1034C0008062904240D002F58062904234D0002267
:1034D0001AB123F070034A681343264A904237D04A
:1034E000B0F1804F36D0A2F57C42904234D002F544
:1034F0008062904232D002F58062904230D002F574
:103500009A3290422ED002F5806290422CD002F581
:10351000806290421AD000221AB123F44073CA6824
:10352000134303608B68C3620B688362114B98423C
:103530001CD00123436170470122C9E70122C7E77C
:103540000122C5E70122C3E70122C1E70122E3E727
:103550000122E1E70122DFE70122DDE70122DBE7CB
:103560000122D9E70122D7E70122D5E70B690363DE
:10357000DFE700BF00000140A8B110B5044690F895
:1035800039305BB1022384F83930211D2068FFF700
:103590008BFF012384F83930002010BD80F83830CB
:1035A00000F048FFEEE7012070477047704702685F
:1035B000D36823F49073D3600268536923F0010346
:1035C0005361202380F83A30704790F83930DBB2ED
:1035D000212B01D0022070478368B3F5805F17D09C
:1035E0000268036A591C01621B785360C38C9BB24A
:1035F000013B9BB2C384DBB90268D36823F080032C
:10360000D3600268D36843F04003D3600020704762
:10361000036A02681B88C3F30803536003691BB97C
:10362000036A02330362E1E7036A01330362DDE701
:10363000002070472DE9F04704460268136923F41F
:103640004053C1680B4313610168CB6823F41643F0
:1036500023F00C0382680069024360690243E06959
:1036600002431343CB602268536923F44073A1697A
:103670000B435361E369B3F5004F62D0D4F8008087
:10368000BB4B984500F01B8103F58063984500F023
:103690001681FFF77DFA00EB800000EB8000656883
:1036A000AD00B0FBF5F5B34FA7FB05356D092E0155
:1036B000FFF76EFA00EB800000EB80006568AD005C
:1036C000B0FBF5FAFFF764FA00EB800000EB800036
:1036D0006568AD00B0FBF5F5A7FB05356D094FF04A
:1036E000640909FB15A52D013235A7FB05356D09C8
:1036F00005F0F0053544FFF74BFA00EB800000EBD6
:1037000080006668B600B0FBF6F6FFF741FA00EB02
:10371000800000EB800063689B00B0FBF3F0A7FB28
:103720000030400909FB10694FEA091909F1320913
:10373000A7FB0937C7F343172F44C8F80870BDE843
:10374000F087D4F8008003F1804303F510439845D7
:103750005CD003F58063984558D0FFF719FA00EB69
:10376000800000EB800065686D00B0FBF5F5814FCF
:10377000A7FB05356D092E01FFF70AFA00EB800063
:1037800000EB800065686D00B0FBF5FAFFF700FA0A
:1037900000EB800000EB800065686D00B0FBF5F584
:1037A000A7FB05356D094FF0640909FB15A5ED0070
:1037B0003235A7FB05356D096D0005F4F875354404
:1037C000FFF7E6F900EB800000EB8000666876000A
:1037D000B0FBF6F6FFF7DCF900EB800000EB8000B1
:1037E00063685B00B0FBF3F3A7FB03235B0909FBF2
:1037F00013694FEAC90909F13209A7FB0937C7F371
:1038000042172F44C8F80870BDE8F087FFF7D0F9D9
:1038100000EB800000EB800065686D00B0FBF5F503
:10382000544FA7FB05356D092E01FFF7C1F900EBD9
:10383000800000EB800065686D00B0FBF5FAFFF7D3
:10384000B7F900EB800000EB800065686D00B0FB0D
:10385000F5F5A7FB05356D094FF0640909FB15A5C2
:10386000ED003235A7FB05356D096D0005F4F875DF
:103870003544FFF79DF900EB800000EB800066689F
:103880007600B0FBF6F6FFF793F900EB800000EB53
:10389000800063685B00B0FBF3F3A7FB03235B09C5
:1038A00009FB13694FEAC90909F13209A7FB093776
:1038B000C7F342172F44C8F80870BDE8F087FFF738
:1038C00077F900EB800000EB80006568AD00B0FB8D
:1038D000F5F5284FA7FB05356D092E01FFF768F9AF
:1038E00000EB800000EB80006568AD00B0FBF5FAEE
:1038F000FFF75EF900EB800000EB80006568AD002B
:10390000B0FBF5F5A7FB05356D094FF0640909FB20
:1039100015A52D013235A7FB05356D0905F0F0051C
:103920003544FFF745F900EB800000EB8000666846
:10393000B600B0FBF6F6FFF73BF900EB800000EBBA
:10394000800063689B00B0FBF3F3A7FB03235B09D4
:1039500009FB13694FEA091909F13209A7FB093775
:10396000C7F343172F44C8F80870BDE8F08700BFBD
:10397000001001401F85EB5158B310B5044690F874
:1039800039300BB3242384F839302268D36823F408
:103990000053D3602046FFF74DFE2268136923F4DD
:1039A000904313612268536923F02A03536122680C
:1039B000D36843F40053D3600020E063202384F8ED
:1039C000393084F83A3010BD80F8383000F052FDBC
:1039D000D8E70120704790F83930DBB2202B01D0B6
:1039E00002207047A9B1B2B190F83830012B14D041
:1039F00001628284C2840023C363212280F83920BB
:103A000080F838300168CA6842F08002CA601846FF
:103A100070470120704701207047022070477047AF
:103A200008B50168CB6823F04003CB60202380F801
:103A30003930FFF7F4FF002008BD704708B590F853
:103A40003A30DBB2222B01D0022008BD8368B3F5E7
:103A5000805F0FD003690BBB836A5A1C82620268C5
:103A600052681A70C38D9BB2013B9BB2C385F3B100
:103A7000002008BD826A036943B903685B68C3F329
:103A800008031380836A02338362EBE703685B6891
:103A9000DBB21380836A01338362E3E7826A531CDB
:103AA000836203685B6803F07F031370DAE70268E0
:103AB000D36823F49073D3600268536923F0010341
:103AC0005361202380F83A30FFF7B7FF002008BD8C
:103AD0007047000010B5044602681368D168526947
:103AE00013F00F0005D113F0200F02D011F0200FBA
:103AF00053D1002867D012F0010202D111F4907F57
:103B000061D013F0010F06D011F4807F03D0E06B79
:103B100040F00100E06313F0040F04D01AB1E06B31
:103B200040F00200E06313F0020F04D01AB1E06B22
:103B300040F00400E06313F0080F04D01AB1E26B08
:103B400042F00802E263E26B002A48D013F0200F33
:103B500002D011F0200F24D123685B6903F04003E9
:103B6000E26B12F0080F00D13BB32046FFF71FFDB8
:103B700023685A6912F0400F1BD05A6922F04002A4
:103B80005A61636B8BB11A4A1A65606BFDF756FE7A
:103B900028B3606B036D984710BD2046FFF74EFFBA
:103BA00010BD2046FFF74AFFD6E72046FFF790FFFB
:103BB00010BD2046FFF78CFF10BD2046FFF788FFA1
:103BC0000023E36310BD13F0800F02D011F0800FCB
:103BD00006D113F0400F02D011F0400F04D110BDF8
:103BE0002046FFF7F2FC10BD2046FFF719FFF6E76D
:103BF000F53B000808B5806B0023C385C384FFF73D
:103C000067FF08BD30B589B000240094184B1A6BCB
:103C100042F001021A631A6B02F001020092009A4C
:103C200001941A6B42F008021A631A6B02F0080240
:103C30000192019A02941A6B42F002021A631B6B02
:103C400003F002030293029B0A4D22464FF4704197
:103C50002846FDF7C9FF4FF47043039301230493F3
:103C60000594069403A92846FDF7EAFE09B030BD85
:103C700000380240000C024000B583B000210191E1
:103C8000094B1A6B42F480021A631B6B03F4800326
:103C90000193019B0A463820FDF74AFC3820FDF7C6
:103CA00079FC03B05DF804FB00380240000000001E
:103CB0002DE9F0432DED028B95B08B4B1B88012B2A
:103CC00023D0894B1A88894BA3FB02135B094FF45D
:103CD000967101FB13239BB2002B2FD0824B1A88C5
:103CE00040F2DE339A4200F0A7807F4B1A8840F200
:103CF000E7339A4200F0D5807B4A13880133138062
:103D000015B0BDEC028BBDE8F083794C0022214652
:103D10007848FFF7D9FA3522002104A800F07CFC8E
:103D200022786378E1780091734904A801F0E8F8FB
:103D300082B204A97148FFF74EFEC2E764230293E2
:103D400006230193684C231D00930123A8223221EE
:103D50006B48FEF7BBFA6379207940EA032000B292
:103D60006081E379A67946EA032636B2A681637AB2
:103D7000257A45EA03252DB2E58107EE900AF8EE93
:103D8000E77A17EE900AFCF7A5FB02460B46FCF714
:103D900043FA53A3D3E90023FCF71AFDFCF700FE16
:103DA0000746206107EE906AF8EEE77A17EE900A70
:103DB000FCF790FB02460B46FCF72EFA48A3D3E92A
:103DC0000023FCF705FDFCF7EBFD0646606107EEFE
:103DD000905AF8EEE77A17EE900AFCF77BFB024662
:103DE0000B46FCF719FA3EA3D3E90023FCF7F0FCDD
:103DF000FCF7D6FD0546A0613E22002104A800F094
:103E00000BFC3846FCF766FB804689462846FCF7E3
:103E100061FBCDE902013046FCF75CFBCDE9000116
:103E200042464B46374904A801F06AF882B204A919
:103E30003248FFF7D0FD51E7334B1B8807EE903A2D
:103E4000F8EEE77AB0EE087A67EE877ADFED2F6A50
:103E500087EEA67A2E4B83ED007ADFED2E7A37EED1
:103E6000677ADFED2D7A87EE278AF3EE097A38EE4E
:103E7000278A2A4B83ED008A3622002104A800F00D
:103E8000CBFB18EE100AFCF725FB02460B46244933
:103E900004A801F035F882B204A91848FFF79BFD89
:103EA00023E7204C002221461248FFF7E2F9352291
:103EB000002104A800F0B0FB22786378A17800917B
:103EC000194904A801F01CF882B204A90B48FFF7B5
:103ED00082FD0022044B1A800EE700BFAFF3008082
:103EE00000000000C0FFDF40F8010020B5814E1B3C
:103EF000800300208403002040670008A403002002
:103F000044020020506700083C02002000F07F457A
:103F1000400200205C8F423F0AD7233BD40200209E
:103F200060670008280200206C67000808B54FF49D
:103F300000510248FDF75EFE08BD00BF000C0240C4
:103F4000FEE7000000B591B03148324B036000231A
:103F500043607F228260FF22C2600361436183610C
:103F6000FEF755FF00283ED10C238DF82C300F238F
:103F70008DF82D3025238DF82E3000220E920F92D1
:103F80000BA92348FFF71DF890BB06238DF82830B6
:103F900010238DF829301B238DF82A3012238DF839
:103FA0002B3000220AA91A48FEF79EFF28BB0022E8
:103FB0008DF800208DF801200A238DF8023001923F
:103FC0000392049205920692079201238DF8203005
:103FD0004FF48073099369460D48FFF771F888B96B
:103FE00011B05DF804FB4FF4DA710B48FFF7A8FF3E
:103FF0004FF4E0710848FFF7A3FF4FF4E57106485E
:10400000FFF79EFF4FF4EE710348FFF799FF00BFE3
:1040100084030020002800407C67000808B50A4897
:104020000A4B036042F20F7343600023836042F245
:10403000CF02C2600361FFF79FFA00B908BD4FF4D9
:10404000F6710348FFF77CFF98020020004401400E
:104050007C67000808B50B480B4B03604FF4E13355
:10406000436000238360C36003610C22426183616B
:10407000C361FFF781FC00B908BD40F2FF1103489E
:10408000FFF75EFFA4030020004400407C670008A7
:1040900000B585B01648174B03604FF440334360BA
:1040A000002383600361012282610362C3621249BB
:1040B0008162C360C26102634261FDF74FF868B973
:1040C00010230093012301930723029369460848B4
:1040D000FDF754F938B905B05DF804FB4FF4BB7136
:1040E0000648FFF72DFF4FF4C0710448FFF728FF83
:1040F000D8020020002001400100000F7C6700086A
:1041000008B50C480C4B03600C4B436000238360E4
:10411000C3604FF48042026143618361C361036203
:10412000FDF788FF00B908BD4FF4CA710448FFF7D6
:1041300007FF00BF4402002000540040801A060020
:104140007C67000800B599B000220092324B196CD0
:1041500041F0805119641B6C03F080530093009B65
:1041600001922E490B6823F4404343F400430B6053
:104170000B6803F440430193019B0A230C93012332
:104180000F9310211091119302231293139208227E
:104190001492542215921693072317930CA8FEF736
:1041A0000FFA50BB0F2307930221089100230993B4
:1041B0004FF480520A920B9307A8FEF737FC08BB16
:1041C000022302934FF40073059302A8FEF700FD4B
:1041D000E8B9FEF7D7FC124BA3FB00308009FDF7CE
:1041E000E5F90420FDF7F8F9002211464FF0FF3001
:1041F000FDF79EF919B05DF804FB4FF49E71094874
:10420000FFF79EFE4FF4A5710648FFF799FE40F2B6
:1042100051110448FFF794FE00380240007000403E
:10422000D34D62107C67000800B587B0FCF7D2FE62
:10423000FFF788FFFFF7E6FCFFF71EFDFFF782FEA2
:10424000FFF7ECFEFFF706FFFFF722FFFFF758FF2F
:104250000D48FFF75BF801220C490D48FCF7A8FF59
:1042600006AA572302F8013D642302930123019318
:104270000092202232210748FDF76AFF4FF4804167
:104280000548FDF7B7FCF9E7980200203C02002042
:10429000D802002044020020000C024010B582B079
:1042A00000240094214B5A6C42F480425A645A6CA8
:1042B00002F480420092009A01941A6C42F08052FB
:1042C0001A641B6C03F080530193019B0720FDF7D8
:1042D0001DF9224621466FF00B00FDF729F9224611
:1042E00021466FF00A00FDF723F9224621466FF0C0
:1042F0000900FDF71DF9224621466FF00400FDF785
:1043000017F9224621466FF00300FDF711F9224606
:1043100021466FF00100FDF70BF9224621464FF0D0
:10432000FF30FDF705F902B010BD00BF00380240B4
:1043300002681A4B9A4200D0704710B582B004460A
:1043400000230193164A516C41F480715164526C00
:1043500002F480720192019A1248134A026043608B
:104360008360C3604FF4806202614FF40062426177
:104370004FF4005282614FF48072C2610362436263
:10438000FDF7BAF920B9074BA3639C6302B010BDD7
:104390006B210648FFF7D4FDF5E700BF0020014080
:1043A0000038024020030020106402408C6700089F
:1043B0000268124B9A4200D0704700B587B04FF4A4
:1043C0001073019312230293012303930323049395
:1043D000042305930DEB03010948FDF731FB00238E
:1043E0000093084B1A6C42F400121A641B6C03F41D
:1043F00000130093009B07B05DF804FB00540040DD
:10440000000402400038024008B50268074B9A4297
:1044100000D008BD0122064B1A6000221146292057
:10442000FDF786F82920FDF7B5F8F2E700280040EF
:104430003C0E474202680E4B9A4200D0704700B5CE
:1044400083B00021019103F574435A6C42F40032A9
:104450005A645B6C03F400330193019B0A461920F4
:10446000FDF766F81920FDF795F803B05DF804FB39
:10447000004401400268154B9A4200D0704710B5C5
:1044800086B00024009403F5FA331A6C42F400322B
:104490001A641B6C03F400330093009B0C230193FC
:1044A0000223029301230393032304930723059319
:1044B00001A90748FDF7C4FA224621462620FDF748
:1044C00037F82620FDF766F806B010BD004400401E
:1044D000000002407047FEE7FEE7FEE7FEE7704798
:1044E0007047704708B5FCF78FFDFDF785F808BDEC
:1044F00008B50248FEF71AFF08BD00BF9802002069
:1045000008B50248FFF7E6FA08BD00BFA403002083
:1045100008B50248FEF714FC08BD00BF8403002064
:1045200008B50248FDF79EF908BD00BF2003002032
:104530000F49D1F8883043F47003C1F888300D4B2F
:104540001A6842F001021A60002098601A6822F08E
:10455000847222F480321A60074A5A601A6822F480
:1045600080221A60D8604FF000638B60704700BFF4
:1045700000ED00E00038024010300024DFF834D0B5
:10458000002103E00C4B5B58435004310B480C4BAB
:1045900042189A42F6D30B4A02E0002342F8043B49
:1045A000094B9A42F9D3FFF7C3FF00F011F8FFF768
:1045B0003BFE704700000120186A00080000002040
:1045C000DC010020DC010020E8030020FEE7000001
:1045D00070B50D4E0D4CA41BA4100025A54209D1A9
:1045E0000B4E0C4C02F08EF8A41BA4100025A54223
:1045F00005D170BD56F8253098470135EEE756F8DD
:10460000253098470135F2E7106A0008106A000863
:10461000106A0008146A000802440346934200D15D
:10462000704703F8011BF9E72DE9FF4755EC104BE4
:104630000D9FDDF830A0002D0E4691461946B8BFFB
:1046400022462B4627F02007BBBF05F100431D463D
:1046500000232D23B8BF1446462F0B7004D0452FDE
:1046600000D10136022100E0032103AB019302AB2C
:1046700000933246534645EC104B00F0F1FC472FB7
:10468000804602D119F0010F26D0462F08EB06090B
:1046900011D198F80030302B0AD100220023204697
:1046A0002946FCF703FC18B9C6F10106CAF80060F8
:1046B000DAF8003099440022002320462946FCF70E
:1046C000F5FB38B93022039B994505D9591C039154
:1046D0001A70F8E7CDF80C90039B0E9AA3EB080331
:1046E0004046136004B0BDE8F087F7B503460029E3
:1046F000B8BF494203F8022BB4BF2D222B2209294F
:10470000427020DD0DF1070217460A2691FBF6F5EF
:1047100006FB15113031092D02F8011C02F1FF349E
:10472000294609DC3031023A04F8011CBA421C4621
:1047300004D3201A03B0F0BD2246E7E712F8011BAC
:1047400003F8011BF2E730221C46114404F8022B47
:104750005970EEE72DE9F04F8DB00C46DDF858802A
:1047600016461F46054601F049FA036804931846A9
:10477000FCF7EEFA00230A93D8F8003005900733CF
:1047800023F0070303F1080294F818A0D4F800B04E
:10479000C8F80020D3E90023C4E91223D4E9128920
:1047A00029F000430793CDF818804FF0FF32A54B56
:1047B000DDE90601FCF7ACFB002840F0FB814FF07F
:1047C000FF32A04BDDE90601FCF784FB002840F036
:1047D000F1810022002340464946FCF771FB10B1ED
:1047E0002D2384F84330984B984ABAF1470F8CBF79
:1047F0009046984603232BF00402236122604FF079
:104800000009009733460BAA2146284600F0E2F93A
:10481000013040F093804FF0FF300DB0BDE8F08FD5
:1048200061684B1C4BF480623FD106236360002318
:1048300003930AAB029309AB009349EC108B0DF183
:1048400023032260CDF804A061682846FFF7ECFE40
:104850000AF0DF03472B804609D1099BD81C02DBF5
:104860006268934257DDAAF1020A5FFA8AFABAF146
:10487000650F099934D80139524604F15000099165
:10488000FFF733FF0A9A8318012A8146236102DC6D
:104890002268D10701D5013323619DF82330002B15
:1048A000AFD02D2384F84330ABE7BAF1670F02D0C5
:1048B000BAF1470FBBD189B1002303930AAB02932E
:1048C00009AB009349EC108B2260CDF804A00DF1E8
:1048D00023032846FFF7A8FE8046BEE70123A5E78D
:1048E000BAF1660F19D1002963680CDD216113B993
:1048F0002268D20702D501330B442361099BA365CB
:104900004FF00009C9E713B92268D00701D5023377
:10491000F3E70123F1E74FF0670A099B0A9A9342F4
:1049200005DB22682361D107E8D50133E5E7002BD9
:10493000D4BFC3F1020301231344DEE723685A0501
:1049400007D42369424631462846B84701302BD167
:1049500061E7BAF1650F40F2E28000220023D4E95A
:104960001201FCF7A3FA00283CD00123384A314653
:104970002846B84701303FF44EAF0A9B099A9A4245
:1049800002DB2368D8070FD5059B049A31462846D9
:10499000B84701303FF43FAF4FF0000804F11A0967
:1049A0000A9B013B984512DB23689B0709D54FF012
:1049B000000804F11909E3680B9A9B1A9845C0F2A4
:1049C000EE80E0680B9B9842B8BF184625E70123AC
:1049D0004A4631462846B84701303FF41CAF08F13B
:1049E0000108DDE7099B002B34DC0123184A31461E
:1049F0002846B84701303FF40EAF099B23B90A9B04
:104A000013B92368D907CFD5059B049A31462846A8
:104A1000B84701303FF4FFAE4FF0000904F11A0A25
:104A2000099B5B42994501DB0A9B8BE701235246B8
:104A300031462846B84701303FF4EDAE09F101098F
:104A4000EEE700BFFFFFEF7FA8670008AC67000834
:104A5000B86700080A9AA36D9A42A8BF1A46002AAE
:104A6000914638DC04F11A034FF0000B29EAE9798A
:104A70000693D4F858A0AAEB09039B4533DB0A9BA5
:104A8000099A9A423ADB2368DA0737D40A9B0999D4
:104A9000A3EB0A02A3EB01099145A8BF9146B9F126
:104AA000000F33DC4FF0000829EAE97904F11A0A13
:104AB000099A0A9B9B1AA3EB09039845BFF674AFAA
:104AC0000123524631462846B84701303FF4A3AE91
:104AD00008F10108ECE71346314642462846B8473C
:104AE0000130BFD197E60123069A31462846B847E0
:104AF00001303FF490AE0BF1010BBAE7059B049A2D
:104B000031462846B8470130C0D184E64B4608EB11
:104B10000A0231462846B8470130C3D17BE60A9ADB
:104B2000012A01DCDB0737D50123424631462846FE
:104B3000B84701303FF46FAE059B049A31462846D2
:104B4000B84701303FF467AE00220023D4E91201D8
:104B5000FCF7ACF958B14FF0000804F11A0A0A9BAF
:104B6000013B98450DDB4B4604F15002EBE60A9BF6
:104B700008F10102013B31462846B8470130F2D125
:104B800049E60123524631462846B84701303FF4F2
:104B900042AE08F10108E2E701234246EBE70123B8
:104BA0004A4631462846B84701303FF434AE08F152
:104BB000010800E742464B4640464946FCF7A8F943
:104BC00000283FF42DAE014B014A0EE6B067000805
:104BD000B46700082DE9F04791461F468A680B69C3
:104BE000DDF820809342B8BF1346C9F8003091F831
:104BF000432006460C4612B10133C9F80030236841
:104C0000990642BFD9F800300233C9F80030256850
:104C100015F0060507D104F1190AE368D9F8002058
:104C20009B1A9D4229DB94F843302268003318BF59
:104C3000012392062ED404F1430239463046C04780
:104C4000013021D02368E568D9F8002003F006037D
:104C5000042B08BFAD1AA36822690CBF25EAE575CD
:104C600000259342C4BF9B1AED184FF000091A3477
:104C70004D451BD10020BDE8F0870123524639463F
:104C80003046C047013003D14FF0FF30BDE8F08718
:104C90000135C2E7E1185A1C302081F84300224454
:104CA00094F8451082F843100233C4E701232246EA
:104CB00039463046C0470130E6D009F10109D7E74F
:104CC0002DE9F04317460A7E85B06E2A98460646BF
:104CD0000C460C9B01F1430E00F0BC801AD8632AED
:104CE0002ED00AD8002A00F0C880582A00F08A8006
:104CF00004F1420584F842202AE0642A01D0692A9E
:104D0000F6D121681A6811F0800F23D0111D1960A7
:104D1000136827E0732A00F0B48008D86F2A2AD0DD
:104D2000702AE5D10A6842F020020A6003E0752A81
:104D300021D0782ADCD1782284F845206E4964E0BD
:104D40001A6801F14205111D1960136884F8423098
:104D50000123A3E011F0400F02F104011960D7D044
:104D6000B2F90030002B03DA2D225B4284F8432095
:104D700062490A2217E02068196810F0800F03D0FA
:104D8000081D18600B6806E010F0400F01F10400E8
:104D90001860F7D00B8859496F2A14BF0A220822DD
:104DA000002084F843006568A560002DC0F29C8057
:104DB000206820F004002060002B3FD1002D40F03F
:104DC00095807546082A0BD12368DA0708D5236930
:104DD00062689A42DEBF302305F8013C05F1FF35D9
:104DE000AEEB05032361CDF800803B4603AA2146C4
:104DF0003046FFF7EFFE013055D14FF0FF3005B0E0
:104E0000BDE8F08381F845203C492268186812F01B
:104E1000800F00F104051D6001D0036802E0550613
:104E2000FBD50388D00744BF42F0200222601BB9A3
:104E3000226822F0200222601022B1E77546B3FBFF
:104E4000F2F002FB1033CB5C05F8013D034600286D
:104E5000F5D1B7E708681A68496910F0800F04D0E7
:104E6000101D18601368196007E010F0400F02F180
:104E7000040018601368F6D019800023236175467A
:104E8000B1E71A68111D196015686268002128468B
:104E9000FBF766FF08B1401B606063682361002375
:104EA00084F843309FE723692A4639463046C04795
:104EB0000130A2D023689B0707D5002504F119090A
:104EC000E368039A9B1A9D4205DBE068039B9842C6
:104ED000B8BF184693E701234A4639463046C047D3
:104EE00001308AD00135EBE7002BA7D10B7884F88D
:104EF000423004F1420565E7CB670008BA67000855
:104F00000EB400B59CB04FF402711DABADF8141097
:104F1000029006906FF000410A48049107914FF605
:104F2000FF7153F8042BADF816100068019302A925
:104F300001F06CFA029B00221A701CB05DF804EBC1
:104F400003B070470C0000202DE9F74F03690C698E
:104F50009C42804600F38280013C01F114074FEA35
:104F6000840E00F1140657F8245056F8240006EB7E
:104F70000E03013507EB0E090193B0FBF5F595B370
:104F80004FF0000A3846B446D34650F8042B93B28B
:104F900005FB03A34FEA134A9BB2ABEB0303120CCE
:104FA000BCF800B005FB02A213FA8BF34FEA124AD9
:104FB0001FFA82FBDCF80020CBEB124202EB23420B
:104FC0009BB243EA024381454FEA224B4CF8043B33
:104FD000DBD256F80E3033B9019B043B9E421A4691
:104FE00030D3C8F81040404601F033F8002825DBE4
:104FF000013530464FF0000E57F8042BD0F800C0B2
:1050000093B2AEEB0303120C13FA8CF3C2EB1C4207
:1050100002EB23429BB243EA0243B9454FEA224ED8
:1050200040F8043BE8D256F8242006EB84032AB962
:10503000043B9E421A460BD3C8F81040284603B0E2
:10504000BDE8F08F1268043B002ACAD1013CC5E7D5
:105050001268043B002AEFD1013CEAE70020EEE7AA
:105060002DE9F04F57EC106B97B0CDE90067466A19
:10507000079104460A920F93209D3EB9102000F03C
:10508000CBFD6062466086600660C660636A196830
:1050900051B15A684A60012393408B60204600F06A
:1050A00002FE636A00221A60019B002BBFBF01232E
:1050B0002B60019B23F00043B2BF019300232B60C0
:1050C000DDF80480A84B33EA08031BD10F9A42F2A3
:1050D0000F731360009B23B9C8F31300002800F07E
:1050E0007885219B53B9A14B21E0A14B0293083352
:1050F000219A1360029817B0BDE8F08F9B4B029382
:105100000333F5E7DDE90067002200233046394626
:10511000FBF7CCFE814660B10F9A01231360219BFF
:10512000002B00F05385934B219A1360013B0293AF
:10513000E0E714AA15A947EC106B204601F001F82E
:10514000C8F30A558246002D7ED0C7F3130343F0FF
:105150007F51304641F44011A5F2FF35CDF848901B
:105160000022854BFBF756F879A3D3E90023FBF720
:1051700005FA79A3D3E90023FBF74EF80646284643
:105180000F46FBF795F976A3D3E90023FBF7F6F971
:1051900002460B4630463946FBF73EF806460F46B8
:1051A000FBF7CCFE00228346002330463946FBF74E
:1051B00087FE58B15846FBF77BF902460B4630464E
:1051C0003946FBF773FE08B90BF1FF3BBBF1160F35
:1051D00059D86A4901EBCB01DDE90023D1E900018F
:1051E000FBF78CFE002850D00BF1FF3B00230E9301
:1051F000149B5D1B6B1E069345BFC5F10103059310
:10520000002300234CBF06930593BBF1000F3EDB48
:10521000069BCDF82CB05B44069300230893079BB4
:10522000092B00F2AF80052BC4BF043B0793079BFB
:10523000A3F10203CCBF00260126032B00F2AE80AF
:10524000DFE803F082842F77159B149D1D4405F23F
:105250003243202B11DD009A05F21240C3F14003C6
:1052600022FA00F008FA03F31843FBF711F90123BF
:10527000A1F1F871013D129372E7C3F12000009B88
:1052800003FA00F0F1E70123B1E70E90B0E7059BC8
:10529000A3EB0B030593CBF10003089300230B93BF
:1052A000BDE7012309930A9B002B7ADD0493039346
:1052B000656A00226A60042101F114029A4275D9DC
:1052C0006968204600F0BBFC636A28601B68029393
:1052D000039B0E2B00F2E580002E00F0E2809DED96
:1052E000007BBBF1000F8DED0C7B74DD234A0BF0CE
:1052F0000F034FEA2B1602EBC303F006D3E9008934
:1053000059D51F4B51EC170BD3E90823FBF760FA73
:10531000CDE9000106F00F060325194F002E4CD1F0
:1053200042464B46DDE90001FBF752FACDE90001A8
:105330006AE0012309930A9B5B4404930133012B28
:105340000393B8BF0123B3E70023ABE70023F1E7E2
:1053500061436F63A787D23FB3C8608B288AC63F7B
:10536000FB799F501344D33F0000F07FE5670008AE
:10537000DC670008B96700080000F83F18680008FB
:10538000F067000801260023079309964FF0FF33CA
:1053900004930393002212230A9289E701230993BD
:1053A000F4E70123049303931A46F5E76A68013290
:1053B0006A60490080E70225AFE7F10708D540465B
:1053C0004946D7E90023FBF7D9F8013580468946DD
:1053D00076100837A2E700F09D80CBF100069F4BC6
:1053E0009F4F06F00F0203EBC203D3E90023DDE970
:1053F0000C01FBF7C3F8CDE90001361100230225AB
:10540000002E7CD1002B91D10E9B002B00F08480CC
:10541000DDE900890022934B40464946FBF750FDE9
:10542000002879D0039B002B76D0049B002B34DD21
:1054300000228D4B40464946FBF7A0F8CDE900011C
:10544000049E0BF1FF3701352846FBF731F8DDE903
:105450000023FBF793F80022844BFAF7DDFE804629
:10546000A1F15079002E5AD10022814BDDE90001D3
:10547000FAF7D0FE42464B46CDE90001FBF73EFD70
:10548000002840F09B82424609F10043DDE900011B
:10549000FBF716FD002840F08F82DDE90C23CDE9F3
:1054A0000023159B002BC0F25081BBF10E0F00F3BF
:1054B0004C816A4B03EBCB03D3E900890A9B002B99
:1054C00080F2DA80039B002B00F3D68040F07382D9
:1054D0000022674B40464946FBF750F8DDE90023C0
:1054E000FBF702FD039E3746002840F04A82029BEC
:1054F000029A5D1C312313700BF1010B45E2F20798
:1055000005D5D7E90023FBF739F8013501237610DB
:10551000083775E7022577E75F46039E94E7029A0E
:105520004E4B32441392099A711E002A48D003EB65
:10553000C103D3E9002300204E49FBF749F9424655
:105540004B46FAF767FE029D80468946DDE9000179
:10555000FBF7F4FC0646FAF7ABFF02460B46DDE923
:105560000001FAF757FE303605F8016B42464B460C
:10557000CDE90001FBF7A4FC002865D1DDE900239B
:1055800000203849FAF746FE42464B46FBF798FCA6
:10559000002840F0BA80139B9D423FF47EAF00226A
:1055A000314B40464946FAF7E9FF002280468946DA
:1055B0002D4BDDE90001FAF7E1FFCDE90001C5E778
:1055C00003EBC10142464B46D1E90001FAF7D6FF91
:1055D000CDE91001029DDDE90001FBF7AFFC0646B5
:1055E000FAF766FF303602460B46DDE90001FAF7AE
:1055F00011FE05F8016B139BAB42804689464FF0C4
:10560000000225D11B4BDDE91001FAF705FE024629
:105610000B4640464946FBF771FC002875D1DDE991
:10562000102300201349FAF7F5FD02460B464046C9
:105630004946FBF745FC00283FF42FAF15F8013C25
:10564000302B05F1FF3201D0BB464DE01546F5E7A2
:10565000054BFAF793FFCDE90001BCE71868000895
:10566000F06700080000F03F0000244000001C40EC
:10567000000014400000E03FDDE90067029D424663
:105680004B4630463946FBF7A3F8FBF757FC009032
:10569000FAF70EFF42464B46FAF770FF02460B46FA
:1056A00030463946FAF7B6FD009E039F303605F8BE
:1056B000016B029EAE1BB74202460B4638D1FAF789
:1056C000ABFD06460F4602460B4640464946FBF7F1
:1056D000F7FBC8B932463B4640464946FBF7E6FB76
:1056E00010B1009BDB070FD45146204600F0DBFAD7
:1056F00000230F9A2B700BF101031360219B002BE9
:105700003FF4F8AC1D60F5E45F4615F8012C392A2A
:1057100005F1FF3306D1029A9A4207D13023137064
:10572000013713461A7801321A708DE71D46ECE7EF
:105730000022A44BFAF722FF0022002306460F4660
:10574000FBF7B4FB00289AD0CEE7099A002A00F0B4
:10575000CD80079A012A00F3AF80129A002A00F048
:10576000A78003F23343089E059D059A1A440592CB
:10577000069A01211A442046069200F034FB07469F
:10578000002D0CDD069B002B09DDAB42059AA8BF5E
:105790002B46D21A0592069AED1AD31A0693089B45
:1057A000F3B1099B002B00F0A580002E10DD3946D7
:1057B0003246204600F0AEFB5246014607462046E0
:1057C00000F01AFB51468046204600F06CFAC246B3
:1057D000089B9A1B04D05146204600F09BFB824652
:1057E0000121204600F0FFFA0B9B002B064640F3F8
:1057F00083801A460146204600F08CFB079B012B54
:1058000006467CDD4FF00008336906EB8303186918
:1058100000F09BFAC0F12000069B184410F01F0016
:1058200000F09680C0F12003042B40F38780059B95
:10583000C0F11C0003440593069B054403440693F2
:10584000059B002B05DD51461A46204600F0B0FBB3
:105850008246069B002B05DD31461A46204600F0A5
:10586000A7FB06460E9B002B74D03146504600F035
:10587000F0FB00286EDA002351460A22204600F091
:1058800029FA099B0BF1FF3B8246002B00F0A8810F
:10589000002339460A22204600F01CFA049B002B04
:1058A000074600F3C880079B022B40F3C48059E0F1
:1058B000149BC3F1360356E7039B5E1E089BB3425D
:1058C000BFBF089B0896F21A0B9BB6BF9B189E1B86
:1058D0000B93039BB8BF0026002BB9BF059B039A0F
:1058E000059D039BBCBF9D1A00233EE7089E059DB6
:1058F000099F45E7089A6EE7079B012B19DC009B7F
:10590000BBB9019BC3F313039BB9019B23F0004375
:105910001B0D1B0583B1059B01330593069B0133CA
:1059200006934FF001080B9B002B7FF46DAF012015
:1059300072E74FF00008F6E79846F4E780D0059A42
:105940001C331A440592069A1A441D44134676E7FE
:105950000346F4E7039B002B36DC079B022B33DD69
:10596000039B0493049B63B931460522204600F053
:10597000B1F901460646504600F06BFB00283FF7A0
:10598000B6AD0A9B029D6FEA030B002303933146D9
:10599000204600F088F9002F3FF4A6AE039B2BB100
:1059A000BB4203D01946204600F07DF93946204617
:1059B00000F079F998E600263746E2E7BB4637461D
:1059C00095E500BF00002440099B93BB039B049313
:1059D000029D31465046FFF7B7FA00F1300905F84D
:1059E000019B029B049AEB1A9A4200F3DC80029B13
:1059F000012AACBF9B1801339846002303935146FC
:105A00000122204600F0D4FA3146824600F021FB04
:105A1000002800F38D8003D119F0010F40F0888039
:105A2000454615F8013C302B05F1FF32AFD1154644
:105A3000F7E7039B0493002D05DD39462A462046EF
:105A400000F0B6FA0746B8F1000F4CD0796820464E
:105A500000F0F5F83A6902320546920007F10C01B0
:105A60000C3000F0E1F801222946204600F0A0FAAF
:105A7000009BDDF80880039703F0010307460593B8
:105A800031465046FFF760FA0399054600F13009A8
:105A9000504600F0DEFA3A4600903146204600F0CB
:105AA000F2FAC368024603BB01460690504600F076
:105AB000D0FA069A034611462046069300F0F3F802
:105AC000069BA3B9079A92B9059A82B9B9F1390F21
:105AD00029D0009B002B01DD05F1310908F10105FA
