:020000040800F2
:100000000000012099380008F1370008F337000894
:10001000F5370008F7370008F9370008000000003E
:10002000000000000000000000000000FB37000896
:10003000FD37000800000000FF3700080138000805
:10004000E9380008E9380008E9380008E93800080C
:10005000E9380008E9380008E9380008E9380008FC
:10006000E9380008E9380008E9380008E9380008EC
:10007000E9380008E9380008E9380008E9380008DC
:10008000E9380008E9380008E938000800000000F5
:10009000000000000000000000000000E938000837
:1000A000E93800080D380008E9380008E938000888
:1000B000E9380008E9380008E9380008E93800089C
:1000C000E9380008E9380008E9380008E93800088C
:1000D000E9380008E93800081D3800080000000071
:1000E000E93800082D380008E93800080000000051
:1000F000000000000000000000000000E9380008D7
:1001000000000000E9380008E9380008E938000874
:1001100000000000000000000000000000000000DF
:100120003D380008E9380008E9380008E9380008D7
:10013000E938000800000000000000000000000096
:10014000000000000000000000000000E938000886
:10015000E9380008E9380008E9380008E9380008FB
:10016000E9380008E938000800000000000000003D
:10017000000000000000000000000000000000007F
:1001800000000000E9380008000000000000000046
:04019000E938000842
:1001A00010B5054C237833B9044B13B10448AFF3B1
:1001B00000800123237010BDDC010020000000003E
:1001C000245A00080C4B43B10C480D4910B5AFF34D
:1001D00000800C48036823B910BD0A48036833B98E
:1001E0007047094B002BF7D0BDE810401847064B6D
:1001F000002BF5D0184700BF00000000245A00086B
:10020000E0010020DC0100200000000081F000413E
:1002100002E000BF83F0004330B54FEA41044FEAEB
:10022000430594EA050F08BF90EA020F1FBF54EA86
:10023000000C55EA020C7FEA645C7FEA655C00F022
:10024000E2804FEA5454D4EB5555B8BF6D420CDDF3
:100250002C4480EA020281EA030382EA000083EA76
:10026000010180EA020281EA0303362D88BF30BD16
:1002700011F0004F4FEA01314FF4801C4CEA11316C
:1002800002D0404261EB410113F0004F4FEA0333CB
:100290004CEA133302D0524263EB430394EA050F56
:1002A00000F0A780A4F10104D5F1200E0DDB02FAC5
:1002B0000EFC22FA05F2801841F1000103FA0EF259
:1002C000801843FA05F359410EE0A5F120050EF11F
:1002D000200E012A03FA0EFC28BF4CF0020C43FA50
:1002E00005F3C01851EBE37101F0004507D54FF05D
:1002F000000EDCF1000C7EEB00006EEB0101B1F5AD
:10030000801F1BD3B1F5001F0CD349085FEA3000F2
:100310004FEA3C0C04F101044FEA445212F5800FFD
:1003200080F09A80BCF1004F08BF5FEA500C50F19A
:10033000000041EB045141EA050130BD5FEA4C0C7D
:10034000404141EB010111F4801FA4F10104E9D106
:1003500091F0000F04BF01460020B1FA81F308BFFD
:100360002033A3F10B03B3F120020CDA0C3208DDC9
:1003700002F1140CC2F10C0201FA0CF021FA02F1A4
:100380000CE002F11402D8BFC2F1200C01FA02F114
:1003900020FA0CFCDCBF41EA0C019040E41AA2BF39
:1003A00001EB0451294330BD6FEA04041F3C1CDA01
:1003B0000C340EDC04F11404C4F1200220FA04F021
:1003C00001FA02F340EA030021FA04F345EA0301CB
:1003D00030BDC4F10C04C4F1200220FA02F001FA8D
:1003E00004F340EA0300294630BD21FA04F029460F
:1003F00030BD94F0000F83F4801306BF81F48011A8
:100400000134013D4EE77FEA645C18BF7FEA655C1A
:1004100029D094EA050F08BF90EA020F05D054EAEC
:10042000000C04BF1946104630BD91EA030F1EBFF1
:100430000021002030BD5FEA545C05D140004941F5
:1004400028BF41F0004130BD14F580043CBF01F5E8
:10045000801130BD01F0004545F0FE4141F47001CE
:100460004FF0000030BD7FEA645C1ABF19461046A9
:100470007FEA655C1CBF0B46024650EA013406BFAA
:1004800052EA033591EA030F41F4002130BD00BF69
:1004900090F0000F04BF0021704730B54FF4806426
:1004A00004F132044FF000054FF0000150E700BFA7
:1004B00090F0000F04BF0021704730B54FF4806406
:1004C00004F1320410F0004548BF40424FF00001F3
:1004D0003EE700BF42004FEAE2014FEA31014FEA36
:1004E00002701FBF12F07F4393F07F4F81F0605185
:1004F000704792F0000F14BF93F07F4F704730B5F4
:100500004FF4607401F0004521F0004120E700BF86
:1005100050EA010208BF704730B54FF000050AE00D
:1005200050EA010208BF704730B511F0004502D50E
:10053000404261EB41014FF4806404F132045FEA10
:10054000915C3FF4DCAE4FF003025FEADC0C18BFB5
:1005500003325FEADC0C18BF033202EBDC02C2F1AB
:10056000200300FA03FC20FA02F001FA03FE40EA3D
:100570000E0021FA02F11444C1E600BF53B94AB992
:10058000002908BF00281CBF4FF0FF314FF0FF309B
:1005900000F07AB9ADF1080C6DE904CE00F006F870
:1005A000DDF804E0DDE9022304B070472DE9F047EF
:1005B0008C460D460446089E002B51D18A421746B0
:1005C0006DD9B2FA82FEBEF1000F0BD0CEF1200C35
:1005D00001FA0EF520FA0CFC02FA0EF74CEA050CB3
:1005E00000FA0EF44FEA174A250CBCFBFAF81FFA82
:1005F00087F90AFB18CC45EA0C4508FB09F3AB4226
:100600000AD9ED1908F1FF3280F02381AB4240F2A4
:100610002081A8F102083D44ED1AA4B2B5FBFAF01E
:100620000AFB105544EA054400FB09F9A14509D924
:10063000E41900F1FF3380F00A81A14540F20781FF
:1006400002383C44A4EB090440EA08400021002E93
:1006500061D024FA0EF4002334607360BDE8F087A3
:100660008B4207D9002E54D0002186E8210008468D
:10067000BDE8F087B3FA83F1002940F08E80AB42E9
:1006800002D3824200F2FA80841A65EB030501204E
:10069000AC46002E3FD086E81010BDE8F08712B9B6
:1006A0000127B7FBF2F7B7FA87FEBEF1000F34D18E
:1006B000EB1B3A0C1FFA87FC0121B3FBF2F8250C67
:1006C00002FB183345EA03450CFB08F3AB4207D99C
:1006D000ED1908F1FF3002D2AB4200F2D180804622
:1006E000ED1AA3B2B5FBF2F002FB105543EA054444
:1006F0000CFB00FCA44507D9E41900F1FF3302D23A
:10070000A44500F2B8801846A4EB0C0440EA084067
:100710009DE731463046BDE8F087CEF1200405FA6A
:100720000EF307FA0EF720FA04F83A0C25FA04F44F
:1007300048EA0308B4FBF2F14FEA184502FB114402
:100740001FFA87FC45EA044501FB0CF3AB4200FAB3
:100750000EF409D9ED1901F1FF3080F08A80AB4227
:1007600040F2878002393D44EB1A1FFA88F5B3FB4B
:10077000F2F002FB103345EA034500FB0CF3AB42F9
:1007800007D9ED1900F1FF386FD2AB426DD90238AD
:100790003D44EB1A40EA01418FE7C1F1200722FAFC
:1007A00007F88B4005FA01F448EA030320FA07FE34
:1007B0004FEA134CFD404EEA040EB5FBFCF94FEA3C
:1007C0001E440CFB19551FFA83F844EA054509FB42
:1007D00008F4AC4202FA01F200FA01FA08D9ED1865
:1007E00009F1FF3043D2AC4241D9A9F102091D44BD
:1007F0002D1B1FFA8EFEB5FBFCF00CFB10554EEACC
:10080000054400FB08F8A04507D9E41800F1FF35BE
:1008100029D2A04527D902381C4440EA0940A4EB5C
:100820000804A0FB02894C45C6464D4615D312D09C
:1008300056B1BAEB0E0364EB050404FA07F7CB409C
:100840001F43CC40376074600021BDE8F087184634
:10085000F8E69046E0E6C245EAD2B8EB020E69EB54
:1008600003050138E4E72846D7E7404691E781468B
:10087000BEE7014678E702383C4445E7084608E70A
:10088000A8F102083D442BE7704700BF034613F868
:10089000012B002AFBD1181A013870470000000014
:1008A00001F0FF01102A2BDB10F0070F08D010F821
:1008B000013B013A8B422DD010F0070F42B3F6D125
:1008C000F0B441EA012141EA014122F007047FF03E
:1008D00000070023F0E80256083C85EA010586EA95
:1008E000010685FA47F5A3FA87F586FA47F6A5FAD1
:1008F00087F68EB9EED1F0BC01F0FF0102F00702DD
:1009000032B110F8013B013A83EA010313B1F8D187
:100910000020704701387047002D06BF3546033868
:10092000073815F0010F07D1013015F4807F02BFA1
:10093000013015F4C03F0130F0BC0138704700BFF2
:1009400070B54FF0FF0C4CF4E06C1CEA11541DBF65
:100950001CEA135594EA0C0F95EA0C0F00F0DEF830
:100960002C4481EA030621EA4C5123EA4C5350EA15
:10097000013518BF52EA033541F4801143F4801366
:1009800038D0A0FB02CE4FF00005E1FB02E506F0F7
:100990000042E0FB03E54FF00006E1FB03569CF04C
:1009A000000F18BF4EF0010EA4F1FF04B6F5007F52
:1009B00064F5407404D25FEA4E0E6D4146EB0606C4
:1009C00042EAC62141EA55514FEAC52040EA5E504D
:1009D0004FEACE2EB4F1FD0C88BFBCF5E06F1ED8F7
:1009E000BEF1004F08BF5FEA500E50F1000041EB2E
:1009F000045170BD06F0004646EA010140EA0200DB
:100A000081EA0301B4EB5C04C2BFD4EB0C0541EAFC
:100A1000045170BD41F480114FF0000E013C00F311
:100A2000AB8014F1360FDEBF002001F0004170BD35
:100A3000C4F10004203C35DA0C341BDC04F114044E
:100A4000C4F1200500FA05F320FA04F001FA05F2DA
:100A500040EA020001F0004221F0004110EBD370A7
:100A600021FA04F642EB06015EEA430E08BF20EAD3
:100A7000D37070BDC4F10C04C4F1200500FA04F376
:100A800020FA05F001FA04F240EA020001F0004108
:100A900010EBD37041F100015EEA430E08BF20EA7B
:100AA000D37070BDC4F1200500FA05F24EEA020EC3
:100AB00020FA04F301FA05F243EA020321FA04F0F2
:100AC00001F0004121FA04F220EA020000EBD370A9
:100AD0005EEA430E08BF20EAD37070BD94F0000FA9
:100AE0000FD101F00046400041EB010111F4801FDD
:100AF00008BF013CF7D041EA060195F0000F18BF8E
:100B0000704703F00046520043EB030313F4801FC9
:100B100008BF013DF7D043EA0603704794EA0C0F83
:100B20000CEA135518BF95EA0C0F0CD050EA410699
:100B300018BF52EA4306D1D181EA030101F0004116
:100B40004FF0000070BD50EA410606BF104619463E
:100B500052EA430619D094EA0C0F02D150EA01364A
:100B600013D195EA0C0F05D152EA03361CBF10468B
:100B700019460AD181EA030101F0004141F0FE412A
:100B800041F470014FF0000070BD41F0FE4141F4AE
:100B9000780170BD70B54FF0FF0C4CF4E06C1CEAAE
:100BA00011541DBF1CEA135594EA0C0F95EA0C0F63
:100BB00000F0A7F8A4EB050481EA030E52EA03351E
:100BC0004FEA013100F088804FEA03334FF080553F
:100BD00045EA131343EA12634FEA022245EA11156C
:100BE00045EA10654FEA00260EF000419D4208BF1D
:100BF000964244F1FD0404F5407402D25B084FEACA
:100C00003202B61A65EB03055B084FEA32024FF475
:100C100080104FF4002CB6EB020E75EB030E22BFD2
:100C2000B61A754640EA0C005B084FEA3202B6EB92
:100C3000020E75EB030E22BFB61A754640EA5C0041
:100C40005B084FEA3202B6EB020E75EB030E22BFD1
:100C5000B61A754640EA9C005B084FEA3202B6EBD2
:100C6000020E75EB030E22BFB61A754640EADC0091
:100C700055EA060E18D04FEA051545EA16754FEAF3
:100C800006164FEAC30343EA52734FEAC2025FEA11
:100C90001C1CC0D111F4801F0BD141EA00014FF0A0
:100CA00000004FF0004CB6E711F4801F04BF014371
:100CB0000020B4F1FD0C88BFBCF5E06F3FF6AFAE8D
:100CC000B5EB030C04BFB6EB020C5FEA500C50F11D
:100CD000000041EB045170BD0EF0004E4EEA1131A0
:100CE00014EB5C04C2BFD4EB0C0541EA045170BDA7
:100CF00041F480114FF0000E013C90E645EA060EEB
:100D00008DE60CEA135594EA0C0F08BF95EA0C0F18
:100D10003FF43BAF94EA0C0F0AD150EA01347FF460
:100D200034AF95EA0C0F7FF425AF104619462CE737
:100D300095EA0C0F06D152EA03353FF4FDAE10469A
:100D4000194622E750EA410618BF52EA43067FF4EB
:100D5000C5AE50EA41047FF40DAF52EA43057FF47B
:100D6000EBAE12E74FF0FF3C06E000BF4FF0010C86
:100D700002E000BF4FF0010C4DF804CD4FEA410CEA
:100D80007FEA6C5C4FEA430C18BF7FEA6C5C1BD0B7
:100D900001B050EA410C0CBF52EA430C91EA030F38
:100DA00002BF90EA020F0020704710F1000F91EA95
:100DB000030F58BF994208BF90422CBFD8176FEA63
:100DC000E37040F0010070474FEA410C7FEA6C5C31
:100DD00002D150EA013C07D14FEA430C7FEA6C5C38
:100DE000D6D152EA033CD3D05DF8040B704700BF64
:100DF0008446104662468C461946634600E000BFB2
:100E000001B5FFF7B7FF002848BF10F1000F01BD83
:100E10004DF808EDFFF7F4FF0CBF012000205DF84E
:100E200008FB00BF4DF808EDFFF7EAFF34BF0120D3
:100E300000205DF808FB00BF4DF808EDFFF7E0FF6C
:100E400094BF012000205DF808FB00BF4DF808EDBD
:100E5000FFF7CEFF94BF012000205DF808FB00BF24
:100E60004DF808EDFFF7C4FF34BF012000205DF806
:100E700008FB00BF4FEA410C7FEA6C5C02D150EAEC
:100E8000013C0AD14FEA430C7FEA6C5C02D152EA82
:100E9000033C02D14FF0000070474FF00100704753
:100EA0004FEA410212F5001215D211D56FF4787392
:100EB000B3EB625212D94FEAC12343F0004343EA35
:100EC000505311F0004F23FA02F018BF4042704710
:100ED0004FF00000704750EA013005D111F000409A
:100EE00008BF6FF0004070474FF00000704700BF30
:100EF00010B504460E4B18784FF47A73B3FBF0F339
:100F00000C4A1068B0FBF3F000F002FB68B90F2C3C
:100F100001D9012010BD002221464FF0FF3000F022
:100F2000B9FA034B5C60002010BD012010BD00BF6A
:100F3000000000200800002008B50B4B1A6842F49E
:100F400000721A601A6842F480621A601A6842F4E9
:100F500080721A60032000F08BFA0020FFF7C8FFB0
:100F600002F056FB002008BD003C0240034A116815
:100F7000034B1B780B441360704700BF080200202E
:100F800000000020014B1868704700BF08020020D5
:100F9000494B5A6822F440325A605A6841680A4301
:100FA0005A600268536823F4807353600268536880
:100FB000016943EA012353600268536823F04073D8
:100FC00053600268536881680B43536002689368FA
:100FD00023F40063936002689368C1680B439360D5
:100FE000826A364B9A4249D00268936823F0706354
:100FF000936002689368816A0B4393600268936808
:1010000023F04053936002689368C16A0B43936076
:101010000268936823F00203936002689368816911
:1010200043EA41039360036A002B32D1026853689C
:1010300023F4006353600268D36A23F47003D3621D
:101040000168CB6AC269013A43EA0253CB62026883
:10105000936823F40073936002689368016B43EA1A
:10106000412393600268936823F48063936002686D
:101070009368416943EA81239360704702689368EB
:1010800023F0706393600268936823F04053936089
:10109000BEE70268536843F4006353600268536814
:1010A00023F46043536001684B68426A013A43EAA3
:1010B00042334B60BFE700BF002301400100000F37
:1010C00030B310B50446036C43B1236C13F0100F1A
:1010D0000AD00120002384F83C3010BD436480F81E
:1010E0003C3002F0DFFAF0E7236C23F4885323F05E
:1010F000020343F0020323642046FFF749FF002068
:101100006064236C23F0030343F001032364E1E7ED
:101110000120704730B583B00023019390F83C3034
:10112000012B00F08180012380F83C3003689C682B
:1011300014F0010F13D19C6844F001049C603F4BF4
:101140001C683F4BA3FB0434A40C04EB440401943F
:1011500002E0019C013C0194019C002CF9D1036840
:101160009C6814F0010F62D0046C24F4E06424F055
:10117000010444F4807404645B6813F4806F05D048
:10118000036C23F4405343F480530364036C13F45F
:10119000805F36D0436C23F0060343641346044655
:1011A000002280F83C20826B2648D063A26B264840
:1011B0001064A26B2548D06422686FF02200106092
:1011C0002568686840F0806068602568A86840F419
:1011D0008070A86020680A4600F14C01A06B00F006
:1011E000A7FA1B4B5B6813F01F0F0DD123689A6899
:1011F00012F0405F1DD19A6842F080429A60002050
:1012000013E000234364C9E72368124A934201D0E4
:1012100000200AE09A6812F0405F0CD19A6842F010
:1012200080429A60002000E0022003B030BD002020
:10123000FBE70020F9E70020F7E700BF08000020E7
:1012400083DE1B435B120008BF120008CB120008AC
:101250000023014000200140704708B5836B1A6CE1
:1012600012F0500F26D11A6C42F400721A641A68F8
:10127000916811F0405F19D19969B9B9D16A11F437
:10128000700F03D0916811F4806F0FD1516821F075
:10129000200151601A6C22F480721A641A6C12F4E4
:1012A000805F03D11A6C42F001021A641846FFF7FE
:1012B000D3FF08BD9B6BDB6C984708BD704708B532
:1012C000806BFFF7FBFF08BD704708B5806B4023BC
:1012D0000364436C43F004034364FFF7F5FF08BD68
:1012E00030B482B00023019390F83C30012B00F021
:1012F000B780012380F83C300B68092B3ED9056884
:10130000EA689BB203EB43031E3B072404FA03F392
:1013100022EA0303EB600568EA688C680B8803EB3C
:1013200043031E3B04FA03F31343EB604B68062BA5
:101330003AD805686A6B03EB8303053B1F2404FA64
:1013400003F322EA03036B6305686A6B4B6803EBE4
:101350008303053B0C8804FA03F313436B630268B1
:10136000404B9A4250D002683E4B9A4255D00023DF
:1013700080F83C30184602B030BC704705682A69D6
:101380009BB203EB4303072404FA03F322EA0303AB
:101390002B6105682A698C680B8803EB430304FA08
:1013A00003F313432B61C1E70C2B16D805682A6B96
:1013B00003EB8303233B1F2404FA03F322EA030312
:1013C0002B6305682A6B4B6803EB8303233B0C8874
:1013D00004FA03F313432B63C1E70568EA6A03EBDE
:1013E0008303413B1F2404FA03F322EA0303EB6265
:1013F0000568EA6A4B6803EB8303413B0C8804FAF7
:1014000003F31343EB62AAE70B68122BABD1164A26
:10141000536843F480035360A5E70B68103B012B2E
:10142000A5D8114A536843F4000353600B68102B8E
:101430009DD10E4B1B6802F1467202F52E3202F26C
:101440008332A2FB03239B0C03EB83035A0001921C
:1014500002E0019B013B0193019B002BF9D186E740
:10146000022088E7002001400023014008000020FE
:10147000074AD36823F4E0631B041B0C000200F44A
:10148000E060184340F0BF6040F40030D060704727
:1014900000ED00E030B4164BDB68C3F30223C3F168
:1014A0000704042C28BF04241D1D062D17D9033B57
:1014B000012505FA04F4013C2140994005FA03F3A3
:1014C000013B1340194300280BDB0901C9B200F1AD
:1014D000604000F5614080F8001330BC7047002385
:1014E000E6E700F00F000901C9B2024B1954F4E716
:1014F00000ED00E014ED00E0420900F01F000123C0
:1015000003FA00F0014B43F82200704700E100E0CD
:101510000138B0F1807F0AD2064B5860F021064AAC
:1015200082F823100020986007221A60704701207B
:10153000704700BF10E000E000ED00E0042805D097
:10154000054A136823F0040313607047024A1368C6
:1015500043F004031360704710E000E0704708B5E3
:10156000FFF7FCFF08BD30B405682C6824F4802424
:101570002C60046863608368402B05D00368996021
:101580000368DA6030BC704703689A600368D9600A
:10159000F8E700000268D3B2103B0B49A1FB03132C
:1015A0001B090A49C95CC165032B06D822F47F7266
:1015B00022F003028265806D704722F47F7222F070
:1015C000030204328265F6E7ABAAAAAA405A0008D1
:1015D000836A826992B9012B0AD01BB1022B01D018
:1015E00000207047C36A13F0807F2CD10020704721
:1015F000C36AB3F1C07F28D000207047B2F5005F06
:1016000005D0022B29D9032B15D000207047032BBE
:1016100003D8DFE803F01C041C0A00207047C36AEB
:1016200013F0807F15D100207047C36AB3F1C07FEB
:1016300011D000207047C36A13F0807F01D00120D1
:10164000704700207047012070470120704701203B
:10165000704701207047012070470120704700004B
:1016600070B50446FFF78EFC002C5DD005460023C4
:1016700084F83430022384F835302268136823F06C
:101680000103136023681A6812F0010F0AD0FFF7F4
:1016900079FC401B0528F5D920236365032084F8D5
:1016A000350070BD1A68214911406268A068024384
:1016B000E06802432069024360690243A069024373
:1016C000E0690243206A02430A43616A042916D092
:1016D0001A602668756925F00705636A1D43042BA7
:1016E00012D075612046FFF755FFE26D3F2393400E
:1016F000836000206065012384F8353070BDE16AA5
:10170000206B01430A43E3E7A36A1D43E36A002B0E
:10171000E7D02046FFF75CFF0028E2D04023636556
:10172000012084F8350070BD012070BD3F8010F0AD
:1017300038B5856D90F83440012C31D0012480F803
:10174000344090F83540E4B2012C04D0002380F8F6
:101750003430022038BD0446022084F835000020D1
:1017600060652046FFF7FFFEE26D3F239340AB60CC
:101770002268136843F0160313602268536943F02C
:1017800080035361236C23B12268136843F008037C
:1017900013602268136843F001031360002038BD12
:1017A000022038BD90F83530DBB2022B03D0802305
:1017B000436501207047052380F8353002681368BF
:1017C00023F001031360002070470000F0B583B0E0
:1017D000044600230193724B1D68724BA3FB053531
:1017E000AD0A876D3E68C26D082393401E4210D03B
:1017F00003681A6812F0040F0BD01A6822F0040272
:101800001A60C26D08239340BB60436D43F001032F
:101810004365E26D012393401E4209D0226852695C
:1018200012F0800F04D0BB60636D43F00203636568
:10183000E26D042393401E4209D02268126812F020
:10184000020F04D0BB60636D43F004036365E26D77
:10185000102393401E4224D02268126812F0080F11
:101860001FD0BB6023681A6812F4802F0DD01B684C
:1018700013F4002F04D1236C9BB12046984710E04D
:10188000A36C73B1204698470BE01A6812F4807F6E
:1018900003D11A6822F008021A60236C0BB12046AB
:1018A0009847E26D202393401E4255D0226812686B
:1018B00012F0100F50D0BB6094F83530DBB2052B1E
:1018C0000ED023681A6812F4802F33D01B6813F4EB
:1018D000002F2AD1636C002B3ED0204698473BE076
:1018E0002268136823F0160313602268536923F0FB
:1018F00080035361236CA3B12268136823F00803AB
:101900001360E26D3F239340BB60002384F83430C2
:10191000012384F83530236D002B3FD020469847B3
:101920003CE0A36C002BE7D1EBE7E36BA3B12046CF
:10193000984711E01A6812F4807F09D11A6822F0E2
:1019400010021A60002384F83430012384F8353003
:10195000E36B0BB120469847636DFBB1636D13F0E9
:10196000010F17D0052384F835302268136823F05F
:1019700001031360019B013301939D4204D323684B
:101980001B6813F0010FF5D1002384F834300123D4
:1019900084F83530E36C0BB12046984703B0F0BDB6
:1019A00008000020B5814E1BF0B583B000248FE005
:1019B000E608083650F8262004F0070E4FEA8E0E8F
:1019C0000F2707FA0EF722EA07020F6907FA0EF748
:1019D0003A4340F826208BE086681640CF6807FA25
:1019E0000EF73E438660466826EA03034E68C6F358
:1019F0000016A64033434360C3681A408B6803FA5D
:101A00000EF31A43C2604B6813F0805F5FD000236F
:101A100001934B4B5A6C42F480425A645B6C03F462
:101A200080430193019BA208961C464B53F8263035
:101A300004F00306B6000F27B74023EA0703424F1E
:101A4000B84272D007F58067B84270D007F580675A
:101A5000B8426ED007F58067B8426CD007F5806752
:101A6000B84260D0072707FA06F633430232354EF4
:101A700046F82230354B1A68EB4302EA03064F68FA
:101A800017F4803F01D045EA0206304A16605268DA
:101A900003EA02064F6817F4003F01D045EA020648
:101AA0002A4A5660926803EA02064F6817F4801FBC
:101AB00001D045EA0206254A9660D26813404E6876
:101AC00016F4001F01D045EA0203204AD360013416
:101AD0000F2C32D80123A3400A6803EA0205AB4267
:101AE000F5D14A68022A3FF463AF122A3FF460AF8F
:101AF00006684FEA440E032202FA0EF2D243164061
:101B00004F6807F0030707FA0EF73E4306604E687A
:101B1000771E012F7FF660AF112E3FF45DAF122EBE
:101B20007FF46AAF58E704279DE700279BE701276A
:101B300099E7022797E7032795E703B0F0BD00BFB9
:101B4000003802400038014000000240003C0140E3
:101B500012B9090481617047816170474369594036
:101B600041617047002800F0BB8170B582B0044627
:101B7000036813F0010F3BD0A74B9B6803F00C03E5
:101B8000042B2CD0A44B9B6803F00C03082B21D012
:101B90006368B3F5803F4FD0B3F5A02F52D09E4B72
:101BA0001A6822F480321A601A6822F480221A60BD
:101BB0006368002B50D0FFF7E5F90546964B1B688C
:101BC00013F4003F14D1FFF7DDF9401B6428F5D969
:101BD00003208AE1904B5B6813F4800FD8D08E4BC2
:101BE0001B6813F4003F03D06368002B00F07A8178
:101BF000236813F0020F55D0874B9B6813F00C0F2E
:101C00003ED0854B9B6803F00C03082B33D0E36870
:101C1000002B68D00122814B1A60FFF7B3F905460B
:101C20007D4B1B6813F0020F54D1FFF7ABF9401B3B
:101C30000228F5D9032058E1774A136843F480332A
:101C40001360B5E7744B1A6842F480221A601A6870
:101C500042F480321A60ABE7FFF794F905466E4B09
:101C60001B6813F4003FC3D0FFF78CF9401B6428B6
:101C7000F5D9032039E1684B5B6813F4800FC6D1B6
:101C8000654B1B6813F0020F04D0E368012B01D0F1
:101C900001202AE1604A136823F0F803216943EA2E
:101CA000C1031360236813F0080F40D0636963B366
:101CB00001225B4B1A60FFF765F90546564B5B6FD7
:101CC00013F0020F33D1FFF75DF9401B0228F5D95D
:101CD00003200AE1504A136823F0F803216943EA1C
:101CE000C1031360DEE700224C4B1A60FFF74AF98C
:101CF0000546494B1B6813F0020FD3D0FFF742F99A
:101D0000401B0228F5D90320EFE00022444B1A6063
:101D1000FFF738F90546404B5B6F13F0020F06D012
:101D2000FFF730F9401B0228F5D90320DDE02368D6
:101D300013F0040F79D0384B1B6C13F0805F33D154
:101D400000230193344B1A6C42F080521A641B6CCE
:101D500003F080530193019B0125324B1B6813F460
:101D6000807F23D0A368012B34D0052B38D02A4B99
:101D70001A6F22F001021A671A6F22F004021A6722
:101D8000A368002B36D0FFF7FDF80646224B1B6FE9
:101D900013F0020F48D1FFF7F5F8801B41F28833AA
:101DA0009842F3D90320A0E00025D6E71D4A136826
:101DB00043F480731360FFF7E5F80646194B1B6880
:101DC00013F4807FCED1FFF7DDF8801B0228F5D910
:101DD00003208AE0104A136F43F001031367CFE733
:101DE0000D4B1A6F42F004021A671A6F42F001029B
:101DF0001A67C5E7FFF7C6F80646074B1B6F13F0D7
:101E0000020F11D0FFF7BEF8801B41F288339842D1
:101E1000F3D9032069E000BF0038024000004742C8
:101E2000800E474200700040E5B9A369002B5BD0EB
:101E3000304A926802F00C02082A58D0022B17D0C0
:101E400000222D4B1A60FFF79DF80446294B1B68B2
:101E500013F0007F42D0FFF795F8001B0228F5D958
:101E6000032042E0234A136C23F080531364DCE721
:101E70000022214B1A60FFF785F805461D4B1B68B1
:101E800013F0007F06D0FFF77DF8401B0228F5D93C
:101E900003202AE0E369226A1343626A43EA821359
:101EA000A26A5208013A43EA0243E26A43EA026341
:101EB000104A53600122104B1A60FFF763F8044682
:101EC0000C4B1B6813F0007F06D1FFF75BF8001B7B
:101ED0000228F5D9032008E0002006E0002004E0F5
:101EE00001207047012000E0002002B070BD0120F9
:101EF000FBE700BF0038024060004742F8B5314BB5
:101F00009B6803F00C03042B59D0082B01D02E48FA
:101F1000F8BD2C4B5A6802F03F025B6813F4800F47
:101F20002AD0284B5B68C3F388131E4600275C0148
:101F30000025E41A65EB0705A90141EA9461A001B7
:101F4000001B61EB0501CB0043EA5073C400A019EC
:101F500043EB07014B0243EAD053440220461946A3
:101F60000023FEF70BFB174B5B68C3F30143013300
:101F70005B00B0FBF3F0F8BD124B5B68C3F3881352
:101F80001E4600275C010025E41A65EB0705A90140
:101F900041EA9461A001001B61EB0501CB0043EA1B
:101FA0005073C400A01943EB07018B0243EA90531E
:101FB0008402204619460023FEF7E0FAD3E70348DF
:101FC000F8BD00BF003802400024F40000127A007F
:101FD000002800F09D8070B504464F4B1B6803F04D
:101FE0000F038B4209D2CBB24B4A1370136803F034
:101FF0000F03994201D0012070BD236813F0020F36
:1020000017D013F0040F04D0444A936843F4E0530C
:102010009360236813F0080F04D0404A936843F498
:10202000604393603D4A936823F0F003A068034344
:1020300093600D46236813F0010F32D06368012BC3
:1020400021D09A1E012A25D9344A126812F0020FB3
:1020500060D032498A6822F0030213438B60FEF796
:1020600091FF06462D4B9B6803F00C036268B3EBAF
:10207000820F16D0FEF786FF801B41F2883398420C
:10208000F0D9032070BD254A126812F4003FE0D158
:10209000012070BD214A126812F0007FD9D10120C1
:1020A00070BD1D4B1B6803F00F039D4209D2EAB2BD
:1020B000194B1A701B6803F00F039D4201D00120D9
:1020C00070BD236813F0040F06D0144A936823F4FC
:1020D000E053E1680B439360236813F0080F07D0C7
:1020E0000E4A936823F46043216943EAC103936075
:1020F000FFF704FF094B9B68C3F30313084AD35C43
:10210000D840084B18600020FEF7F2FE002070BD9A
:1021100001207047012070BD003C024000380240A1
:10212000485A000808000020014B1868704700BF9B
:102130000800002008B5FFF7F7FF044B9B68C3F3C6
:102140008223034AD35CD84008BD00BF0038024058
:10215000585A000808B5FFF7E7FF044B9B68C3F324
:102160004233034AD35CD84008BD00BF0038024068
:10217000585A000830B583B00446036813F0050FC1
:102180000ED1236813F0020F36D1236813F0080F25
:1021900000F09980227C4D4B1A60002003B030BDC6
:1021A00000224B4B1A60FEF7EDFE0546494B1B68BB
:1021B00013F0006F06D0FEF7E5FE401B0228F5D9AC
:1021C0000320EBE76268A3681B0743EA8213414AD6
:1021D000C2F8843001223E4B1A60FEF7D3FE05465A
:1021E0003C4B1B6813F0006FCBD1FEF7CBFE401BBE
:1021F0000228F5D90320D1E700230193354B1A6C4F
:1022000042F080521A641B6C03F080530193019BCF
:10221000314A136843F480731360FEF7B3FE05463A
:102220002D4B1B6813F4807F06D1FEF7ABFE401BDD
:102230000228F5D90320B1E7264B1B6F13F4407336
:1022400012D0E26802F4407293420DD0214B1A6F13
:1022500022F44072214901200860002008601A67BA
:102260001B6F13F0010F12D1E36803F44072B2F553
:10227000407F1DD0174A936823F4F81393601549E3
:102280000B6FE268C2F30B0213430B677DE7FEF7A7
:1022900079FE05460F4B1B6F13F0020FE4D1FEF7DA
:1022A00071FE401B41F288339842F3D9032075E751
:1022B00008498A6822F4F81223F0704323F440732B
:1022C00013438B60DBE7002068E700BFE011474263
:1022D000680047420038024000700040400E47420C
:1022E0007047000010B504460368DA6812F4807F76
:1022F00003D09B6813F4805F0FD12368DA6812F46F
:10230000007F03D09B6813F4005F0FD14FF40032BD
:102310000B4B5A610123637710BDFFF7E1FF226881
:10232000D368DBB263F4C073D360E6E7204600F005
:10233000BEFA2268D368DBB263F42073D360E5E7AA
:10234000003C014038B504460268D36823F0A0037E
:10235000D360FEF717FE05462368DB6813F0200FF5
:1023600007D1FEF70FFE401BB0F57A7FF4D90320AA
:1023700038BD002038BD38B50368DA6812F0400F68
:1023800001D0002038BD04464FF0FF32DA60FEF77E
:10239000F9FD05462368DB6813F0400F07D1FEF70F
:1023A000F1FD401BB0F57A7FF4D9032038BD002041
:1023B00038BD38B500285CD00446437F002B41D09F
:1023C000022363772368CA225A62236853225A621F
:1023D0002046FFF7D0FF0546002837D122689368D2
:1023E00023F4E00323F04003936021688A68636864
:1023F000206903436069034313438B602368E268E9
:102400001A6122681369A16843EA014313612268D3
:10241000D36823F08003D36023689B6813F0200FF8
:102420001BD02268136C23F4802313642268136C7E
:10243000A1690B4313642368FF225A620123637767
:10244000284638BD037701F06DF9B9E72368FF220C
:102450005A62042363770125F2E72046FFF772FFF3
:102460000028DED02368FF225A6204236377012507
:10247000E6E70125E4E7002302E001330A38C0B2B1
:102480000928FAD81B01DBB21843704770B5037FE7
:10249000012B65D001230377022343773AB94B78A8
:1024A00013F0100F03D003F0EF030A334B700E4606
:1024B0000446002A32D1C878FFF7DDFF05047078A2
:1024C000FFF7D9FF45EA0025B078FFF7D4FF28438E
:1024D000357840EA45352368CA225A622368532278
:1024E0005A622046FFF747FF064610BB236825F0D7
:1024F0007F4525F0C0055D602268D36823F0800326
:10250000D36023689B6813F0200F1BD02368FF2241
:102510005A62012363770023237722E0CD7848783D
:10252000000240EA05408D7828430D7840EA4535A1
:10253000D1E72368FF225A620423637700232377BD
:1025400001260EE02046FFF7FDFE0028DED02368BE
:10255000FF225A620423637700232377012600E0D9
:102560000226304670BDF8B5037F012B77D00E46AA
:1025700004460123037702234377002A46D10368E8
:102580009B6813F0400F01D10023CB703078FFF728
:1025900072FF05047078FFF76EFF45EA0025B078FA
:1025A000FFF769FF2843F57840EA05452368CA220A
:1025B0005A62236853225A622046FFF7DCFE074620
:1025C000002835D1236805F07F3525F0FE451D60D4
:1025D0002268936823F48023936021688B68F268F3
:1025E0003069024313438B602268D36823F0800371
:1025F000D36023689B6813F0200F22D02368FF224A
:102600005A62012363770023237729E003689B68DC
:1026100013F0400F01D10023CB70357870780002A1
:1026200040EA0540B5782843F57840EA0545BDE71E
:102630002368FF225A62042363770023237701274C
:102640000EE02046FFF77EFE0028D7D02368FF2249
:102650005A620423637700232377012700E00227CF
:102660003846F8BDF0B583B0634B1B68634CA4FBE0
:102670000343DB0A4FF47A7606FB03F30193037FEF
:10268000012B00F0B5800D46044601230377022399
:102690004377002A60D103689B6813F0400F01D193
:1026A0000023CB70EF692878FFF7E5FE0604687811
:1026B000FFF7E1FE46EA0026A878FFF7DCFE0643B6
:1026C000E87846EA004695F82000FFF7D4FE46EA8F
:1026D00000603843696901436868AB69184323683F
:1026E000CA225A62236853225A626B6AB3F5807F0A
:1026F0004CD02268936823F4007393602268D368F7
:10270000DBB263F42073D360019B5A1E0192002B4D
:1027100066D02368DA6812F0020FF5D019622368D8
:1027200098642268936843F4007393602268936806
:1027300043F400539360324B1A6842F400321A603B
:102740009A6842F400329A602368FF225A62012399
:102750006377002020774CE003689B6813F0400FFC
:1027600001D10023CB70EA6929786B781B0243EA18
:102770000143A9780B43E97843EA014395F8201017
:1027800043EA0163134369691943A5E72268936823
:1027900023F4807393602268D368DBB263F4C07360
:1027A000D360019B5A1E019293B12368DA6812F03C
:1027B000010FF6D0D961236858642268936843F406
:1027C000807393602268936843F480539360B2E708
:1027D0002368FF225A62032060770023237708E0F2
:1027E0002368FF225A62032060770023237700E0EA
:1027F000022003B0F0BD00BF08000020D34D6210DE
:10280000003C0140030903EB83035A0000F00F0072
:102810001044C0B2704770B503689B6A4B60036890
:102820001B69C3F30E038B6003681B6803F07F33DF
:1028300023F0FE431D0C05F03F000870C3F306268D
:102840004E7003F07F048C7005F04005CD705AB9CE
:102850000D46FFF7D7FF28703046FFF7D3FF6870AB
:102860002046FFF7CFFFA870002070BD70B5036849
:102870005B6823F07F4323F0C003180CC870C3F3D8
:1028800004264E7003F03F058D70C3F342330B7086
:102890005AB90C46FFF7B6FFE0703046FFF7B2FFBB
:1028A00060702846FFF7AEFFA070002070BD704733
:1028B0000268D36843F00103D3600268136843F0F1
:1028C00001031360002070477047704770477047DE
:1028D00010B5044603681A6912F0020F11D0DA68C5
:1028E00012F0020F0DD06FF002021A61012303767D
:1028F00003689B6913F0030F70D0FFF7E6FF002316
:10290000237623681A6912F0040F12D0DA6812F0E5
:10291000040F0ED06FF004021A610223237623689D
:102920009B6913F4407F5FD02046FFF7CEFF002362
:10293000237623681A6912F0080F12D0DA6812F0B1
:10294000080F0ED06FF008021A6104232376236863
:10295000DB6913F0030F4ED02046FFF7B6FF0023CC
:10296000237623681A6912F0100F12D0DA6812F079
:10297000100F0ED06FF010021A610823237623681F
:10298000DB6913F4407F3DD02046FFF79EFF002314
:10299000237623681A6912F0010F03D0DA6812F067
:1029A000010F36D123681A6912F0800F03D0DA685C
:1029B00012F0800F34D123681A6912F0400F03D04F
:1029C000DA6812F0400F32D123681A6912F0200F32
:1029D00003D0DA6812F0200F30D110BDFFF774FF7A
:1029E0002046FFF773FF8AE72046FFF76DFF20467A
:1029F000FFF76CFF9BE72046FFF766FF2046FFF7D7
:102A000065FFACE72046FFF75FFF2046FFF75EFF5C
:102A1000BDE76FF001021A61204600F00FFCC1E72C
:102A20006FF080021A61204600F092F8C3E76FF061
:102A300040021A612046FFF74AFFC5E76FF0200207
:102A40001A61204600F083F8C7E700000368324AA5
:102A5000904245D0B0F1804F44D0A2F57C429042E4
:102A600042D002F58062904240D002F580629042EE
:102A700034D000221AB123F070034A681343264A67
:102A8000904237D0B0F1804F36D0A2F57C429042D0
:102A900034D002F58062904232D002F580629042DA
:102AA00030D002F59A3290422ED002F580629042E8
:102AB0002CD002F5806290421AD000221AB123F481
:102AC0004073CA68134303608B68C3620B688362F8
:102AD000114B98421CD00123436170470122C9E782
:102AE0000122C7E70122C5E70122C3E70122C1E7AE
:102AF0000122E3E70122E1E70122DFE70122DDE72E
:102B00000122DBE70122D9E70122D7E70122D5E73D
:102B10000B690363DFE700BF00000140A8B110B5F7
:102B2000044690F839305BB1022384F83930211D16
:102B30002068FFF78BFF012384F83930002010BD97
:102B400080F8383000F004FEEEE70120704770474F
:102B500070470268D36823F49073D36002685369A6
:102B600023F001035361202380F83A30704790F836
:102B70003930DBB2212B01D0022070478368B3F5D6
:102B8000805F17D00268036A591C01621B7853608A
:102B9000C38C9BB2013B9BB2C384DBB90268D36890
:102BA00023F08003D3600268D36843F04003D3600E
:102BB00000207047036A02681B88C3F30803536050
:102BC00003691BB9036A02330362E1E7036A013355
:102BD0000362DDE7002070472DE9F04704460268F4
:102BE000136923F44053C1680B4313610168CB6838
:102BF00023F4164323F00C038268006902436069E2
:102C00000243E06902431343CB602268536923F413
:102C10004073A1690B435361E369B3F5004F62D080
:102C2000D4F80080BB4B984500F01B8103F580630E
:102C3000984500F01681FFF77DFA00EB800000EB6D
:102C400080006568AD00B0FBF5F5B34FA7FB053517
:102C50006D092E01FFF76EFA00EB800000EB80009B
:102C60006568AD00B0FBF5FAFFF764FA00EB800091
:102C700000EB80006568AD00B0FBF5F5A7FB0535FE
:102C80006D094FF0640909FB15A52D013235A7FB2D
:102C900005356D0905F0F0053544FFF74BFA00EBFB
:102CA000800000EB80006668B600B0FBF6F6FFF728
:102CB00041FA00EB800000EB800063689B00B0FBF2
:102CC000F3F0A7FB0030400909FB10694FEA09192E
:102CD00009F13209A7FB0937C7F343172F44C8F896
:102CE0000870BDE8F087D4F8008003F1804303F555
:102CF000104398455CD003F58063984558D0FFF7A2
:102D000019FA00EB800000EB800065686D00B0FBF5
:102D1000F5F5814FA7FB05356D092E01FFF70AFA7E
:102D200000EB800000EB800065686D00B0FBF5FAF9
:102D3000FFF700FA00EB800000EB800065686D0093
:102D4000B0FBF5F5A7FB05356D094FF0640909FBEC
:102D500015A5ED003235A7FB05356D096D0005F4AD
:102D6000F8753544FFF7E6F900EB800000EB8000D2
:102D700066687600B0FBF6F6FFF7DCF900EB800042
:102D800000EB800063685B00B0FBF3F3A7FB032359
:102D90005B0909FB13694FEAC90909F13209A7FB6D
:102DA0000937C7F342172F44C8F80870BDE8F08709
:102DB000FFF7D0F900EB800000EB800065686D0044
:102DC000B0FBF5F5544FA7FB05356D092E01FFF754
:102DD000C1F900EB800000EB800065686D00B0FB7E
:102DE000F5FAFFF7B7F900EB800000EB80006568AB
:102DF0006D00B0FBF5F5A7FB05356D094FF06409D3
:102E000009FB15A5ED003235A7FB05356D096D00F1
:102E100005F4F8753544FFF79DF900EB800000EBF1
:102E2000800066687600B0FBF6F6FFF793F900EBDA
:102E3000800000EB800063685B00B0FBF3F3A7FB4E
:102E400003235B0909FB13694FEAC90909F1320938
:102E5000A7FB0937C7F342172F44C8F80870BDE82D
:102E6000F087FFF777F900EB800000EB80006568E2
:102E7000AD00B0FBF5F5284FA7FB05356D092E0118
:102E8000FFF768F900EB800000EB80006568AD009B
:102E9000B0FBF5FAFFF75EF900EB800000EB800075
:102EA0006568AD00B0FBF5F5A7FB05356D094FF082
:102EB000640909FB15A52D013235A7FB05356D0900
:102EC00005F0F0053544FFF745F900EB800000EB15
:102ED00080006668B600B0FBF6F6FFF73BF900EB42
:102EE000800000EB800063689B00B0FBF3F3A7FB5E
:102EF00003235B0909FB13694FEA091909F1320938
:102F0000A7FB0937C7F343172F44C8F80870BDE87B
:102F1000F08700BF001001401F85EB5158B310B57A
:102F2000044690F839300BB3242384F839302268F2
:102F3000D36823F40053D3602046FFF74DFE226888
:102F4000136923F4904313612268536923F02A0321
:102F500053612268D36843F40053D3600020E063D8
:102F6000202384F8393084F83A3010BD80F83830A6
:102F700000F00EFCD8E70120704790F83930DBB242
:102F8000202B01D002207047A9B1B2B190F838309F
:102F9000012B14D001628284C2840023C3632122E6
:102FA00080F8392080F838300168CA6842F0800221
:102FB000CA60184670470120704701207047022000
:102FC0007047704708B50168CB6823F04003CB60B9
:102FD000202380F83930FFF7F4FF002008BD704748
:102FE00008B590F83A30DBB2222B01D0022008BDA0
:102FF0008368B3F5805F0FD003690BBB836A5A1CEB
:103000008262026852681A70C38D9BB2013B9BB208
:10301000C385F3B1002008BD826A036943B9036820
:103020005B68C3F308031380836A02338362EBE7B0
:1030300003685B68DBB21380836A01338362E3E772
:10304000826A531C836203685B6803F07F0313701A
:10305000DAE70268D36823F49073D3600268536997
:1030600023F001035361202380F83A30FFF7B7FFC4
:10307000002008BD7047000010B5044602681368C0
:10308000D168526913F00F0005D113F0200F02D060
:1030900011F0200F53D1002867D012F0010202D1A5
:1030A00011F4907F61D013F0010F06D011F4807FEE
:1030B00003D0E06B40F00100E06313F0040F04D094
:1030C0001AB1E06B40F00200E06313F0020F04D08D
:1030D0001AB1E06B40F00400E06313F0080F04D075
:1030E0001AB1E26B42F00802E263E26B002A48D0B8
:1030F00013F0200F02D011F0200F24D123685B6958
:1031000003F04003E26B12F0080F00D13BB32046FE
:10311000FFF71FFD23685A6912F0400F1BD05A6950
:1031200022F040025A61636B8BB11A4A1A65606BD8
:10313000FEF738FB28B3606B036D984710BD20463F
:10314000FFF74EFF10BD2046FFF74AFFD6E72046A7
:10315000FFF790FF10BD2046FFF78CFF10BD204603
:10316000FFF788FF0023E36310BD13F0800F02D048
:1031700011F0800F06D113F0400F02D011F0400F74
:1031800004D110BD2046FFF7F2FC10BD2046FFF72A
:1031900019FFF6E79931000808B5806B0023C38555
:1031A000C384FFF767FF08BD30B589B000240194E0
:1031B000134B1A6B42F001021A631A6B02F0010200
:1031C0000192019A02941A6B42F008021A631B6B77
:1031D00003F008030293029B0A4D22464FF470410C
:1031E0002846FEF7B5FC4FF4704303930123049384
:1031F0000594069403A92846FEF7D6FB09B030BD16
:1032000000380240000C024000B583B0002101915B
:10321000094B1A6B42F480021A631B6B03F48003A0
:103220000193019B0A463820FEF734F93820FEF757
:1032300063F903B05DF804FB0038024070B59EB03E
:10324000254D002225492846FFF710FB244C00227B
:1032500021462846FFF7DFFA224A138801331380FC
:10326000214B1B8807EE903AF8EEE77AB0EE087A29
:1032700067EE877ADFED1D6A87EEA67A1C4B83ED39
:10328000007ADFED1C7A37EE677ADFED1B6AC7EE56
:10329000267AB3EE097A77EE877A184BC3ED007A77
:1032A00025786678A47817EE900AFDF713F9CDE932
:1032B0000201009433462A46114905A800F0AEFFEA
:1032C00082B205A90F48FFF758FE4FF400510E488F
:1032D000FEF744FC1EB070BD140300201003002054
:1032E0000C020020F80100202002002000F07F45A1
:1032F000240200205C8F423F0AD7233B6402002057
:10330000605A000834030020000C0240FEE7000071
:1033100000B591B03148324B0360002343607F22F7
:103320008260FF22C260036143618361FFF741F85D
:1033300000283ED10C238DF82C300F238DF82D3032
:1033400025238DF82E3000220E920F920BA92348D0
:10335000FFF709F990BB06238DF8283010238DF86C
:1033600029301B238DF82A3012238DF82B300022B0
:103370000AA91A48FFF78AF828BB00228DF8002016
:103380008DF801200A238DF80230019203920492F5
:1033900005920692079201238DF820304FF4807336
:1033A000099369460D48FFF75DF988B911B05DF8DA
:1033B00004FB4FF499710B48FFF7A8FF4FF49F717E
:1033C0000848FFF7A3FF4FF4A4710648FFF79EFFDC
:1033D0004FF4AD710348FFF799FF00BF14030020BD
:1033E00000280040705A000808B50A480A4B0360DC
:1033F00042F20F7343600023836042F2CF02C26047
:103400000361FFF78BFB00B908BD4FF4B5710348AA
:10341000FFF77CFF2802002000440140705A00089A
:1034200008B50B480B4B03604FF4E13343600023B6
:103430008360C36003610C2242618361C361FFF753
:103440006DFD00B908BD40F27D110348FFF75EFF36
:103450003403002000440040705A000800B585B0D5
:103460001648174B03604FF44033436000238360DA
:103470000361012282610362C36212498162C360F7
:10348000C26102634261FDF71BFE68B9102300931D
:10349000012301930723029369460848FDF720FFA3
:1034A00038B905B05DF804FB4FF484710648FFF7A6
:1034B0002DFF4FF489710448FFF728FF68020020B0
:1034C000002001400100000F705A000800B599B0BB
:1034D00000220092314B196C41F0805119641B6C31
:1034E00003F080530093009B01922D490B6823F455
:1034F000404343F400430B600B6803F440430193E3
:10350000019B0A230C9301230F9310211091119317
:1035100002231293139208221492542215921693A6
:10352000072317930CA8FEF71DFB50BB0F2307932F
:1035300002210891002309934FF480520A920B93C1
:1035400007A8FEF745FD00BB022302934FF400736A
:10355000059302A8FEF70EFED8B9FEF7E5FD114B64
:10356000A3FB00308009FDF7D3FF0420FDF7E6FF41
:10357000002211464FF0FF30FDF78CFF19B05DF8C7
:1035800004FBCE210848FFF7C1FEDC210648FFF707
:10359000BDFEE3210448FFF7B9FE00BF003802403A
:1035A00000700040D34D6210705A000808B5FDF756
:1035B000C3FCFFF78BFFFFF7F7FDFFF725FEFFF7D3
:1035C000A7FEFFF711FFFFF72BFFFFF747FF0A48A2
:1035D000FFF76EF9012209490948FDF79BFD094CE7
:1035E000002209492046FFF741F9002207492046F9
:1035F000FFF711F9F3E700BF2802002020020020A6
:103600006802002014030020100300200C02002098
:1036100010B582B000240094214B5A6C42F48042D1
:103620005A645A6C02F480420092009A01941A6C17
:1036300042F080521A641B6C03F080530193019B8B
:103640000720FDF715FF224621466FF00B00FDF71E
:1036500021FF224621466FF00A00FDF71BFF22469C
:1036600021466FF00900FDF715FF224621466FF055
:103670000400FDF70FFF224621466FF00300FDF71F
:1036800009FF224621466FF00100FDF703FF2246A5
:1036900021464FF0FF30FDF7FDFE02B010BD00BF28
:1036A0000038024002681A4B9A4200D0704710B5A9
:1036B00082B0044600230193164A516C41F4807194
:1036C0005164526C02F480720192019A1248134ABA
:1036D000026043608360C3604FF4806202614FF414
:1036E000006242614FF4005282614FF48072C26105
:1036F00003624362FDF7B4FF20B9074BA3639C63E9
:1037000002B010BD6B210648FFF700FEF5E700BFD1
:103710000020014000380240B00200201064024046
:10372000805A000808B50268074B9A4200D008BDCD
:103730000122064B1A60002211462920FDF7AAFE3D
:103740002920FDF7D9FEF2E7002800403C0E474251
:1037500002680E4B9A4200D0704700B583B000213A
:10376000019103F574435A6C42F400325A645B6C65
:1037700003F400330193019B0A461920FDF78AFEEA
:103780001920FDF7B9FE03B05DF804FB00440140C9
:103790000268154B9A4200D0704710B586B00024DD
:1037A000009403F5FA331A6C42F400321A641B6C6D
:1037B00003F400330093009B0C2301930223029334
:1037C00001230393032304930723059301A90748C7
:1037D000FEF7EAF8224621462620FDF75BFE26206A
:1037E000FDF78AFE06B010BD004400400000024014
:1037F0007047FEE7FEE7FEE7FEE770477047704759
:1038000008B5FDF7B3FBFDF7AAFE08BD08B50248F1
:10381000FFF75EF808BD00BF2802002008B5024887
:10382000FFF72AFC08BD00BF3403002008B502489A
:10383000FEF758FD08BD00BF1403002008B502487C
:10384000FDF7C4FF08BD00BFB00200200F49D1F84A
:10385000883043F47003C1F888300D4B1A6842F089
:1038600001021A60002098601A6822F0847222F423
:1038700080321A60074A5A601A6822F480221A605D
:10388000D8604FF000638B60704700BF00ED00E030
:103890000038024010300024DFF834D0002103E06B
:1038A0000C4B5B58435004310B480C4B42189A4266
:1038B000F6D30B4A02E0002342F8043B094B9A423C
:1038C000F9D3FFF7C3FF00F011F8FFF76FFE704761
:1038D00000000120085D000800000020DC0100203D
:1038E000DC01002078030020FEE7000070B50D4EDB
:1038F0000D4CA41BA4100025A54209D10B4E0C4C65
:1039000002F090F8A41BA4100025A54205D170BDBB
:1039100056F8253098470135EEE756F82530984798
:103920000135F2E7005D0008005D0008005D000859
:10393000045D000802440346934200D1704703F837
:10394000011BF9E72DE9FF4755EC104B0D9FDDF802
:1039500030A0002D0E4691461946B8BF22462B4690
:1039600027F02007BBBF05F100431D4600232D2390
:10397000B8BF1446462F0B7004D0452F00D1013636
:10398000022100E0032103AB019302AB0093324616
:10399000534645EC104B00F0F3FC472F804602D114
:1039A00019F0010F26D0462F08EB060911D198F81F
:1039B0000030302B0AD10022002320462946FDF793
:1039C00027FA18B9C6F10106CAF80060DAF8003023
:1039D00099440022002320462946FDF719FA38B9F8
:1039E0003022039B994505D9591C03911A70F8E7B9
:1039F000CDF80C90039B0E9AA3EB0803404613608E
:103A000004B0BDE8F087F7B503460029B8BF4942C6
:103A100003F8022BB4BF2D222B220929427020DD8E
:103A20000DF1070217460A2691FBF6F506FB151164
:103A30003031092D02F8011C02F1FF34294609DC5E
:103A40003031023A04F8011CBA421C4604D3201A51
:103A500003B0F0BD2246E7E712F8011B03F8011B93
:103A6000F2E730221C46114404F8022B5970EEE7AD
:103A70002DE9F04F8DB00C46DDF8588016461F46F4
:103A8000054601F04BFA036804931846FCF7FEFE66
:103A900000230A93D8F800300590073323F007037A
:103AA00003F1080294F818A0D4F800B0C8F8002078
:103AB000D3E90023C4E91223D4E9128929F0004391
:103AC0000793CDF818804FF0FF32A54BDDE90601D2
:103AD000FDF7D0F9002840F0FB814FF0FF32A04BFA
:103AE000DDE90601FDF7A8F9002840F0F181002288
:103AF000002340464946FDF795F910B12D2384F87F
:103B00004330984B984ABAF1470F8CBF904698467D
:103B100003232BF00402236122604FF00009009779
:103B200033460BAA2146284600F0E2F9013040F066
:103B300093804FF0FF300DB0BDE8F08F61684B1CF3
:103B40004BF480623FD106236360002303930AABEA
:103B5000029309AB009349EC108B0DF12303226013
:103B6000CDF804A061682846FFF7ECFE0AF0DF03F9
:103B7000472B804609D1099BD81C02DB626893421F
:103B800057DDAAF1020A5FFA8AFABAF1650F0999BC
:103B900034D80139524604F150000991FFF733FF40
:103BA0000A9A8318012A8146236102DC2268D10720
:103BB00001D5013323619DF82330002BAFD02D2395
:103BC00084F84330ABE7BAF1670F02D0BAF1470F80
:103BD000BBD189B1002303930AAB029309AB0093D5
:103BE00049EC108B2260CDF804A00DF12303284688
:103BF000FFF7A8FE8046BEE70123A5E7BAF1660FEE
:103C000019D1002963680CDD216113B92268D2073C
:103C100002D501330B442361099BA3654FF00009D2
:103C2000C9E713B92268D00701D50233F3E70123AE
:103C3000F1E74FF0670A099B0A9A934205DB226875
:103C40002361D107E8D50133E5E7002BD4BFC3F1E9
:103C5000020301231344DEE723685A0507D42369CE
:103C6000424631462846B84701302BD161E7BAF1C8
:103C7000650F40F2E28000220023D4E91201FDF733
:103C8000C7F800283CD00123384A31462846B847B7
:103C900001303FF44EAF0A9B099A9A4202DB236837
:103CA000D8070FD5059B049A31462846B8470130FE
:103CB0003FF43FAF4FF0000804F11A090A9B013BA3
:103CC000984512DB23689B0709D54FF0000804F1E3
:103CD0001909E3680B9A9B1A9845C0F2EE80E068D8
:103CE0000B9B9842B8BF184625E701234A46314648
:103CF0002846B84701303FF41CAF08F10108DDE762
:103D0000099B002B34DC0123184A31462846B8476A
:103D100001303FF40EAF099B23B90A9B13B9236806
:103D2000D907CFD5059B049A31462846B8470130BC
:103D30003FF4FFAE4FF0000904F11A0A099B5B4201
:103D4000994501DB0A9B8BE7012352463146284601
:103D5000B84701303FF4EDAE09F10109EEE700BFCD
:103D6000FFFFEF7F9C5A0008A05A0008AC5A0008D9
:103D70000A9AA36D9A42A8BF1A46002A914638DCD7
:103D800004F11A034FF0000B29EAE9790693D4F8FD
:103D900058A0AAEB09039B4533DB0A9B099A9A4278
:103DA0003ADB2368DA0737D40A9B0999A3EB0A02A6
:103DB000A3EB01099145A8BF9146B9F1000F33DC8F
:103DC0004FF0000829EAE97904F11A0A099A0A9BD6
:103DD0009B1AA3EB09039845BFF674AF0123524623
:103DE00031462846B84701303FF4A3AE08F1010838
:103DF000ECE71346314642462846B8470130BFD16A
:103E000097E60123069A31462846B84701303FF429
:103E100090AE0BF1010BBAE7059B049A3146284698
:103E2000B8470130C0D184E64B4608EB0A02314660
:103E30002846B8470130C3D17BE60A9A012A01DC43
:103E4000DB0737D50123424631462846B8470130C3
:103E50003FF46FAE059B049A31462846B8470130BF
:103E60003FF467AE00220023D4E91201FCF7D0FF33
:103E700058B14FF0000804F11A0A0A9B013B98451B
:103E80000DDB4B4604F15002EBE60A9B08F1010200
:103E9000013B31462846B8470130F2D149E60123BB
:103EA000524631462846B84701303FF442AE08F149
:103EB0000108E2E701234246EBE701234A46314687
:103EC0002846B84701303FF434AE08F1010800E756
:103ED00042464B4640464946FCF7CCFF00283FF49B
:103EE0002DAE014B014A0EE6A45A0008A85A00085C
:103EF0002DE9F04791461F468A680B69DDF820805E
:103F00009342B8BF1346C9F8003091F843200646E3
:103F10000C4612B10133C9F800302368990642BF3C
:103F2000D9F800300233C9F80030256815F00605CD
:103F300007D104F1190AE368D9F800209B1A9D42C1
:103F400029DB94F843302268003318BF012392061E
:103F50002ED404F1430239463046C047013021D007
:103F60002368E568D9F8002003F00603042B08BF96
:103F7000AD1AA36822690CBF25EAE57500259342B6
:103F8000C4BF9B1AED184FF000091A344D451BD1E0
:103F90000020BDE8F0870123524639463046C0472D
:103FA000013003D14FF0FF30BDE8F0870135C2E7A3
:103FB000E1185A1C302081F84300224494F845103F
:103FC00082F843100233C4E70123224639463046C3
:103FD000C0470130E6D009F10109D7E72DE9F043E8
:103FE00017460A7E85B06E2A984606460C460C9BFC
:103FF00001F1430E00F0BC801AD8632A2ED00AD8F3
:10400000002A00F0C880582A00F08A8004F1420596
:1040100084F842202AE0642A01D0692AF6D1216876
:104020001A6811F0800F23D0111D1960136827E062
:10403000732A00F0B48008D86F2A2AD0702AE5D1FC
:104040000A6842F020020A6003E0752A21D0782A2B
:10405000DCD1782284F845206E4964E01A6801F1C9
:104060004205111D1960136884F842300123A3E052
:1040700011F0400F02F104011960D7D0B2F90030FD
:10408000002B03DA2D225B4284F8432062490A2286
:1040900017E02068196810F0800F03D0081D186021
:1040A0000B6806E010F0400F01F104001860F7D033
:1040B0000B8859496F2A14BF0A220822002084F86D
:1040C00043006568A560002DC0F29C80206820F048
:1040D00004002060002B3FD1002D40F095807546F4
:1040E000082A0BD12368DA0708D5236962689A4247
:1040F000DEBF302305F8013C05F1FF35AEEB0503CB
:104100002361CDF800803B4603AA21463046FFF7E5
:10411000EFFE013055D14FF0FF3005B0BDE8F08320
:1041200081F845203C492268186812F0800F00F1A0
:1041300004051D6001D0036802E05506FBD5038825
:10414000D00744BF42F0200222601BB9226822F04F
:10415000200222601022B1E77546B3FBF2F002FBA9
:104160001033CB5C05F8013D03460028F5D1B7E7D5
:1041700008681A68496910F0800F04D0101D186093
:104180001368196007E010F0400F02F10400186096
:104190001368F6D01980002323617546B1E71A68C9
:1041A000111D19601568626800212846FCF778FB2C
:1041B00008B1401B606063682361002384F84330CA
:1041C0009FE723692A4639463046C0470130A2D0CE
:1041D00023689B0707D5002504F11909E368039AB2
:1041E0009B1A9D4205DBE068039B9842B8BF1846C6
:1041F00093E701234A4639463046C04701308AD00A
:104200000135EBE7002BA7D10B7884F8423004F19D
:10421000420565E7BF5A0008AE5A00080EB400B563
:104220009CB04FF402711DABADF8141002900690D3
:104230006FF000410A48049107914FF6FF7153F85F
:10424000042BADF816100068019302A901F06EFA74
:10425000029B00221A701CB05DF804EB03B070479B
:104260000C0000202DE9F74F03690C699C42804641
:1042700000F38280013C01F114074FEA840E00F143
:10428000140657F8245056F8240006EB0E030135A7
:1042900007EB0E090193B0FBF5F595B34FF0000A5B
:1042A0003846B446D34650F8042B93B205FB03A31B
:1042B0004FEA134A9BB2ABEB0303120CBCF800B0FD
:1042C00005FB02A213FA8BF34FEA124A1FFA82FB94
:1042D000DCF80020CBEB124202EB23429BB243EA14
:1042E000024381454FEA224B4CF8043BDBD256F89F
:1042F0000E3033B9019B043B9E421A4630D3C8F8B6
:104300001040404601F035F8002825DB01353046E5
:104310004FF0000E57F8042BD0F800C093B2AEEB6C
:104320000303120C13FA8CF3C2EB1C4202EB234280
:104330009BB243EA0243B9454FEA224E40F8043BA0
:10434000E8D256F8242006EB84032AB9043B9E42A7
:104350001A460BD3C8F81040284603B0BDE8F08FCA
:104360001268043B002ACAD1013CC5E71268043B2D
:10437000002AEFD1013CEAE70020EEE70000000050
:104380002DE9F04F57EC106B97B0CDE90067466A06
:10439000079104460A920F93209D3EB9102000F029
:1043A000CBFD6062466086600660C660636A19681D
:1043B00051B15A684A60012393408B60204600F057
:1043C00002FE636A00221A60019B002BBFBF01231B
:1043D0002B60019B23F00043B2BF019300232B60AD
:1043E000DDF80480A84B33EA08031BD10F9A42F290
:1043F0000F731360009B23B9C8F31300002800F06B
:104400007885219B53B9A14B21E0A14B029308333E
:10441000219A1360029817B0BDE8F08F9B4B02936E
:104420000333F5E7DDE90067002200233046394613
:10443000FCF7EEFC814660B10F9A01231360219BCB
:10444000002B00F05385934B219A1360013B02939C
:10445000E0E714AA15A947EC106B204601F001F81B
:10446000C8F30A558246002D7ED0C7F3130343F0EC
:104470007F51304641F44011A5F2FF35CDF8489008
:104480000022854BFBF7C6FE79A3D3E90023FCF796
:1044900057FA79A3D3E90023FBF7BEFE0646284668
:1044A0000F46FCF705F876A3D3E90023FCF748FA9A
:1044B00002460B4630463946FBF7AEFE06460F462F
:1044C000FCF7EEFC00228346002330463946FCF719
:1044D000A9FC58B15846FBF7EBFF02460B463046A5
:1044E0003946FCF795FC08B90BF1FF3BBBF1160F01
:1044F00059D86A4901EBCB01DDE90023D1E900017C
:10450000FCF7AEFC002850D00BF1FF3B00230E93CC
:10451000149B5D1B6B1E069345BFC5F101030593FC
:10452000002300234CBF06930593BBF1000F3EDB35
:10453000069BCDF82CB05B44069300230893079BA1
:10454000092B00F2AF80052BC4BF043B0793079BE8
:10455000A3F10203CCBF00260126032B00F2AE809C
:10456000DFE803F082842F77159B149D1D4405F22C
:104570003243202B11DD009A05F21240C3F14003B3
:1045800022FA00F008FA03F31843FBF781FF012336
:10459000A1F1F871013D129372E7C3F12000009B75
:1045A00003FA00F0F1E70123B1E70E90B0E7059BB5
:1045B000A3EB0B030593CBF10003089300230B93AC
:1045C000BDE7012309930A9B002B7ADD0493039333
:1045D000656A00226A60042101F114029A4275D9C9
:1045E0006968204600F0BBFC636A28601B68029380
:1045F000039B0E2B00F2E580002E00F0E2809DED83
:10460000007BBBF1000F8DED0C7B74DD234A0BF0BA
:104610000F034FEA2B1602EBC303F006D3E9008920
:1046200059D51F4B51EC170BD3E90823FCF7B2FA0D
:10463000CDE9000106F00F060325194F002E4CD1DD
:1046400042464B46DDE90001FCF7A4FACDE9000142
:104650006AE0012309930A9B5B4404930133012B15
:104660000393B8BF0123B3E70023ABE70023F1E7CF
:1046700061436F63A787D23FB3C8608B288AC63F68
:10468000FB799F501344D33F0000F07FD95A0008B4
:10469000D05A0008AD5A00080000F83F085B000837
:1046A000E05A000801260023079309964FF0FF33D4
:1046B00004930393002212230A9289E701230993AA
:1046C000F4E70123049303931A46F5E76A6801327D
:1046D0006A60490080E70225AFE7F10708D5404648
:1046E0004946D7E90023FCF72BF901358046894676
:1046F00076100837A2E700F09D80CBF100069F4BB3
:104700009F4F06F00F0203EBC203D3E90023DDE95C
:104710000C01FCF715F9CDE9000136110023022543
:10472000002E7CD1002B91D10E9B002B00F08480B9
:10473000DDE900890022934B40464946FCF772FBB5
:10474000002879D0039B002B76D0049B002B34DD0E
:1047500000228D4B40464946FCF7F2F8CDE90001B6
:10476000049E0BF1FF3701352846FBF7A1FEDDE97A
:104770000023FCF7E5F80022844BFBF74DFD804653
:10478000A1F15079002E5AD10022814BDDE90001C0
:10479000FBF740FD42464B46CDE90001FCF760FBCC
:1047A000002840F09B82424609F10043DDE9000108
:1047B000FCF738FB002840F08F82DDE90C23CDE9BF
:1047C0000023159B002BC0F25081BBF10E0F00F3AC
:1047D0004C816A4B03EBCB03D3E900890A9B002B86
:1047E00080F2DA80039B002B00F3D68040F07382C6
:1047F0000022674B40464946FCF7A2F8DDE900235A
:10480000FCF724FB039E3746002840F04A82029BB7
:10481000029A5D1C312313700BF1010B45E2F20784
:1048200005D5D7E90023FCF78BF801350123761075
:10483000083775E7022577E75F46039E94E7029AFB
:104840004E4B32441392099A711E002A48D003EB52
:10485000C103D3E9002300204E49FCF79BF94246EF
:104860004B46FBF7D7FC029D80468946DDE90001F7
:10487000FCF716FB0646FBF71BFE02460B46DDE97E
:104880000001FBF7C7FC303605F8016B42464B468A
:10489000CDE90001FCF7C6FA002865D1DDE9002367
:1048A00000203849FBF7B6FC42464B46FCF7BAFA03
:1048B000002840F0BA80139B9D423FF47EAF002257
:1048C000314B40464946FCF73BF80022804689467A
:1048D0002D4BDDE90001FCF733F8CDE90001C5E718
:1048E00003EBC10142464B46D1E90001FCF728F831
:1048F000CDE91001029DDDE90001FCF7D1FA064681
:10490000FBF7D6FD303602460B46DDE90001FBF72A
:1049100081FC05F8016B139BAB42804689464FF042
:10492000000225D11B4BDDE91001FBF775FC0246A7
:104930000B4640464946FCF793FA002875D1DDE95D
:10494000102300201349FBF765FC02460B46404646
:104950004946FCF767FA00283FF42FAF15F8013CF1
:10496000302B05F1FF3201D0BB464DE01546F5E78F
:10497000054BFBF7E5FFCDE90001BCE7085B00084C
:10498000E05A00080000F03F0000244000001C40F6
:10499000000014400000E03FDDE90067029D424650
:1049A0004B4630463946FCF7F5F8FCF779FA0090AB
:1049B000FBF77EFD42464B46FBF7C2FF02460B4625
:1049C00030463946FBF726FC009E039F303605F83B
:1049D000016B029EAE1BB74202460B4638D1FBF775
:1049E0001BFC06460F4602460B4640464946FCF76E
:1049F00019FAC8B932463B4640464946FCF708FA20
:104A000010B1009BDB070FD45146204600F0DBFAC3
:104A100000230F9A2B700BF101031360219B002BD5
:104A20003FF4F8AC1D60F5E45F4615F8012C392A17
:104A300005F1FF3306D1029A9A4207D13023137051
:104A4000013713461A7801321A708DE71D46ECE7DC
:104A50000022A44BFBF774FF0022002306460F46FA
:104A6000FCF7D6F900289AD0CEE7099A002A00F080
:104A7000CD80079A012A00F3AF80129A002A00F035
:104A8000A78003F23343089E059D059A1A440592B8
:104A9000069A01211A442046069200F034FB07468C
:104AA000002D0CDD069B002B09DDAB42059AA8BF4B
:104AB0002B46D21A0592069AED1AD31A0693089B32
:104AC000F3B1099B002B00F0A580002E10DD3946C4
:104AD0003246204600F0AEFB5246014607462046CD
:104AE00000F01AFB51468046204600F06CFAC246A0
:104AF000089B9A1B04D05146204600F09BFB82463F
:104B00000121204600F0FFFA0B9B002B064640F3E4
:104B100083801A460146204600F08CFB079B012B40
:104B200006467CDD4FF00008336906EB8303186905
:104B300000F09BFAC0F12000069B184410F01F0003
:104B400000F09680C0F12003042B40F38780059B82
:104B5000C0F11C0003440593069B054403440693DF
:104B6000059B002B05DD51461A46204600F0B0FBA0
:104B70008246069B002B05DD31461A46204600F092
:104B8000A7FB06460E9B002B74D03146504600F022
:104B9000F0FB00286EDA002351460A22204600F07E
:104BA00029FA099B0BF1FF3B8246002B00F0A881FC
:104BB000002339460A22204600F01CFA049B002BF1
:104BC000074600F3C880079B022B40F3C48059E0DE
:104BD000149BC3F1360356E7039B5E1E089BB3424A
:104BE000BFBF089B0896F21A0B9BB6BF9B189E1B73
:104BF0000B93039BB8BF0026002BB9BF059B039AFC
:104C0000059D039BBCBF9D1A00233EE7089E059DA2
:104C1000099F45E7089A6EE7079B012B19DC009B6B
:104C2000BBB9019BC3F313039BB9019B23F0004362
:104C30001B0D1B0583B1059B01330593069B0133B7
:104C400006934FF001080B9B002B7FF46DAF012002
:104C500072E74FF00008F6E79846F4E780D0059A2F
:104C60001C331A440592069A1A441D44134676E7EB
:104C70000346F4E7039B002B36DC079B022B33DD56
:104C8000039B0493049B63B931460522204600F040
:104C9000B1F901460646504600F06BFB00283FF78D
:104CA000B6AD0A9B029D6FEA030B002303933146C6
:104CB000204600F088F9002F3FF4A6AE039B2BB1ED
:104CC000BB4203D01946204600F07DF93946204604
:104CD00000F079F998E600263746E2E7BB4637460A
:104CE00095E500BF00002440099B93BB039B049300
:104CF000029D31465046FFF7B5FA00F1300905F83C
:104D0000019B029B049AEB1A9A4200F3DC80029BFF
:104D1000012AACBF9B1801339846002303935146E8
:104D20000122204600F0D4FA3146824600F021FBF1
:104D3000002800F38D8003D119F0010F40F0888026
:104D4000454615F8013C302B05F1FF32AFD1154631
:104D5000F7E7039B0493002D05DD39462A462046DC
:104D600000F0B6FA0746B8F1000F4CD0796820463B
:104D700000F0F5F83A6902320546920007F10C019D
:104D80000C3000F0E1F801222946204600F0A0FA9C
:104D9000009BDDF80880039703F0010307460593A5
:104DA00031465046FFF75EFA0399054600F1300997
:104DB000504600F0DEFA3A4600903146204600F0B8
:104DC000F2FAC368024603BB01460690504600F063
:104DD000D0FA069A034611462046069300F0F3F8EF
:104DE000069BA3B9079A92B9059A82B9B9F1390F0E
:104DF00029D0009B002B01DD05F1310908F10105E7
:104E000088F8009053E73846C2E70123E3E7009AA9
:104E1000002A04DB25D1079A1ABB059A0ABB002B8E
:104E2000ECDD51460122204600F052FA314682461E
:104E300000F09FFA002803DCE0D119F0010FDDD06B
:104E4000B9F1390FD8D1392388F8003008F10108B9
:104E5000454615F8013C392B05F1FF323BD00133B3
:104E600040E0002B08F1010505DDB9F1390FEAD06A
:104E700009F10109C4E7029B049A05F8019CEB1AA9
:104E80009342A8463FF44BAF514600230A222046E6
:104E900000F0B0F8039B0399BB4282464FF0000339
:104EA0004FF00A02204604D100F0A4F80390074610
:104EB00076E700F09FF8002303900A223946204647
:104EC00000F098F8F3E7514600230A22204600F04C
:104ED00091F882460DE7029B934205D1029A0BF1AD
:104EE000010B31231370E2E61546B2E7094BFFF7D9
:104EF000AEBA219B002B7FF488AA074BFFF7A7BA15
:104F0000049B002B3FF7F4AE079B022B7FF7F0AE1C
:104F1000B8E600BFAC5A0008D05A0008044B1B6822
:104F2000186A044B002808BF1846F030704700BFCD
:104F30000C00002070000020024B0146186800F0B1
:104F40003BBB00BF0C00002010B5431E0A44914239
:104F500000D110BD11F8014B03F8014FF7E770B510
:104F6000456A04460E463DB91020FFF7E5FF606232
:104F7000456085600560C560656AEB6883B1636AFA
:104F8000DB6853F82600B8B9012101FA06F56A1D5D
:104F90009200204600F0B4FA60B1466085600EE0F1
:104FA00021220421204600F0ABFA636AE860DB6846
:104FB000002BE4D1002070BD026843F826200023B6
:104FC0000361C36070BD70B5446A06460D463CB9C6
:104FD0001020FFF7B1FF7062446084600460C46019
:104FE0003DB1736A6A68DB6853F82210296043F8A0
:104FF000225070BD2DE9F0410D691F4606460C4652
:1050000001F1140E0023DEF8000081B202FB0171F1
:105010000F0C000C02FB007089B2013301EB004160
:105020009D424FEA10474EF8041BECDCD7B1A36851
:105030009D4212DB616830460131FFF790FF226923
:10504000023204F10C01804692000C30FFF77CFF25
:1050500021463046FFF7B7FF444604EB8503013590
:105060005F6125612046BDE8F081020C1204034611
:10507000B2B90304102013F07F4F04BF1B020830A5
:1050800013F0704F04BF1B01043013F0404F04BFF6
:105090009B000230002B06DB5B0003D5013070471C
:1050A0000020E8E720207047036813F0070201465C
:1050B0000BD0DA0723D4980749BF5B089B0801206F
:1050C0000B605CBF0B600220704798B2A8B91B0C44
:1050D000102013F0FF0F04BF1B0A08301A0704BF8B
:1050E0001B0904309A0704BF9B080230DA0702D478
:1050F0005B0806D001300B6070471046E9E70020DE
:1051000070472020704710B50C460121FFF727FF9C
:1051100001224461026110BD2DE9F74F14460A696E
:1051200023699A42B8BF0B468946BCBFA1461C46BC
:10513000D9F81070D4F810A0D9F80830D9F80410B4
:1051400007EB0A069E42C8BF0131FFF708FF00F1D6
:10515000140505EB86082B460022434516D304F1BF
:10516000140209F1140102EB8A0301EB8707019392
:10517000019C944213460CD8002E03DD58F8043DE0
:10518000002B54D0066103B0BDE8F08F43F8042B28
:10519000E3E7B3F800A00432BAF1000F20D0AE4626
:1051A00089464FF0000C59F8044BBEF800B0A3B28A
:1051B0000AFB03B34FEA144BDEF8004063444FEAA6
:1051C000144C0AFB0BC404EB13449BB243EA0443A4
:1051D0004F454FEA144C4EF8043BE4D8CEF800C0DB
:1051E00032F8029CB9F1000F1FD02B68AE468C46F6
:1051F0004FF0000ABCF80040BEF802B009FB04B44E
:10520000A2449BB243EA0A434EF8043B5CF8043BD9
:10521000BEF800401B0C09FB034303EB1A43674530
:105220004FEA134AE6D8CEF800300435A0E7013E35
:10523000A2E700002DE9F843154612F003020646E6
:105240000F4607D0013A214C002354F82220FFF7E3
:10525000D1FE0746AD1035D0746A3CB91020FFF777
:105260006BFE7062446084600460C460D6F8248081
:10527000D8F808404CB940F271213046FFF743FF9F
:105280000023C8F80800044603604FF00008EB074D
:105290000AD5394622463046FFF73EFF3946814659
:1052A0003046FFF790FE4F466D100BD0206838B99E
:1052B000224621463046FFF72FFF2060C0F80080CD
:1052C0000446E4E73846BDE8F88300BFD05B000839
:1052D0002DE9F0470C464FEA621A236949680AEB48
:1052E0000309A3680746164609F10105AB4231DB05
:1052F0003846FFF734FE0022804600F114031146C1
:1053000052452ADB20692AEAEA7A04F1140116F0F0
:105310001F0203EB8A0301EB800E22D0C2F1200CA6
:1053200000200E689640304343F8040B51F8040BFC
:105330008E4520FA0CF0F4D8186008B109F1020586
:10534000013D3846C8F810502146FFF73CFE404664
:10535000BDE8F08701315B00C8E743F82210013255
:10536000CEE7043B51F8042B43F8042F8E45F9D8BF
:10537000E6E703690A699B1A30B50CD19200143034
:1053800014318418114454F8045D51F8042D9542E9
:1053900003D005D30123184630BDA042F3D3FAE76A
:1053A0004FF0FF33F7E72DE9F0470D46074611466A
:1053B00028461446FFF7DDFF061E08D13146384661
:1053C000FFF7CDFD012303614661BDE8F087A4BF6F
:1053D00023462C4638466168A6BF1D460026012696
:1053E000FFF7BDFD2B69C660266905F1140904F1BC
:1053F000140202EB860709EB830800F114054FF055
:10540000000C52F804AB59F8044B1CFA8AF1A3B211
:10541000C91A230CC3EB1A4303EB214389B24FEAA9
:10542000234CC84541EA0343964645F8043BE8D877
:10543000BE4505D355F8043D8BB10661BDE8F08744
:105440005EF8041B1CFA81F31A1402EB11429BB2A2
:1054500043EA02434FEA224C45F8043BE8E7013EA9
:10546000E8E72DE9F7430E46012159EC108B15466C
:10547000FFF775FDC9F30A540746C9F3130334BB9C
:105480000193B8F1000F27D002A840F8088DFFF76C
:105490000BFE0099F0B1019AC0F1200302FA03F368
:1054A0000B43C2407B610192019BBB61002B14BF87
:1054B000022101213961C4B1A4F2334404443460AF
:1054C000C0F135002860384603B0BDE8F08343F4EE
:1054D0008013D5E77961E7E701A8FFF7E5FD019BB8
:1054E0007B61012139612030E5E707EB8103A0F200
:1054F000324030601869FFF7B8FDC0EB4110E1E7BA
:1055000038B502FB01F4214600F056F8054618B103
:1055100022460021FEF70EFA284638BD38B505466A
:10552000002945D051F8043C0C1F002BB8BFE418EB
:1055300000F02CFA1F4A1368104633B963601460F8
:105540002846BDE8384000F022BAA3420CD92168B1
:105550006218934204BF1A685B68636004BF521804
:1055600022600460ECE713465A680AB1A242FAD9F5
:1055700019685818A0420BD120680144581882427B
:105580001960DDD1106852685A6001441960D7E78C
:1055900002D90C232B60D3E7206821188A4204BF6C
:1055A00011685268626004BF091821605C60C7E737
:1055B00038BD00BFFC01002070B5CD1C25F00305EF
:1055C00008350C2D38BF0C25002D064601DBA942FD
:1055D00003D90C233360002070BD00F0D7F9234AB3
:1055E0001468214691B9224C23681BB9304600F05B
:1055F00091F920602946304600F08CF9431C26D1F1
:105600000C233360304600F0C2F9E4E70B685B1B03
:105610001AD40B2B0FD90B60CD50CC18304600F0AC
:10562000B6F904F10B00231D20F00700C31A1BD0AC
:105630005A42E25070BD8C420DBF63684B68636094
:10564000136018BF0C46E9E70C464968CAE7C41C5A
:1056500024F00304A04205D0211A304600F05AF984
:105660000130CDD02560D9E770BD00BFFC0100201E
:10567000000200202DE9F0478E689E4282460C46CB
:105680009146984635D88A8912F4906F31D02568B2
:1056900009696F1A6569022305EB450595FBF3F56A
:1056A00008F101033B449D4238BF1D46530531D5E7
:1056B0002946FFF781FF064650B90C23CAF800308F
:1056C000A38943F04003A3814FF0FF30BDE8F0878A
:1056D0003A462169FFF738FCA38923F4906343F02D
:1056E0008003A381266165613E44ED1B2660A560B1
:1056F0004646464528BF464632464946206800F0A1
:105700002BF9A3689B1BA36023681E44266000201E
:10571000BDE8F0872A4600F03BF906460028E1D1B3
:1057200021695046FFF7FAFEC7E700002DE9F04F68
:105730009DB0804603938B891C060D4616460FD5F7
:105740000B696BB94021FFF737FF2860286128B942
:105750000C23C8F800304FF0FF30C5E040236B61E8
:105760000023099320238DF8293030238DF82A3027
:105770004FF0010B37463C4614F8013B002B3CD15F
:10578000B7EB060A0BD05346324629464046FFF790
:1057900071FF013000F0A380099B534409933B78CB
:1057A000002B00F09C8000234FF0FF3204930793FE
:1057B000059206938DF853301A93052221785048AC
:1057C000FBF76EF8671C049BD8B9D90644BF2022AA
:1057D0008DF853201A0744BF2B228DF853202278CE
:1057E0002A2A16D0079A00210A20274601343B783E
:1057F000303B092B51D9C9B111E0252BC0D0274628
:10580000B9E73F4A801A0BFA00F0184304903C466F
:10581000D3E7039A111D12680391002A01DB079256
:1058200004E0524243F00203079204933B782E2B8C
:105830000ED17B782A2B07F1010132D1039B1A1D6F
:105840001B680392002BB8BF4FF0FF33023705935C
:105850002C4C397803222046FBF722F838B140233C
:10586000001B03FA00F0049B0343049301373978CB
:1058700025488DF8281006227E1CFBF711F8002819
:1058800035D0224BFBB9039B073323F007030833C2
:105890000393099B4B4409936CE700FB02320121FF
:1058A000A3E70023059318460A240F4601313A78EE
:1058B000303A092A03D9002BCAD00590C8E704FB67
:1058C00000200123F1E703AB00932A46104B04A903
:1058D0004046FEF7CDF8B0F1FF3F8146D9D1AB8904
:1058E0005B063FF538AF09981DB0BDE8F08F03ABFC
:1058F00000932A46064B04A94046FEF76FFBEAE7F1
:10590000DC5B0008E25B0008E65B0008713A000817
:105910007556000838B5064C002305460846236036
:1059200000F072F8431C02D1236803B12B6038BD2C
:105930007403002082B001B901A942B14BB11378C0
:105940000B601278101C18BF012002B0704710467F
:10595000FBE76FF00100F8E7884210B501EB0203A6
:1059600003D8421E99420CD110BD9842F9D2811839
:10597000D21AD34200D110BD13F8014D01F8014DE8
:10598000F7E711F8014B02F8014FEBE7704770475A
:10599000F8B5074614460E4621B91146BDE8F84051
:1059A000FFF70ABE22B9FFF7B9FD25462846F8BD24
:1059B00000F021F884420FD921463846FFF7FCFD5C
:1059C00005460028F2D031462246FFF7BDFA31469F
:1059D0003846FFF7A3FDE9E73546E7E749B1FF2A77
:1059E00085BF8A2303600A704FF0FF3098BF012003
:1059F00070470846704751F8040C0028A0F10400D5
:105A0000BCBF0B58C0187047044A05491368002BE7
:105A100008BF0B4618441060184670470402002067
:105A200078030020F8B500BFF8BC08BC9E4670475C
:0C5A3000F8B500BFF8BC08BC9E467047EB
:105A400000061016000610160000000000000000FE
:105A50000102030406070809000000000102030414
:105A60007C25753A25753A25757C25667C0A0D00DE
:105A70002E2E2F5372632F6D61696E2E630000000E
:105A80002E2E2F5372632F73746D333266347878F1
:105A90005F68616C5F6D73702E630000494E460055
:105AA000696E66004E414E006E616E00300030310E
:105AB0003233343536373839414243444546003075
:105AC00031323334353637383961626364656600A4
:105AD000496E66696E697479004E614E000000007F
