:020000040800F2
:1000000000000120D92E0008312E0008332E0008F0
:10001000352E0008372E0008392E00080000000099
:100020000000000000000000000000003B2E00085F
:100030003D2E0008000000003F2E0008412E000861
:10004000292F0008292F0008292F0008292F000830
:10005000292F0008292F0008292F0008292F000820
:10006000292F0008292F0008292F0008292F000810
:10007000292F0008292F0008292F0008292F000800
:10008000292F0008292F0008292F00080000000050
:10009000000000000000000000000000292F000800
:1000A000292F00084D2E0008292F0008292F0008AD
:1000B000292F0008292F0008292F0008292F0008C0
:1000C000292F0008292F0008292F0008292F0008B0
:1000D000292F0008292F00085D2E000800000000CD
:1000E000292F00086D2E0008292F000800000000AD
:1000F000000000000000000000000000292F0008A0
:1001000000000000292F0008292F0008292F0008CF
:1001100000000000000000000000000000000000DF
:100120007D2E0008292F0008292F0008292F0008FC
:10013000292F00080000000000000000000000005F
:10014000000000000000000000000000292F00084F
:10015000292F0008292F0008292F0008292F00081F
:10016000292F0008292F00080000000000000000CF
:10017000000000000000000000000000000000007F
:1001800000000000292F000800000000000000000F
:04019000292F00080B
:1001A00010B5054C237833B9044B13B10448AFF3B1
:1001B00000800123237010BD7000002000000000AB
:1001C0009837000808B5034B1BB103490348AFF348
:1001D000008008BD0000000074000020983700086F
:1001E00053B94AB9002908BF00281CBF4FF0FF319E
:1001F0004FF0FF3000F072B9ADF1080C6DE904CE9C
:1002000000F006F8DDF804E0DDE9022304B07047F1
:100210002DE9F047089E04468846002B4BD18A42C0
:10022000154667D9B2FA82F24AB1C2F1200701FA43
:1002300002F320FA07F7954047EA030894404FEA93
:10024000154E230CB8FBFEF71FFA85FC0EFB178832
:1002500043EA084307FB0CF1994209D9EB1807F16F
:10026000FF3080F01B81994240F21881023F2B44FD
:100270005B1AA4B2B3FBFEF00EFB103344EA034456
:1002800000FB0CFCA44509D92C1900F1FF3380F0C8
:100290000781A44540F2048102382C4440EA07401B
:1002A000A4EB0C0400271EB1D4400023C6E9004390
:1002B0003946BDE8F0878B4209D9002E00F0EB806B
:1002C0000027C6E9000138463946BDE8F087B3FA91
:1002D00083F7002F47D18B4202D3824200F2FA808B
:1002E000841A61EB030301209846002EE0D0C6E992
:1002F0000048DDE702B9FFDEB2FA82F2002A40F0E0
:100300008F80491B4FEA154E1FFA85F80127B1FB74
:10031000FEFC230C0EFB1C1143EA014308FB0CF10D
:10032000994207D9EB180CF1FF3002D2994200F242
:10033000CD808446591AA3B2B1FBFEF00EFB101417
:1003400043EA044408FB00F8A04507D92C1900F142
:10035000FF3302D2A04500F2B6801846A4EB080491
:1003600040EA0C409FE7C7F1200CBB4022FA0CFE8C
:100370004EEA030E01FA07F420FA0CF521FA0CF309
:100380004FEA1E482543B3FBF8F92C0C08FB193340
:100390001FFA8EFA44EA034309FB0AF49C4202FA6C
:1003A00007F200FA07F10BD91EEB030309F1FF3046
:1003B00080F087809C4240F28480A9F10209734456
:1003C0001B1BADB2B3FBF8F008FB103345EA034446
:1003D00000FB0AFAA24508D91EEB040400F1FF3322
:1003E0006BD2A24569D90238744440EA0940A0FBA7
:1003F0000289A4EB0A044C45C2464B4654D351D063
:10040000002E69D0B1EB0A0564EB030404FA0CFC7E
:10041000FD40FC404CEA0505C6E90054002747E7CB
:10042000C2F1200320FA03F7954001FA02F021FA05
:1004300003F34FEA154E3843010CB3FBFEF71FFAE6
:1004400085F80EFB173341EA034107FB08F38B42A3
:1004500004FA02F407D9691807F1FF3C2FD28B4246
:100460002DD9023F2944CB1A81B2B3FBFEF00EFB1B
:10047000103341EA034100FB08F38B4207D96918A6
:1004800000F1FF3C17D28B4215D902382944C91A12
:1004900040EA07473BE73746304609E70746E7E6C5
:1004A0001846FBE64145ABD2B8EB020A69EB0E02F7
:1004B00001381346A4E76046E9E7184695E7674622
:1004C000D1E781467CE702382C4447E7ACF1020CC7
:1004D0002B442FE7384608E73746E9E6704700BF68
:1004E00001F0FF01102A2BDB10F0070F08D010F8E5
:1004F000013B013A8B422DD010F0070F42B3F6D1E9
:10050000F0B441EA012141EA014122F007047FF001
:1005100000070023F0E80256083C85EA010586EA58
:10052000010685FA47F5A3FA87F586FA47F6A5FA94
:1005300087F68EB9EED1F0BC01F0FF0102F00702A0
:1005400032B110F8013B013A83EA010313B1F8D14B
:100550000020704701387047002D06BF354603382C
:10056000073815F0010F07D1013015F4807F02BF65
:10057000013015F4C03F0130F0BC0138704700BFB6
:1005800010B504460E4B18784FF47A73B3FBF0F3B2
:100590000C4A1068B0FBF3F000F004FB68B90F2CB4
:1005A00001D901200AE0002221464FF0FF3000F07F
:1005B000B9FA034B5C60002000E0012010BD00BFD1
:1005C000000000200800002008B50B4B1A6842F418
:1005D00000721A601A6842F480621A601A6842F463
:1005E00080721A60032000F08BFA0020FFF7C8FF2A
:1005F00002F02EFB002008BD003C0240034A1168B7
:10060000034B1B780B441360704700BF9C00002015
:1006100000000020014B1868704700BF9C000020BC
:10062000494B5A6822F440325A605A6841680A437A
:100630005A600268536823F48073536002685368F9
:10064000016943EA012353600268536823F0407351
:1006500053600268536881680B4353600268936873
:1006600023F40063936002689368C1680B4393604E
:10067000826A364B9A4249D00268936823F07063CD
:10068000936002689368816A0B4393600268936881
:1006900023F04053936002689368C16A0B439360F0
:1006A0000268936823F0020393600268936881698B
:1006B00043EA41039360036A002B32D10268536816
:1006C00023F4006353600268D36A23F47003D36297
:1006D0000168CB6AC269013A43EA0253CB620268FD
:1006E000936823F40073936002689368016B43EA94
:1006F000412393600268936823F4806393600268E7
:100700009368416943EA8123936070470268936864
:1007100023F0706393600268936823F04053936002
:10072000BEE70268536843F400635360026853688D
:1007300023F46043536001684B68426A013A43EA1C
:1007400042334B60BFE700BF002301400100000FB0
:1007500030B310B50446036C43B1236C13F0100F93
:100760000AD00120002384F83C3010BD436480F897
:100770003C3002F0B7FAF0E7236C23F4885323F0FF
:10078000020343F0020323642046FFF749FF0020E1
:100790006064236C23F0030343F001032364E1E767
:1007A0000120704730B583B00023019390F83C30AE
:1007B000012B00F08180012380F83C300468A3689D
:1007C00013F0010F13D1A36843F00103A3603F4B63
:1007D0001C683F4BA3FB0434A40C04EB44040194B9
:1007E00002E0019C013C0194019C002CF9D10368BA
:1007F0009C6814F0010F61D0046C24F4E06424F0D0
:10080000010444F4807404645B6813F4806F05D0C1
:10081000036C23F4405343F480530364036C13F4D8
:10082000805F36D0436C23F00603436413460446CE
:10083000002280F83C20826B2648D063A26B2648B9
:100840001064A26B2548D06422686FF0220010600B
:100850002568686840F0806068602568A86840F492
:100860008070A86020680A4600F14C01A06B00F07F
:10087000A7FA1B4B5B6813F01F0F0DD123689A6812
:1008800012F0405F1DD19A6842F080429A600020C9
:1008900015E000234364C9E72368124A934201D05C
:1008A00000200CE09A6812F0405F0CD19A6842F088
:1008B00080429A60002002E0022000E0002003B0A5
:1008C00030BD0020FBE70020F9E700BF0800002052
:1008D00083DE1B43EB0800084F0900085B09000892
:1008E0000023014000200140704708B5836B1A6C5B
:1008F00012F0500F03D09B6BDB6C984708BD1A6C4D
:1009000042F400721A641A68916811F0405F19D1BC
:100910009969B9B9D16A11F4700F03D0916811F4D3
:10092000806F0FD1516821F0200151601A6C22F4C0
:1009300080721A641A6C12F4805F03D11A6C42F050
:1009400001021A641846FFF7CFFFD7E7704708B5D2
:10095000806BFFF7FBFF08BD704708B5806B402335
:100960000364436C43F004034364FFF7F5FF08BDE1
:1009700030B482B00023019390F83C30012B00F09A
:10098000B780012380F83C300B68092B3ED90568FD
:10099000EA689BB203EB43031E3B072404FA03F30C
:1009A00022EA0303EB600568EA688C680B8803EBB6
:1009B00043031E3B04FA03F31343EB604B68062B1F
:1009C0003AD805686A6B03EB8303053B1F2404FADE
:1009D00003F322EA03036B6305686A6B4B6803EB5E
:1009E0008303053B0C8804FA03F313436B6302682B
:1009F000404B9A4250D002683E4B9A4255D0002359
:100A000080F83C30184602B030BC704705682A694F
:100A10009BB203EB4303072404FA03F322EA030324
:100A20002B6105682A698C680B8803EB430304FA81
:100A300003F313432B61C1E70C2B16D805682A6B0F
:100A400003EB8303233B1F2404FA03F322EA03038B
:100A50002B6305682A6B4B6803EB8303233B0C88ED
:100A600004FA03F313432B63C1E70568EA6A03EB57
:100A70008303413B1F2404FA03F322EA0303EB62DE
:100A80000568EA6A4B6803EB8303413B0C8804FA70
:100A900003F31343EB62AAE70B68122BABD1164AA0
:100AA000536843F480035360A5E70B68103B012BA8
:100AB000A5D8114A536843F4000353600B68102B08
:100AC0009DD10E4B1B6802F1467202F52E3202F2E6
:100AD0008332A2FB03239B0C03EB83035A00019296
:100AE00002E0019B013B0193019B002BF9D186E7BA
:100AF000022088E700200140002301400800002078
:100B0000074AD36823F4E0631B041B0C000200F4C3
:100B1000E060184340F0BF6040F40030D0607047A0
:100B200000ED00E030B4174BDB68C3F30223C3F1E0
:100B30000704042C28BF04241D1D062D18D9033BCF
:100B40004FF0FF3505FA04F421EA0401994005FA53
:100B500003F322EA0303194300280BDB0901C9B29E
:100B600000F1604000F5614080F8001330BC704730
:100B70000023E5E700F00F000901C9B2024B195448
:100B8000F4E700BF00ED00E014ED00E000F01F020C
:100B9000400901239340024A42F82030704700BFC9
:100BA00000E100E00138B0F1807F0AD2064B5860C6
:100BB000064AF02182F823100020986007221A606C
:100BC00070470120704700BF10E000E000ED00E03A
:100BD000042805D0054A136823F004031360704706
:100BE000024A136843F004031360704710E000E00A
:100BF000704708B5FFF7FCFF08BD30B405682C68E6
:100C000024F480242C60046863608368402B05D042
:100C1000036899600368DA6030BC704703689A60C3
:100C20000368D960F8E700000268D3B2103B0B49B3
:100C3000A1FB03131B090A49C95CC165032B06D834
:100C400022F47F7222F003028265806D704722F4E5
:100C50007F7222F0030204328265F6E7ABAAAAAAE9
:100C6000B0370008836A826992B9012B0AD01BB1A0
:100C7000022B01D000207047C36A13F0807F2CD173
:100C800000207047C36AB3F1C07F28D000207047AE
:100C9000B2F5005F05D0022B29D9032B15D0002017
:100CA0007047032B03D8DFE803F01C041C0A002064
:100CB0007047C36A13F0807F15D100207047C36A64
:100CC000B3F1C07F11D000207047C36A13F0807F5A
:100CD00001D001207047002070470120704701209B
:100CE00070470120704701207047012070470120A4
:100CF0007047000070B50446FFF78CFC002C5BD0F9
:100D00000546002384F83430022384F83530226805
:100D1000136823F00103136023681A6812F0010FAF
:100D20000AD0FFF777FC401B0528F5D9202363651F
:100D3000032084F8350070BD1A68204810406168AF
:100D4000A2680A43E1680A4321690A4361690A43C8
:100D5000A1690A43E1690A43216A0A430243616ABD
:100D600004291ED01A602668756925F00705636A94
:100D70001D43042B07D1A36A1D43E36A1BB1204620
:100D8000FFF770FF90B975612046FFF74DFFE26DE8
:100D90003F239340836000206065012384F8353051
:100DA000C9E7E16A206B01430A43DBE7402363653F
:100DB000012084F83500BEE70120BCE73F8010F039
:100DC00038B5856D90F83440012C31D0012480F87D
:100DD000344090F83540E4B2012C04D0002380F870
:100DE0003430022038BD0446022084F8350000204B
:100DF00060652046FFF701FFE26D3F239340AB6043
:100E00002268136843F0160313602268536943F0A5
:100E100080035361236C23B12268136843F00803F5
:100E200013602268136843F0010313600020D9E7C0
:100E30000220D7E790F83530DBB2022B03D08023B5
:100E4000436501207047052380F835300268136838
:100E500023F001031360002070470000F0B583B059
:100E6000044600230193724B1D68724BA3FB0535AA
:100E7000AD0A876D3E68C26D08239340334210D09F
:100E800003681A6812F0040F0BD01A6822F00402EB
:100E90001A60C26D08239340BB60436D43F00103A9
:100EA0004365E26D01239340334209D022685269C1
:100EB00012F0800F04D0BB60636D43F002036365E2
:100EC000E26D04239340334209D02268126812F085
:100ED000020F04D0BB60636D43F004036365E26DF1
:100EE00010239340334224D02268126812F0080F76
:100EF0001FD0BB6023681A6812F4802F0DD01B68C6
:100F000013F4002F04D1236C9BB12046984710E0C6
:100F1000A36C73B1204698470BE01A6812F4807FE7
:100F200003D11A6822F008021A60236C0BB1204624
:100F30009847E26D20239340334255D022681268CF
:100F400012F0100F50D0BB6094F83530DBB2052B97
:100F50000ED023681A6812F4802F33D01B6813F464
:100F6000002F2AD1636C002B3ED0204698473BE0EF
:100F70002268136823F0160313602268536923F074
:100F800080035361236CA3B12268136823F0080324
:100F90001360E26D3F239340BB60002384F834303C
:100FA000012384F83530236D002B3FD0204698472D
:100FB0003CE0A36C002BE7D1EBE7E36BA3B1204649
:100FC000984711E01A6812F4807F09D11A6822F05C
:100FD00010021A60002384F83430012384F835307D
:100FE000E36B0BB120469847636DFBB1636D13F063
:100FF000010F17D0052384F835302268136823F0D9
:1010000001031360019B01330193AB4204D82368B1
:101010001B6813F0010FF5D1002384F8343001234D
:1010200084F83530E36C0BB12046984703B0F0BD2F
:1010300008000020B5814E1B00230F2B00F2C58055
:10104000F0B482B039E0042200E00022B2403A431A
:1010500002345E4E46F824205D4A1468EA4302EAF0
:1010600004064F6817F4803F01D045EA0406584C47
:101070002660646802EA04064F6817F4003F01D056
:1010800045EA0406524C6660A46802EA04064F680A
:1010900017F4801F01D045EA04064D4CA660E468B1
:1010A00022404E6816F4001F01D045EA0402484C65
:1010B000E26001330F2B00F2858001229A400C6818
:1010C00004EA0205AA42F4D14C68022C01D0122C89
:1010D00010D1DE08083650F826C003F00704A70038
:1010E0000F24BC402CEA040C0C69BC4044EA0C04FC
:1010F00040F8264004685F000326BE40F64306EA37
:10110000040C4C6804F00304BC4044EA0C04046082
:101110004C6804F1FF3CBCF1010F03D9112C01D044
:10112000122C10D1846806EA040CCC68BC4044EA56
:101130000C048460446824EA02024C68C4F300147E
:101140009C4014434460C26816408A68BA403243E7
:10115000C2604A6812F0805FABD0002201921D4A43
:10116000546C44F480445464526C02F48042019202
:10117000019A9C08A61C154A52F8267003F0030237
:1011800096000F22B24027EA0207134A90423FF42A
:101190005CAF02F5806290420ED002F58062904210
:1011A0000CD002F5806290420AD002F58062904233
:1011B0003FF449AF072249E7012247E7022245E70A
:1011C000032243E702B0F0BC70477047003801408B
:1011D000003C0140003802400000024012B90904FE
:1011E000816170478161704743695940416170472F
:1011F000002800F0BB8170B582B00446036813F08C
:10120000010F3BD0A74B9B6803F00C03042B2CD0A1
:10121000A44B9B6803F00C03082B21D06368B3F543
:10122000803F4FD0B3F5A02F52D09E4B1A6822F4C6
:1012300080321A601A6822F480221A606368002BD8
:1012400050D0FFF7E7F90546964B1B6813F4003FB3
:1012500014D1FFF7DFF9401B6428F5D903208AE198
:10126000904B5B6813F4800FD8D08E4B1B6813F43F
:10127000003F03D06368002B00F07A81236813F0ED
:10128000020F55D0874B9B6813F00C0F3ED0854B57
:101290009B6803F00C03082B33D0E368002B68D065
:1012A000814B01221A60FFF7B5F905467D4B1B689B
:1012B00013F0020F54D1FFF7ADF9401B0228F5D906
:1012C000032058E1774A136843F480331360B5E78D
:1012D000744B1A6842F480221A601A6842F4803211
:1012E0001A60ABE7FFF796F905466E4B1B6813F4DF
:1012F000003FC3D0FFF78EF9401B6428F5D90320C7
:1013000039E1684B5B6813F4800FC6D1654B1B68ED
:1013100013F0020F04D0E368012B01D001202AE171
:10132000604A136823F0F803216943EAC10313609C
:10133000236813F0080F40D0636963B35B4B01224D
:101340001A60FFF767F90546564B5B6F13F0020F03
:1013500033D1FFF75FF9401B0228F5D903200AE1DA
:10136000504A136823F0F803216943EAC10313606C
:10137000DEE74D4B00221A60FFF74CF90546494B5A
:101380001B6813F0020FD3D0FFF744F9401B02286B
:10139000F5D90320EFE0454B00221A60FFF73AF938
:1013A0000546404B5B6F13F0020F06D0FFF732F992
:1013B000401B0228F5D90320DDE0236813F0040F59
:1013C00079D0384B1B6C13F0805F33D1002301932D
:1013D000344B1A6C42F080521A641B6C03F0805339
:1013E0000193019B0125324B1B6813F4807F23D0AE
:1013F000A368012B34D0052B38D02A4B1A6F22F06A
:1014000001021A671A6F22F004021A67A368002B00
:1014100036D0FFF7FFF80646224B1B6F13F0020F82
:1014200048D1FFF7F7F8801B41F288339842F3D98F
:101430000320A0E00025D6E71D4A136843F480731B
:101440001360FFF7E7F80646194B1B6813F4807F1B
:10145000CED1FFF7DFF8801B0228F5D903208AE000
:10146000104A136F43F001031367CFE70D4B1A6F58
:1014700042F004021A671A6F42F001021A67C5E7C8
:10148000FFF7C8F80646074B1B6F13F0020F11D089
:10149000FFF7C0F8801B41F288339842F3D903204C
:1014A00069E000BF0038024000004742800E47421A
:1014B00000700040E5B9A369002B5BD0304A926808
:1014C00002F00C02082A58D0022B17D02D4B002214
:1014D0001A60FFF79FF80446294B1B6813F0007F42
:1014E00042D0FFF797F8001B0228F5D9032042E00D
:1014F000234A136C23F080531364DCE7214B002252
:101500001A60FFF787F805461D4B1B6813F0007F34
:1015100006D0FFF77FF8401B0228F5D903202AE008
:10152000E369226A1343626A43EA8213A26A520899
:10153000013A43EA0243E26A43EA0263104A536013
:10154000104B01221A60FFF765F804460C4B1B682C
:1015500013F0007F06D1FFF75DF8001B0228F5D9D4
:10156000032008E0002006E0002004E0012070478E
:10157000012000E0002002B070BD0120FBE700BFA9
:101580000038024060004742324B9B6803F00C0376
:10159000042B5CD0082B01D02F4870472DE9F04B6D
:1015A0002C4B5A6802F03F025B6813F4800F2BD07B
:1015B000284B5B68C3F388131E4600275C01002597
:1015C000E41A65EB0705A90141EA9461A001001B3B
:1015D00061EB0501CB0043EA5073C400A01943EB53
:1015E00007014B0243EAD053440220461946002328
:1015F000FEF7F6FD174B5B68C3F3014301335B0055
:10160000B0FBF3F0BDE8F08B124B5B68C3F38813BB
:101610001E4600275C010025E41A65EB0705A901B9
:1016200041EA9461A001001B61EB0501CB0043EA94
:101630005073C400A01943EB07018B0243EA905397
:101640008402204619460023FEF7CAFDD2E703486C
:10165000704700BF003802400024F40000127A00F6
:10166000002800F09D8070B504464F4B1B6803F0C6
:101670000F038B4209D2CBB24B4A1370136803F0AD
:101680000F038B4201D0012070BD236813F0020FBD
:1016900017D013F0040F04D0444A936843F4E05386
:1016A0009360236813F0080F04D0404A936843F412
:1016B000604393603D4A936823F0F003A0680343BE
:1016C00093600D46236813F0010F32D06368012B3D
:1016D00021D09A1E012A25D9344A126812F0020F2D
:1016E00060D032498A6822F0030213438B60FEF710
:1016F00091FF06462D4B9B6803F00C036268B3EB29
:10170000820F16D0FEF786FF801B41F28833984285
:10171000F0D90320B8E7254A126812F4003FE0D15F
:101720000120B1E7214A126812F0007FD9D10120CF
:10173000AAE71D4B1B6803F00F03AB4209D9EAB2BD
:10174000194B1A701B6803F00F03AB4201D0012044
:101750009AE7236813F0040F06D0144A936823F421
:10176000E053E1680B439360236813F0080F07D040
:101770000E4A936823F46043216943EAC1039360EE
:10178000FFF702FF094B9B68C3F30313084AD35CBE
:10179000D840084B18600020FEF7F2FE002073E7E7
:1017A0000120704701206FE7003C024000380240F2
:1017B000B837000808000020014B1868704700BFC8
:1017C0000800002008B5FFF7F7FF044B9B68C3F340
:1017D0008223034AD35CD84008BD00BF00380240D2
:1017E000C837000808B5FFF7E7FF044B9B68C3F351
:1017F0004233034AD35CD84008BD00BF00380240E2
:10180000C837000830B583B00446036813F0050FED
:101810000ED1236813F0020F36D1236813F0080F9E
:1018200000F09980227C4D4B1A60002003B030BD3F
:101830004B4B00221A60FEF7EDFE0546494B1B6834
:1018400013F0006F06D0FEF7E5FE401B0228F5D925
:101850000320EBE76268A3681B0743EA8213414A4F
:10186000C2F884303E4B01221A60FEF7D3FE0546D3
:101870003C4B1B6813F0006FCBD1FEF7CBFE401B37
:101880000228F5D90320D1E700230193354B1A6CC8
:1018900042F080521A641B6C03F080530193019B49
:1018A000314A136843F480731360FEF7B3FE0546B4
:1018B0002D4B1B6813F4807F06D1FEF7ABFE401B57
:1018C0000228F5D90320B1E7264B1B6F13F44073B0
:1018D00012D0E26802F440729A420DD0214B1A6F86
:1018E00022F44072214901200860002008601A6734
:1018F0001B6F13F0010F12D1E36803F44072B2F5CD
:10190000407F1DD0174A936823F4F813936015495C
:101910000B6FE268C2F30B0213430B677DE7FEF720
:1019200079FE05460F4B1B6F13F0020FE4D1FEF753
:1019300071FE401B41F288339842F3D9032075E7CA
:1019400008498A6822F4F81223F0704323F44073A4
:1019500013438B60DBE7002068E700BFE0114742DC
:10196000680047420038024000700040400E474285
:101970007047000010B504460368DA6812F4807FEF
:1019800003D09B6813F4805F0FD12368DA6812F4E8
:10199000007F03D09B6813F4005F0FD10C4B4FF412
:1019A00000325A610123637710BDFFF7E1FF22681F
:1019B000D368DBB263F4C073D360E6E7204600F07F
:1019C000BEFA2268D368DBB263F42073D360E5E724
:1019D000003C014038B504460268D36823F0A003F8
:1019E000D360FEF717FE05462368DB6813F0200F6F
:1019F00007D1FEF70FFE401BB0F57A7FF4D9032024
:101A000000E0002038BD38B50368DA6812F0400FF6
:101A100001D0002038BD04464FF0FF32DA60FEF7F7
:101A2000F9FD05462368DB6813F0400F07D1FEF788
:101A3000F1FD401BB0F57A7FF4D90320EAE70020DE
:101A4000E8E738B500285CD00446437F002B40D03F
:101A5000022363772368CA225A62236853225A6298
:101A60002046FFF7D0FF0546002836D1226893684C
:101A700023F4E00323F04003936021688A686368DD
:101A8000206903436069034313438B602368E26862
:101A90001A6122681369A16843EA0143136122684D
:101AA000D36823F08003D36023689B6813F0200F72
:101AB0001BD02268136C23F4802313642268136CF8
:101AC000A1690B4313642368FF225A6201236377E1
:101AD00009E0037701F046F9BAE72368FF225A626A
:101AE000042363770125284638BD2046FFF772FF9F
:101AF0000028DED02368FF225A6204236377012581
:101B0000F1E70125EFE7002302E001330A38C0B214
:101B10000928FAD81B01DBB21843704770B5037F60
:101B2000012B66D001230377022343773AB94B7820
:101B300013F0100F03D003F0EF030A334B700E467F
:101B40000446002A32D1C878FFF7DDFF050470781B
:101B5000FFF7D9FF45EA0025B078FFF7D4FF284307
:101B6000357840EA45352368CA225A6223685322F1
:101B70005A622046FFF747FF064610BB236825F050
:101B80007F4525F0C0055D602268D36823F080039F
:101B9000D36023689B6813F0200F1CD02368FF22BA
:101BA0005A62012363770023237712E0CD784878C7
:101BB000000240EA05408D7828430D7840EA45351B
:101BC000D1E72368FF225A62042363770023237737
:101BD0000126304670BD2046FFF7FCFE0028DDD010
:101BE0002368FF225A6204236377002323770126A8
:101BF000EFE70226EDE7F8B5037F012B78D00D461D
:101C000004460123037702234377002A46D1036861
:101C10009B6813F0400F01D10023CB702878FFF7A9
:101C200072FF06046878FFF76EFF46EA0026A87880
:101C3000FFF769FF3043EE7840EA06462368CA2280
:101C40005A62236853225A622046FFF7DCFE074699
:101C5000002835D1236806F07F3626F0FE461E6048
:101C60002268936823F48023936021688B68EA6874
:101C70002869024313438B602268D36823F08003F2
:101C8000D36023689B6813F0200F23D02368FF22C2
:101C90005A62012363770023237719E003689B6866
:101CA00013F0400F01D10023CB702B78687800022D
:101CB00040EA0340AB781843EE7840EA0646BDE7B9
:101CC0002368FF225A6204236377002323770127C6
:101CD0003846F8BD2046FFF77DFE0028D6D02368A1
:101CE000FF225A6204236377002323770127EFE75B
:101CF0000227EDE7F0B583B0634B1B68634CA4FB90
:101D00000343DB0A4FF47A7606FB03F30193037F68
:101D1000012B00F0B6800D46044601230377022311
:101D20004377002A61D103689B6813F0400F01D10B
:101D30000023CB70EF692878FFF7E5FE060468788A
:101D4000FFF7E1FE46EA0026A878FFF7DCFE06432F
:101D5000E87846EA004695F82000FFF7D4FE46EA08
:101D6000006038436B6918436968AB69194323689D
:101D7000CA225A62236853225A626B6AB3F5807F83
:101D80004DD02268936823F4007393602268D3686F
:101D9000DBB263F42073D360019B5A1E0192002BC7
:101DA00067D02368DA6812F0020FF5D01862236852
:101DB00099642268936843F400739360226893687F
:101DC00043F400539360324B1A6842F400321A60B5
:101DD0009A6842F400329A602368FF225A62012313
:101DE00063770020207703B0F0BD03689B6813F091
:101DF000400F01D10023CB70EA6929786B781B0270
:101E000043EA0143A9780B43E97843EA014395F893
:101E1000201043EA0163134368691843A4E722686A
:101E2000936823F4807393602268D368DBB263F411
:101E3000C073D360019B5A1E019293B12368DA6884
:101E400012F0010FF6D0D8612368596422689368B4
:101E500043F4807393602268936843F480539360E3
:101E6000B1E72368FF225A620320607700232377BB
:101E7000B9E72368FF225A620320607700232377A3
:101E8000B1E70220AFE700BF08000020D34D621089
:101E9000003C0140030903EB83035A0000F00F00EC
:101EA0001044C0B2704770B503689B6A4B6003680A
:101EB0001B69C3F30E038B6003681B6803F07F3359
:101EC00023F0FE431D0C05F03F000870C3F3062607
:101ED0004E7003F07F048C7005F04005CD705AB948
:101EE0000D46FFF7D7FF28703046FFF7D3FF687025
:101EF0002046FFF7CFFFA870002070BD70B50368C3
:101F00005B6823F07F4323F0C003180CC870C3F351
:101F100004264E7003F03F058D70C3F342330B70FF
:101F20005AB90C46FFF7B6FFE0703046FFF7B2FF34
:101F300060702846FFF7AEFFA070002070BD7047AC
:101F40000268D36843F00103D3600268136843F06A
:101F50000103136000207047704770477047704757
:101F600010B5044603681A6912F0020F11D0DA683E
:101F700012F0020F0DD06FF002021A6101230376F6
:101F800003689B6913F0030F70D0FFF7E6FF00238F
:101F9000237623681A6912F0040F12D0DA6812F05F
:101FA000040F0ED06FF004021A6102232376236817
:101FB0009B6913F4407F5FD02046FFF7CEFF0023DC
:101FC000237623681A6912F0080F12D0DA6812F02B
:101FD000080F0ED06FF008021A61042323762368DD
:101FE000DB6913F0030F4ED02046FFF7B6FF002346
:101FF000237623681A6912F0100F12D0DA6812F0F3
:10200000100F0ED06FF010021A6108232376236898
:10201000DB6913F4407F3DD02046FFF79EFF00238D
:10202000237623681A6912F0010F03D0DA6812F0E0
:10203000010F36D123681A6912F0800F03D0DA68D5
:1020400012F0800F34D123681A6912F0400F03D0C8
:10205000DA6812F0400F32D123681A6912F0200FAB
:1020600003D0DA6812F0200F30D110BDFFF774FFF3
:102070002046FFF773FF8AE72046FFF76DFF2046F3
:10208000FFF76CFF9BE72046FFF766FF2046FFF750
:1020900065FFACE72046FFF75FFF2046FFF75EFFD6
:1020A000BDE76FF001021A61204600F0E7FBC1E7CF
:1020B0006FF080021A61204600F074F8C3E76FF0F9
:1020C00040021A612046FFF74AFFC5E76FF0200281
:1020D0001A61204600F065F8C7E700000368234A4C
:1020E00090420ED0B0F1804F0BD0A2F57C429042CE
:1020F00007D002F58062904203D002F580629042E0
:1021000003D123F070034A681343184A90421AD04F
:10211000B0F1804F17D0A2F57C42904213D002F567
:10212000806290420FD002F5806290420BD002F59F
:102130009A32904207D002F58062904203D002F5B5
:102140008062904203D123F44073CA681343036052
:102150008B68C3620B688362044B984202D00123F0
:10216000436170470B690363F9E700BF000001405A
:10217000A8B110B5044690F839305BB1022384F859
:102180003930211D2068FFF7A9FF012384F8393079
:10219000002010BD80F8383000F0FAFDEEE7012095
:1021A0007047704770470268D36823F49073D36018
:1021B0000268536923F001035361202380F83A3009
:1021C000704790F83930DBB2212B2AD18368B3F500
:1021D000805F16D0036A5A1C02621A7803685A603C
:1021E000C38C013B9BB2C384EBB90268D36823F074
:1021F0008003D3600268D36843F04003D3600020BB
:102200007047036A1B880268C3F3080353600369BD
:102210001BB9036A02330362E2E7036A0133036214
:10222000DEE7022070470020704700002DE9F843E8
:10223000044601680A6922F44052C36813430B61E3
:102240000168CA6822F4164222F00C028368006911
:10225000034360690343E06903431343CB60216890
:102260004A6922F44072A36913434B61E369B3F5F1
:10227000004F60D02368B84A934200F0148102F501
:102280008062934200F00F81FFF79CFA00EB800020
:1022900000EB80006568AD00B0FBF5F5AF4FA7FB24
:1022A00005356D092E01FFF78DFA00EB800000EB7C
:1022B00080006568AD00B0FBF5F9FFF783FA00EB2D
:1022C000800000EB80006568AD00B0FBF5F5A7FB72
:1022D00005356D094FF0640808FB15952D01323561
:1022E000A7FB05356D0905F0F0053544FFF76AFADF
:1022F00000EB800000EB80006668B600B0FBF6F6ED
:10230000FFF760FA00EB800000EB800063689B0041
:10231000B0FBF3F0A7FB0030400908FB10684FEA60
:10232000081808F13208A7FB0837C7F343172368DA
:102330002F449F600DE12368874A93425BD002F5EA
:102340008062934257D0FFF73DFA00EB800000EB2C
:10235000800065686D00B0FBF5F5804FA7FB053583
:102360006D092E01FFF72EFA00EB800000EB8000D4
:1023700065686D00B0FBF5F9FFF724FA00EB80000B
:1023800000EB800065686D00B0FBF5F5A7FB053537
:102390006D094FF0640808FB1595ED003235A7FB79
:1023A00005356D096D0005F4F8753544FFF70AFA37
:1023B00000EB800000EB800066687600B0FBF6F66C
:1023C000FFF700FA00EB800000EB800063685B0021
:1023D000B0FBF3F3A7FB03235B0908FB13684FEA89
:1023E000C80808F13208A7FB0837C7F3421723686B
:1023F0002F449F60ADE0FFF7F5F900EB800000EBA4
:10240000800065686D00B0FBF5F5544FA7FB0535FE
:102410006D092E01FFF7E6F900EB800000EB80006C
:1024200065686D00B0FBF5F9FFF7DCF900EB8000A3
:1024300000EB800065686D00B0FBF5F5A7FB053586
:102440006D094FF0640808FB1595ED003235A7FBC8
:1024500005356D096D0005F4F8753544FFF7C2F9CF
:1024600000EB800000EB800066687600B0FBF6F6BB
:10247000FFF7B8F900EB800000EB800063685B00B9
:10248000B0FBF3F3A7FB03235B0908FB13684FEAD8
:10249000C80808F13208A7FB0837C7F342172368BA
:1024A0002F449F6055E0FFF79DF900EB800000EBA3
:1024B00080006568AD00B0FBF5F5284FA7FB05353A
:1024C0006D092E01FFF78EF900EB800000EB800014
:1024D0006568AD00B0FBF5F9FFF784F900EB80000B
:1024E00000EB80006568AD00B0FBF5F5A7FB053596
:1024F0006D094FF0640808FB15952D013235A7FBD7
:1025000005356D0905F0F0053544FFF76BF900EB73
:10251000800000EB80006668B600B0FBF6F6FFF7BF
:1025200061F900EB800000EB800063689B00B0FB6A
:10253000F3F0A7FB0030400908FB10684FEA0818C9
:1025400008F13208A7FB0837C7F3431723682F4465
:102550009F60BDE8F88300BF001001401F85EB516C
:1025600058B310B5044690F839300BB3242384F8DF
:1025700039302268D36823F40053D3602046FFF734
:1025800055FE2268136923F490431361226853694E
:1025900023F02A0353612268D36843F40053D360C5
:1025A0000020E063202384F8393084F83A3010BDED
:1025B00080F8383000F00CFCD8E70120704790F824
:1025C0003930DBB2202B16D1B9B1C2B190F8383016
:1025D000012B16D001628284C2840023C3632122AE
:1025E00080F8392080F838300168CA6842F08002EB
:1025F000CA601846704702207047012070470120CA
:10260000704702207047704708B50168CB6823F017
:102610004003CB60202380F83930FFF7F4FF00201F
:1026200008BD704708B590F83A30DBB2222B40D194
:102630008368B3F5805F0ED0036903BB03685A68F3
:10264000836A591C81621A70C38D013B9BB2C3859A
:10265000F3B100202EE0826A036943B903685B6826
:10266000C3F308031380836A02338362ECE70368D1
:102670005B68DBB21380836A01338362E4E703683B
:102680005B68826A511C816203F07F031370DBE791
:102690000268D36823F49073D3600268536923F00F
:1026A00001035361202380F83A30FFF7BAFF00207E
:1026B00000E0022008BD704710B5044602681368A8
:1026C000D168526913F00F0005D113F0200F02D02A
:1026D00011F0200F53D1002867D012F0010202D16F
:1026E00011F4907F61D013F0010F06D011F4807FB8
:1026F00003D0E06B40F00100E06313F0040F04D05E
:102700001AB1E06B40F00200E06313F0020F04D056
:102710001AB1E06B40F00400E06313F0080F04D03E
:102720001AB1E26B42F00802E263E26B002A48D081
:1027300013F0200F02D011F0200F24D123685B6921
:1027400003F04003E26B12F0080F00D13BB32046C8
:10275000FFF729FD23685A6912F0400F1BD05A6910
:1027600022F040025A61636B8BB11A4A1A65606BA2
:10277000FEF760FB28B3606B036D984721E02046AD
:10278000FFF750FF1DE02046FFF74CFFD6E720463D
:10279000FFF791FF15E02046FFF78DFF11E020467F
:1027A000FFF789FF0023E3630BE013F0800F02D0F3
:1027B00011F0800F06D113F0400F02D011F0400F3E
:1027C00004D110BD2046FFF7FCFCFAE72046FFF7D6
:1027D0001BFFF6E7D927000808B5806B0023C385E7
:1027E000C384FFF768FF08BD30B589B000240194A9
:1027F000134B1A6B42F001021A631A6B02F00102CA
:102800000192019A02941A6B42F008021A631B6B40
:1028100003F008030293029B0A4D22464FF47041D5
:102820002846FEF7DBFC4FF4704303930123049327
:102830000594069403A92846FEF7FEFB09B030BDB7
:1028400000380240000C024000B583B00021019125
:10285000094B1A6B42F480021A631B6B03F480036A
:102860000193019B0A463820FEF75CF93820FEF7F9
:102870008DF903B05DF804FB0038024070B59EB0DE
:10288000254D264E002229463046FFF737FB244CC3
:10289000002221463046FFF706FB224A1388013307
:1028A0001380AA786B78E97820786578A478039407
:1028B0000295019000911C4905A800F05BFB82B2D3
:1028C00005A91A48FFF77BFE4FF400511848FEF7A0
:1028D0008BFC184B1B8807EE903AF8EEE77AB0EEC7
:1028E000087A67EE877ADFED146A87EEA67A134BD3
:1028F00083ED007ADFED127A37EE677ADFED116A49
:10290000C7EE267AB3EE097A77EE877A0E4BC3EDDF
:10291000007A1EB070BD00BFA4010020A8010020F5
:10292000A00000208C000020D0370008C801002043
:10293000000C0240B400002000F07F45B8000020E9
:102940005C8F423F0AD7233BF8000020FEE70000DF
:1029500000B591B03148324B0360002343607F22C1
:102960008260FF22C260036143618361FFF769F8FF
:1029700000283ED10C238DF82C300F238DF82D30FC
:1029800025238DF82E3000220E920F920BA923489A
:10299000FFF731F990BB06238DF8283010238DF80E
:1029A00029301B238DF82A3012238DF82B3000227A
:1029B0000AA91A48FFF7B2F828BB00228DF80020B8
:1029C0008DF801200A238DF80230019203920492BF
:1029D00005920692079201238DF820304FF4807300
:1029E000099369460D48FFF785F988B911B05DF87C
:1029F00004FB4FF49D710B48FFF7A8FF4FF4A37140
:102A00000848FFF7A3FF4FF4A8710648FFF79EFFA1
:102A10004FF4B1710348FFF799FF00BFA8010020F0
:102A200000280040F837000808B50A480A4B036040
:102A300042F20F7343600023836042F2CF02C26010
:102A40000361FFF795FB00B908BD4FF4B971034866
:102A5000FFF77CFFBC00002000440140F83700086D
:102A600008B50B480B4B03604FF4E1334360002380
:102A70008360C36003610C2242618361C361FFF71D
:102A80006FFD00B908BD40F285110348FFF75EFFF6
:102A9000C801002000440040F837000800B585B0A8
:102AA0001648174B03604FF44033436000238360A4
:102AB0000361012282610362C36212498162C360C1
:102AC000C26102634261FDF743FE68B910230093BF
:102AD000012301930723029369460848FDF748FF45
:102AE00038B905B05DF804FB4FF488710648FFF76C
:102AF0002DFF4FF48D710448FFF728FFFC000020E4
:102B0000002001400100000FF837000800B599B01F
:102B100000220092314B196C41F0805119641B6CFA
:102B200003F080530093009B01922D490B6823F41E
:102B3000404343F400430B600B6803F440430193AC
:102B4000019B0A230C9301230F93102110911193E1
:102B50000223129313920822149254221592169370
:102B6000072317930CA8FEF743FB50BB0F230793D3
:102B700002210891002309934FF480520A920B938B
:102B800007A8FEF76DFD00BB022302934FF400730C
:102B9000059302A8FEF736FED8B9FEF70DFE114BDD
:102BA000A3FB00308009FDF7FDFF0420FEF710F8BD
:102BB000002211464FF0FF30FDF7B4FF19B05DF869
:102BC00004FBD6210848FFF7C1FEE4210648FFF7C1
:102BD000BDFEEB210448FFF7B9FE00BF00380240FC
:102BE00000700040D34D6210F837000808B5FDF7BB
:102BF000EBFCFFF78BFFFFF7F7FDFFF725FEFFF775
:102C0000A7FEFFF711FFFFF72BFFFFF747FF0A486B
:102C1000FFF796F9012209490948FDF7C3FD094C60
:102C2000002209492046FFF769F90022074920469A
:102C3000FFF739F9F3E700BFBC000020B400002023
:102C4000FC000020A8010020A4010020A00000201A
:102C500010B582B000240094214B5A6C42F480429B
:102C60005A645A6C02F480420092009A01941A6CE1
:102C700042F080521A641B6C03F080530193019B55
:102C80000720FDF73DFF224621466FF00B00FDF7C0
:102C900049FF224621466FF00A00FDF743FF224616
:102CA00021466FF00900FDF73DFF224621466FF0F7
:102CB0000400FDF737FF224621466FF00300FDF7C1
:102CC00031FF224621466FF00100FDF72BFF22461F
:102CD00021464FF0FF30FDF725FF02B010BD00BFC9
:102CE0000038024002681A4B9A4200D0704710B573
:102CF00082B0044600230193164A516C41F480715E
:102D00005164526C02F480720192019A1248134A83
:102D1000026043608360C3604FF4806202614FF4DD
:102D2000006242614FF4005282614FF48072C261CE
:102D300003624362FDF7DEFF20B9074BA3639C6388
:102D400002B010BD6B210648FFF700FEF5E700BF9B
:102D5000002001400038024044010020106402407D
:102D60000838000808B50268074B9A4200D008BD31
:102D7000064B01221A60002211462920FDF7D2FEDF
:102D80002920FDF703FFF2E7002800403C0E4742F0
:102D900002680E4B9A4200D0704700B583B0002104
:102DA000019103F574435A6C42F400325A645B6C2F
:102DB00003F400330193019B0A461920FDF7B2FE8C
:102DC0001920FDF7E3FE03B05DF804FB0044014069
:102DD0000268154B9A4200D0704710B586B00024A7
:102DE000009403F5FA331A6C42F400321A641B6C37
:102DF00003F400330093009B0C23019302230293FE
:102E000001230393032304930723059301A9074890
:102E1000FEF712F9224621462620FDF783FE2620E2
:102E2000FDF7B4FE06B010BD0044004000000240B3
:102E30007047FEE7FEE7FEE7FEE770477047704722
:102E400008B5FDF7DBFBFDF7D4FE08BD08B5024869
:102E5000FFF786F808BD00BFBC00002008B5024897
:102E6000FFF72AFC08BD00BFC801002008B50248D2
:102E7000FEF780FD08BD00BFA801002008B502488C
:102E8000FDF7ECFF08BD00BF440100200F49D1F859
:102E9000883043F47003C1F888300D4B1A6842F053
:102EA00001021A60002098601A6822F0847222F4ED
:102EB00080321A60074A5A601A6822F480221A6027
:102EC000D8604FF000638B60704700BF00ED00E0FA
:102ED0000038024010300024DFF834D0002103E035
:102EE0000C4B5B58435004310B480C4B42189A4230
:102EF000F6D30B4A02E0002342F8043B094B9A4206
:102F0000F9D3FFF7C3FF00F011F8FFF76FFE70472A
:102F10000000012068380008000000207000002038
:102F2000700000200C020020FEE7000070B50D4E7E
:102F30000D4CA41BA4100025A54209D10B4E0C4C2E
:102F400000F02AFCA41BA4100025A54205D170BDE9
:102F500056F8253098470135EEE756F82530984762
:102F60000135F2E760380008603800086038000872
:102F7000643800080EB400B59CB01DAB02900690FA
:102F80006FF00041094807910491094953F8042B57
:102F900005910068019302A900F066F8029B0022E7
:102FA0001A701CB05DF804EB03B070470C000020F1
:102FB0000802FFFF2DE9F0478E689E4282460C46CC
:102FC0009046994637D88A8912F4906F31D0256897
:102FD00009696F1A6569022305EB450595FBF3F551
:102FE00009F101033B449D4238BF1D46530530D5CE
:102FF000294600F029FB064650B90C23CAF80030D8
:10300000A38943F04003A3814FF0FF30BDE8F08770
:103010003A46216900F0A6FAA38923F4906343F0AD
:103020008003A381266165613E44ED1B2660A56097
:103030004E464E4500D94E4632464146206800F085
:103040009CFAA3689B1BA36023681E442660002093
:10305000DCE72A4600F052FB06460028E2D121694F
:10306000504600F0A3FAC8E72DE9F04F9DB0804626
:1030700003938B891D060C4616460FD50B696BB959
:10308000402100F0E1FA2060206128B90C23C8F843
:1030900000304FF0FF30C7E0402363610023099305
:1030A00020238DF8293030238DF82A304FF0010B82
:1030B00037463D4615F8013B0BB1252B3ED1B7EB0A
:1030C000060A0BD05346324621464046FFF772FFB0
:1030D000013000F0A480099B534409933B78002BF6
:1030E00000F09D8000234FF0FF32CDE905230493CB
:1030F00007938DF853301A932F46052217F8011BBA
:103100004F48FDF7EDF9049BD0B9D90644BF202202
:103110008DF853201A0744BF2B228DF853202A78AC
:103120002A2A15D0079A2F4600200A25394611F879
:10313000013B303B092B4DD9B8B10FE02F46B8E722
:103140003F4A801A0BFA00F0184304903D46D3E73B
:10315000039A111D12680391002A01DB079204E013
:10316000524243F00203079204933B782E2B0CD17A
:103170007B782A2B33D1039B1A1D1B680392002BEB
:10318000B8BF4FF0FF33023705932E4D3978032235
:103190002846FDF7A5F938B14023401B03FA00F09B
:1031A000049B034301370493397827488DF828108E
:1031B00006227E1CFDF794F9002838D0234B13BB60
:1031C000039B073323F0070308330393099B4B4406
:1031D00009936DE705FB023201200F46A6E70023A5
:1031E0000137059319460A25384610F8012B303A65
:1031F000092A03D9002BC8D00591C6E705FB012198
:1032000001230746F0E703AB00932246104B04A9C5
:103210004046AFF30080B0F1FF3F8146D6D1A3898D
:103220005B063FF536AF09981DB0BDE8F08F03ABE4
:1032300000932246064B04A9404600F081F8EAE7D5
:10324000243800082A3800082E3800080000000042
:10325000B52F00082DE9F04791461F468A680B6993
:10326000DDF820809342B8BF1346C9F8003091F8CA
:10327000432006460C4612B10133C9F800302368DA
:10328000990642BFD9F800300233C9F800302568EA
:1032900015F0060507D104F1190AE368D9F80020F2
:1032A0009B1AAB4228DC94F843302268003318BFE5
:1032B000012392062DD404F1430239463046C0471B
:1032C000013020D02368E568D9F8002003F0060318
:1032D000042B08BFAD1AA36822690CBF25EAE57567
:1032E00000259342C4BF9B1AED184FF000091A3411
:1032F0004D451AD1002008E0012352463946304698
:10330000C047013003D14FF0FF30BDE8F0870135F1
:10331000C3E7E1185A1C302081F84300224494F896
:10332000451082F843100233C5E70123224639468F
:103330003046C0470130E6D009F10109D8E7000066
:103340002DE9F04301F1430C0C46097E85B06E294E
:103350001746064698460C9A00F0B38022D8632997
:1033600036D00AD8002900F0B980582900F08380AF
:1033700004F1420584F8421032E0642901D0692941
:10338000F6D120681368050603F104012AD51B68ED
:103390001160002B03DA2D225B4284F843206F4832
:1033A0000A2239E0732900F09D8008D86F2920D0C7
:1033B0007029DDD1236843F02003236003E07529E1
:1033C00017D07829D4D1782384F84530644855E063
:1033D0001368191D1B68116004F1420584F842301E
:1033E00001238CE01B68116010F0400F18BF1BB266
:1033F000CFE713682568181D1060280601D51B68E3
:1034000002E06806FBD51B8854486F2914BF0A22C6
:103410000822002184F843106568A560002DC0F2E1
:103420009580216821F004012160002B3DD1002D01
:1034300040F08E806546082A0BD12368DB0708D54B
:10344000236962689A42DEBF302305F8013C05F12A
:10345000FF35ACEB05032361CDF800803B4603AAA2
:1034600021463046FFF7F6FE01304DD14FF0FF30D8
:1034700005B0BDE8F083394884F845101368216829
:103480001D1D1B6815600A060BD5CA0744BF41F015
:10349000200121601BB9226822F020022260102244
:1034A000B7E74D0648BF9BB2EFE76546B3FBF2F1C5
:1034B00002FB1133C35C05F8013D0B460029F5D131
:1034C000B9E7136825686169181D106028061B6834
:1034D00001D5196002E06A06FBD51980002323613B
:1034E0006546B9E71368191D11601D6862680021FF
:1034F0002846FCF7F5FF08B1401B60606368236154
:10350000002384F84330A7E723692A46394630462A
:10351000C0470130AAD023689B0713D4E068039BFF
:103520009842B8BF1846A3E701234A4639463046B9
:10353000C04701309AD00135E368039A9B1AAB4229
:10354000F2DCEBE7002504F11909F5E7002BACD11B
:10355000037884F8423004F142056CE735380008FE
:103560004638000810B5431E0A44914200D110BDF0
:1035700011F8014B03F8014FF7E7884210B501EB52
:10358000020307D8421E99420AD011F8014B02F8F3
:10359000014FF8E78342F5D98118D21AD34200D1FE
:1035A00010BD13F8014D01F8014DF7E738B5054698
:1035B000002945D051F8043C0C1F002BB8BFE4187B
:1035C00000F0D2F81F4A1368104633B963601460E4
:1035D0002846BDE8384000F0C8B8A3420CD921689D
:1035E0006218934204BF1A685B68636004BF521894
:1035F00022600460ECE713465A680AB1A242FAD985
:1036000019685818A0420BD120680144581882420A
:103610001960DDD1106852685A6001441960D7E71B
:1036200002D90C232B60D3E7206821188A4204BFFB
:1036300011685268626004BF091821605C60C7E7C6
:1036400038BD00BF9000002070B5CD1C25F00305EB
:1036500008350C2D38BF0C25002D064601DBA9428C
:1036600003D90C233360002070BD00F07DF8214A9F
:103670001468214691B9204C23681BB9304600F0EC
:1036800063F820602946304600F05EF8431C24D1E0
:103690000C233360304600F068F8E4E70B685B1BEE
:1036A00018D40B2B0FD90B60CD50CC18304600F03E
:1036B0005CF804F10B00231D20F00700C31AD3D0DF
:1036C0005A42E250D0E78C424B6816BF63601360E9
:1036D0000C46EBE70C464968CCE7C41C24F0030415
:1036E000A04205D0211A304600F02EF80130CFD08C
:1036F0002560DBE79000002094000020F8B5074625
:1037000014460E4621B91146BDE8F840FFF79CBFAC
:1037100022B9FFF74BFF25462846F8BD00F026F8F2
:10372000A0420FD221463846FFF78EFF05460028FB
:10373000F2D031462246FFF715FF31463846FFF7F3
:1037400035FFE9E73546E7E738B5064C002305467F
:103750000846236000F012F8431C02D1236803B12D
:103760002B6038BD080200207047704751F8043CB8
:10377000181F002BBCBF0B58C0187047044A0549DE
:103780001368002B08BF0B4618441060184670479A
:103790009800002010020020F8B500BFF8BC08BC5B
:1037A0009E467047F8B500BFF8BC08BC9E467047FF
:1037B00000061016000610160000000000000000B1
:1037C00001020304060708090000000001020304C7
:1037D00044617461202D3E2025753A25753A257582
:1037E0002E20437A6173202D3E2025753A25753AA7
:1037F00025750A0D000000002E2E2F5372632F6DC9
:1038000061696E2E630000002E2E2F5372632F739A
:10381000746D3332663478785F68616C5F6D737095
:103820002E630000232D302B2000686C4C00656651
:103830006745464700303132333435363738394101
:103840004243444546003031323334353637383917
:0838500061626364656600001B
:08385800B8C9FF7F0100000068
:04386000C501000896
:04386400A1010008B6
:1038680001000000100000000024F40010000020F7
:103878000000000000000000000000000000000040
:103888000000000000000000000000000000000030
:103898000000000000000000000000000000000020
:1038A8000000000000000000000000000000000010
:1038B8000000000000000000000000000000000000
:1038C80000000000000000000000000000000000F0
:0400000508002ED9E8
:00000001FF
